:020000021000EC
:10F00000000001205DE4020085E4020087E40200C4
:10F0100089E402008BE402008DE40200000000009D
:10F020000000000000000000000000008FE402006B
:10F0300091E402000000000093E4020095E4020065
:10F040009540020097E40200E153020097E40200B9
:10F0500097E4020097E40200CD4A020097E4020020
:10F0600097E4020097E4020097E4020097E40200AC
:10F0700097E4020097E4020097E4020097E402009C
:10F0800097E402008511020097E4020097E4020071
:10F09000C511020097E4020075EE020097E4020039
:10F0A00097E4020097E4020097E4020097E402006C
:10F0B00097E4020097E40200000000000000000056
:10F0C00097E4020097E4020097E4020097E402004C
:10F0D00097E4020097E4020097E4020000000000B9
:10F0E0000000000000000000000000000000000020
:10F0F0000000000000000000000000000000000010
:10F1000000000000000000000000000000000000FF
:10F1100000000000000000000000000000000000EF
:10F4000010B5054C237833B9044B13B10448AFF35E
:10F4100000800123237010BD38230020000000006D
:10F4200068FE02000C4B43B10C480D4910B5AFF318
:10F4300000800C48036823B910BD0A48036833B93B
:10F440007047094B002BF7D0BDE810401847064B1A
:10F45000002BF5D0184700BF0000000068FE020036
:10F460003C2300202423002000000000154B002B2B
:10F4700008BF134B9D46A3F5803A00218B460F46EB
:10F480001348144A121A00F063F80F4B002B00D0F7
:10F4900098470E4B002B00D0984700200021040015
:10F4A0000D000D48002802D00C48AFF3008000F09A
:10F4B0002BF82000290007F0CFF800F011F800BF6A
:10F4C0000000080000000120000000000000000013
:10F4D000382300204C340020000000000000000011
:10F4E00008B5074B044613B10021AFF30080054B6C
:10F4F0001868836A03B19847204600F031F800BFCE
:10F5000000000000C8F9020070B50D4E0D4CA41BA0
:10F51000A4100025A54209D10B4E0C4C10F048FA5E
:10F52000A41BA4100025A54205D170BD56F82530B6
:10F5300098470135EEE756F8253098470135F2E750
:10F540001C2300201C2300201C230020202300203B
:10F5500002440346934200D1704703F8011BF9E7C8
:10F56000FEE700BF80B582B000AF0346FB710C4BD5
:10F570001B78002B06D00B4B1B78FA799A4201D1ED
:10F58000002308E007F0CCFF054B01221A70054A62
:10F59000FB791370002318460837BD4680BD00BFB5
:10F5A000542300205523002080B483B000AF0023F3
:10F5B000FB71FB7918460C37BD465DF8047B70473C
:10F5C00080B588B000AF786039600123FB740023F8
:10F5D000FB613B68BB610A237B617A68FB6913446A
:10F5E000BA691946002007F04DFFF860FA69FB6818
:10F5F0001344FB61BA69FB68D31ABB61FB68002B3B
:10F6000005D17B69013B7B617B69002B03D0BB6922
:10F61000002BE2D100E000BFFB7C18462037BD463E
:10F6200080BD80B485B000AF786039603B68002B46
:10F6300002DA0023FB7307E07B681A683B681A4410
:10F640007B681A600123FB73FB7B18461437BD46A9
:10F650005DF8047B7047000080B586B000AFF860AD
:10F66000B9607A6000233B610123FB75FB68002BC6
:10F6700011D03B69BA68D018FB681B680A4A4FF47E
:10F6800080710FF0B1FD386139697868FFF7C9FF03
:10F690000346FB7502E07B6800221A60FB7D18467A
:10F6A0001837BD4680BD00BFCCF90200F0B5D1B01F
:10F6B00006AF044607F11000016007F10C010A6073
:10F6C00007F10802136007F1170322461A7000239E
:10F6D000C7F8243107F1180300221A60012387F8C4
:10F6E0002331FFF761FF0346002B01D0002363E1C4
:10F6F00007F118031B6807F11C02D11807F1180263
:10F7000007F110031868FFF7A7FF034683F0010312
:10F71000DBB2002B01D000234EE1D7F84031062B9D
:10F7200000F2238101A252F823F000BF49F7010043
:10F7300087F70100B5F70100F1F701003BF8010080
:10F7400093F80100F9F8010007F10C0318680FF0B5
:10F7500087FD0346C7F82431D7F8242107F11803A1
:10F760001B681344FF2B00F2028107F118031B688A
:10F7700007F11C02D018D7F8242107F10C031968EF
:10F780000FF05DFCF3E007F118031B6807F11C02A2
:10F79000D01807F118031B68C3F5807107F108033F
:10F7A0001B681B6807F10C0212680FF01DFDC7F8FB
:10F7B0002401DDE007F118031B6807F11C02D018D3
:10F7C00007F118031B68C3F5807107F108031B6874
:10F7D0001C6807F108031B6804331B6807F10C025F
:10F7E0000093234612680FF0FFFCC7F82401BFE026
:10F7F00007F118031B6807F11C02D01807F1180362
:10F800001B68C3F5807407F108031B681D6807F1C6
:10F8100008031B6804331B6807F1080212680832EA
:10F82000116807F10C02019100932B4612682146E2
:10F830000FF0DAFCC7F824019AE007F118031B68FF
:10F8400007F11C02D41807F118031B68C3F5807573
:10F8500007F108031B681E6807F108031B680433DF
:10F860001B6807F1080212680832116807F10802E4
:10F8700012680C32106807F10C020290019100939B
:10F8800033461268294620460FF0AEFCC7F8240123
:10F890006EE007F118031B6807F11C02D51807F189
:10F8A00018031B68C3F5807607F108031B681B6803
:10F8B0007B6007F108031B6804331B6807F108022B
:10F8C00012680832116807F1080212680C321068D9
:10F8D00007F1080212681032146807F10C02039451
:10F8E0000290019100937B681268314628460FF020
:10F8F0007BFCC7F824013BE007F118031B6807F104
:10F900001C02D61807F118031B68C3F5807E07F1A7
:10F9100008031B681B687B6007F108031B6804333E
:10F920001B6807F1080212680832116807F1080223
:10F9300012680C32106807F108021268103214685D
:10F9400007F1080212681432156807F10C020495D9
:10F9500003940290019100937B68126871463046CF
:10F960000FF042FCC7F8240102E000BF00E000BF36
:10F9700007F11803D7F824111846FFF752FE034683
:10F9800087F8233107F118031B68C7F81C3197F873
:10F990002331002B0FD0D7F81C31B3F5807F0AD864
:10F9A00007F118031A6807F11C0311461846FFF700
:10F9B00007FE034600E00023184607F59677BD468C
:10F9C000F0BD00BF80B485B000AF03463960FB7165
:10F9D0000223FB6018E0FA79FB689B0042FA03F30C
:10F9E000DBB203F00F03FB72FB68C3F101033A685B
:10F9F0001A44FB7A092B03D9FB7A3733DBB202E0D6
:10FA0000FB7A3033DBB21370FB685A1EFA60002BAE
:10FA1000E1D100BF1437BD465DF8047B704790B557
:10FA2000D1B000AF044607F108000160391D0A603B
:10FA30003A46136007F10F0322461A7007F11003CC
:10FA400000221A603B461B68C7F82C31D7F85421B6
:10FA5000D7F85C311344C7F8243107F108031B6859
:10FA6000002B01D00A2300E00023C7F82031FFF764
:10FA70009BFD0346002B02D03B461B682DE13B4615
:10FA80001B68002B37D107F110031B6807F1140224
:10FA9000D11807F1100207F108031868FFF7DCFD21
:10FAA000034683F00103DBB2002B02D03B461B6808
:10FAB00013E13B1D18680FF0D3FBC7F81C01D7F802
:10FAC0001C31C22B28BFC223C7F81C3107F1100319
:10FAD0001B6807F11402D0183B1DD7F81C211968C8
:10FAE0000FF0ADFA07F110031A68D7F81C311A4469
:10FAF00007F110031A6007F110031B68C7F81831EB
:10FB0000D7F81821D7F8203113443133C7F814310E
:10FB100007F11402D7F818311344C7F83C3107F144
:10FB20001402D7F814311344C7F838310023C7F84A
:10FB300028310DE0D7F83C3120221A70D7F83C313B
:10FB40000133C7F83C31D7F828310133C7F82831E1
:10FB5000D7F82821D7F820319A42EBD30023C7F8F1
:10FB600030316FE0D7F82C21D7F824319A421CD3DA
:10FB7000D7F83C315A1CC7F83C2120221A70D7F81C
:10FB80003C315A1CC7F83C2120221A70D7F83C316E
:10FB90005A1CC7F83C2120221A70D7F838315A1C59
:10FBA000C7F8382120221A7047E0D7F82C21D7F85F
:10FBB00054319A4208D2D7F85021D7F82C31134447
:10FBC0001B7887F837310AE0D7F82C21D7F8543161
:10FBD000D31AD7F8582113441B7887F8373197F890
:10FBE0003731D7F83C111846FFF7ECFED7F83C3117
:10FBF0000233C7F83C31D7F83C315A1CC7F83C21D6
:10FC000020221A70D7F83841631CC7F838310FF03A
:10FC1000D7F9024697F83731013313441B7803F0C4
:10FC20009703002B02D097F8373100E02E23237082
:10FC3000D7F82C310133C7F82C31D7F830310133E4
:10FC4000C7F83031D7F830310F2B8BD9D7F838318E
:10FC50005A1CC7F838210D221A70D7F838315A1CAF
:10FC6000C7F838210A221A70D7F83C315A1CC7F855
:10FC70003C2120221A7007F110031A68D7F82031AE
:10FC8000134403F1430207F110031A6007F1100354
:10FC90001A6807F1140311461846FFF791FC034652
:10FCA00083F00103DBB2002B02D0D7F82C3114E033
:10FCB000FFF77AFC0346002B02D0D7F82C310CE07A
:10FCC00007F1100300221A60D7F82C21D7F824314D
:10FCD0009A42FFF410AFD7F82C31184607F5A277F7
:10FCE000BD4690BD80B400AF024B1846BD465DF8DE
:10FCF000047B7047ADF6010080B400AF024B18469C
:10FD0000BD465DF8047B70471FFA010090B585B0D1
:10FD100000AF78600020FFF725FCF860FB68002B3F
:10FD20000AD1FFF7DFFF0446FFF7E6FF03467A68D4
:10FD30001946204600F00EF8FB6818461437BD46F9
:10FD400090BD80B500AF0120FFF70CFC03461846BC
:10FD500080BD000080B584B000AFF860B9607A6003
:10FD6000084BFF229A60074B00221A60054B0022C5
:10FD70005A60B968F86800F007F800BF1037BD4650
:10FD800080BD00BF5823002080B483B000AF7860EE
:10FD90003960074A7B68C2F81034054A3B68C2F8EC
:10FDA000143400BF0C37BD465DF8047B704700BFBC
:10FDB0005823002080B588B000AF786039607B6838
:10FDC00001337B600123BB610123FB770023FB73BD
:10FDD00007F10F03184601F057FB294B1A683B68DF
:10FDE0001A60274B9A68264B5968254B1B68CB1A1B
:10FDF000134401337B617A68BB6913443B613A6900
:10FE00007B699A422DD97B69002B27D03B7A01224E
:10FE100062F301033B723B7A6FF382033B723B7ADE
:10FE2000052262F3C5033B723B896FF389133B8163
:10FE3000144B1B68C3F31502BB6862F39F23BB60BE
:10FE40000F4B1B685A1C0E490A600D4A92681340FA
:10FE5000BA680B4902339B000B445A600023FB77BE
:10FE600005E0074B1A687B681344054A1360FB7B67
:10FE7000184601F014FBFB7F18462037BD4680BDB5
:10FE8000582300208C21002080B586B000AF0346A7
:10FE90003960FB7100237B611D4B9B683B6107F15F
:10FEA0000C0319467869FFF785FF0346002B2BD01A
:10FEB0003B7A012262F301033B723B7A6FF38203C8
:10FEC0003B72FB7903F00703DAB23B7A62F3C503B6
:10FED0003B727B69DBB203F00F03DAB23B8962F35A
:10FEE00089133B813B68C3F31502BB6862F39F2310
:10FEF000BB60FB685A1CFA603A691340BA6804494F
:10FF000002339B000B445A6000BF1837BD4680BDCA
:10FF10005823002080B588B000AF0346B9607A60EE
:10FF2000FB730123FB61224B9B68BB6107F1140348
:10FF30001946F869FFF73EFF0346002B34D03B7C9F
:10FF4000012262F301033B743B7C6FF382033B7439
:10FF5000FB7B03F00703DAB23B7C62F3C5033B741F
:10FF6000FB69DBB203F00F03DAB23B8A62F3891359
:10FF70003B82BB68C3F315023B6962F39F233B617D
:10FF80007B695A1C7A61BA6913403A69084902339D
:10FF90009B000B445A607A69BB691340044A0233E0
:10FFA0009B0013447A685A6000BF2037BD4680BD6D
:10FFB0005823002080B588B000AFB9607A603B60FC
:10FFC0000346FB730323FB612D4B9B68BB6107F169
:10FFD00014031946F869FFF7EDFE0346002B4AD0DB
:10FFE0003B7C012262F301033B743B7C6FF3820391
:10FFF0003B74FB7B03F00703DAB23B7C62F3C5037F
:020000022000DC
:100000003B74FB69DBB203F00F03DAB23B8A62F3A5
:1000100089133B82BB68C3F315023B6962F39F23DC
:100020003B617B695A1C7A61BA6913403A69144989
:1000300002339B000B445A607B695A1C7A61BA698F
:1000400013400F4A02339B0013447A685A607B695D
:100050005A1C7A61BA691340094A02339B0013445F
:100060003A685A607A69BB691340054A02339B00BB
:100070001344BA6A5A6000BF2037BD4680BD00BF36
:100080005823002080B400AF064B5A68054B1B680C
:100090009A420CBF01230023DBB21846BD465DF82F
:1000A000047B70475823002090B59DB004AFFFF744
:1000B000E9FF0346002B01D000232CE1984B5B683D
:1000C000FB65974B9B683B64FB6DBB65FB6D5A1CE6
:1000D000FA653A6C1340924A02339B0013445B6802
:1000E000BB611AE07B8BC3F389139BB21A463B8B2F
:1000F000C3F389139BB213441A46FB6D1344FB658B
:10010000FB6DBB65FB6D5A1CFA653A6C1340844A63
:1001100002339B0013445B68BB613B7E03F0030327
:10012000DBB2002BDED000237B653B7E03F00403B3
:10013000DBB2002B01D000237B65002387F853300E
:100140003B7E03F00303DBB2022B40F0A180FB6D8A
:100150005A1CFA653A6C1340714A02339B001344EF
:100160005B68FB637B8BC3F389139BB2BB633B8BE5
:10017000C3F389139BB2FB64FB6DDA433B6C134002
:1001800001339B007B63BA6B7B6B9A4243D97B6BD9
:10019000002B08D0FA6D3B6C134002339B00604A81
:1001A0001344043300E05F4B3B637B6B002B02D0B6
:1001B0007B6BDBB201E0BB6BDBB287F82F307B6B74
:1001C000002B01D0574B00E00023BB627B6B002B60
:1001D00006D0BB6BDAB27B6BDBB2D31ADBB200E0CA
:1001E000002387F827304E4BD3F814443B7EC3F3EB
:1001F000C203DBB2184697F82F3097F827200392F6
:10020000BA6A029201933B6B0093FB6CFA6B796DB7
:10021000A047F8641BE0424BD3F814443B7EC3F381
:10022000C203DBB21846FA6D3B6C134002339B00ED
:100230003B4A134404330022039200220292BA6B19
:1002400001920093FB6CFA6B796DA047F864FA6C2D
:10025000BB6B9A4209D1BB6B03339B08FA6D134405
:10026000FB65012387F8533048E0FB6C9BB2C3F376
:1002700009039AB23B8B62F38F133B83BA6D3B6CDD
:100280001340BA69264902339B000B445A6035E09B
:100290003B46BB64BB69C3F395233B623B8BC3F313
:1002A0008313DBB2FB6100237B6411E0FB6D5A1CFE
:1002B000FA653A6C13401A4A02339B0013445A6899
:1002C000BB6C1A60BB6C0433BB647B6C01337B6416
:1002D0007A6CFB699A42E9D3114BD3F810443B7E08
:1002E000C3F3C203DBB218463A46FB6900931346D8
:1002F0003A6A796DA047034687F8533097F8533030
:10030000002B02D0064AFB6D5360FFF7BBFE03468D
:1003100083F00103DBB218466437BD4690BD00BFD1
:10032000582300206423002080B588B000AF786097
:100330000023FB774BE02A4B1A68FB7FDB0013445A
:10034000BB61BB691B781A46012393407B61254B37
:100350001A687B691340002B36D07B69DA43214B46
:100360001B6813401F4A1360BB691B78184604F0D2
:100370009BFB0346FB74BB691B781A460123934021
:100380001A46194B1B681340FA7CB96909788A40F0
:10039000934219D1FB7CBA695278012A0CBF012221
:1003A0000022D2B293420CBF01230023DBB2FB60D8
:1003B000BB695B68002B07D0BB695B68BA691278C0
:1003C000F968C9B210469847FB7F0133FB77074BAA
:1003D0001B78FA7F9A42AED300BF2037BD4680BD5E
:1003E00070270020A02700209C27002074270020D1
:1003F00080B584B000AF78600B46FB7001227B684B
:1004000002FA03F3FB601E4B184600F09FFFB86032
:10041000BB68002B30D11B4B1A68FB681340002BC4
:1004200022D1786804F040FB0346002B06D0164B1F
:100430001A68FB681343144A136006E0FB68DA434A
:10044000114B1B681340104A13600E4B1A68FB686F
:1004500013430C4A13600A480C4B1B6800221946D0
:1004600000F040FFB86008E0FB68DA43054B1B680A
:100470001340044A136000E000BF1037BD4680BD42
:100480007C270020A02700209C2700207827002020
:1004900080B588B000AFF8600B467A60FB727B686D
:1004A000042B01D8072349E004F02AFA034683F01D
:1004B0000103DBB2002B07D004F0E2F9F861FB691D
:1004C000002B01D0FB6939E01E4AFB6813601E4A0D
:1004D000FB7A13701D4A7B6813601D4B00221A6063
:1004E0001C4B00221A601EE0FB7ADB00FA68134402
:1004F000BB6103233B7500237B750023BB75002381
:10050000FB75BB699B787B75BB691B78184607F147
:100510001403114A194604F005FAF861FB69002B2F
:1005200001D0FB690AE0FB7A5A1EFA72002BDBD17C
:100530000A4A00210A4800F0A1FE03461846203767
:10054000BD4680BD7027002074270020782700203A
:100550009C270020A0270020F103020029030200AD
:10056000E0F9020080B582B000AF00237B600CE0B0
:100570000B4B1A687B68DB0013441B78012118467B
:1005800004F02AFA7B6801337B60064B1B781A461D
:100590007B689A42ECD8002318460837BD4680BDD8
:1005A000702700207427002080B586B000AF7860E7
:1005B0000023BB8100233B617B687B6107F10C0357
:1005C0001A46002144F2010000F018F800BF183765
:1005D000BD4680BD80B400AFBFF34F8F0549054BCA
:1005E000DB6803F4E062044B1343CB60BFF34F8F2F
:1005F00000BFFDE700ED00E00400FA0580B584B01F
:1006000000AFF860B9607A600C490120FFF73CFC4C
:10061000FFF797FB00BFFFF747FD0346002BFAD11A
:10062000074B1B6803F00103002B00D0FFDEFFF730
:10063000D1FF00BF1037BD4680BD00BFE4F9020006
:10064000F0ED00E080B483B000AF0346FB710949D0
:1006500097F907305B09FA7902F01F02012000FACE
:1006600002F241F8232000BF0C37BD465DF8047B41
:10067000704700BF00E100E080B483B000AF0346E4
:10068000FB71094997F907305B09FA7902F01F02FB
:10069000012000FA02F2203341F8232000BF0C377A
:1006A000BD465DF8047B704700E100E080B483B094
:1006B00000AF0346FB71094997F907305B09FA79E6
:1006C00002F01F02012000FA02F2403341F8232019
:1006D00000BF0C37BD465DF8047B704700E100E0C9
:1006E00080B483B000AF0346FB71094997F9073026
:1006F0005B09FA7902F01F02012000FA02F260336E
:1007000041F8232000BF0C37BD465DF8047B7047DD
:1007100000E100E080B483B000AF03463960FB71B4
:1007200097F90730002B0BDA0D49FB7903F00F0323
:10073000043B3A68D2B25201D2B20B441A7609E0B5
:10074000084997F907303A68D2B25201D2B20B4445
:1007500083F8002300BF0C37BD465DF8047B70476B
:1007600000ED00E000E100E080B483B000AF78600D
:100770007B6803F00303002B0CBF01230023DBB2D3
:1007800018460C37BD465DF8047B704780B485B0D1
:1007900000AF7860254BFB607B68002B40D0244B7A
:1007A0001A68F9687B6800BF00BF00BF00BF00BFC8
:1007B00000BF00BF00BF8A422FD000BF00BF00BFF4
:1007C00000BF00BF00BF00BF00BF00BF00BF00BF31
:1007D00000BF00BF00BF00BF00BF00BF00BF00BF21
:1007E00000BF00BF00BF00BF00BF00BF00BF00BF11
:1007F00000BF00BF00BF00BF00BF00BF00BF00BF01
:1008000000BF00BF00BF00BF00BF00BF00BF00BFF0
:1008100000BF00BF00BF00BF00BF013BC3D17B6072
:1008200000BF1437BD465DF8047B70470024F40018
:10083000AC21002080B582B000AF7860054A7B68AB
:10084000C2F8083507211120FFF764FF00BF083701
:10085000BD4680BD0010014080B500AF0D4B4FF488
:100860008032C3F844230B4B4FF48032C3F8042387
:100870001120FFF735FF1120FFF7E4FE054B0122A1
:100880001A602F20FFF782FF034B01221A7000BF6E
:1008900080BD00BF00100140C427002080B500AF1C
:1008A0001120FFF7E9FE0F4B4FF48032C3F84823C5
:1008B0000C4B4FF48032C3F808230A4B01225A60D4
:1008C0002F20FFF763FF074B01229A60064B00229F
:1008D0001A602F20FFF75AFF044B00221A7000BF46
:1008E00080BD00BF00100140B0270020C4270020B9
:1008F00080B400AF034BD3F804351846BD465DF80D
:10090000047B70470010014080B483B000AF786072
:1009100039607A683B68D31A23F07F4318460C3756
:10092000BD465DF8047B704780B483B000AF78604B
:10093000044A7B68C2F8403500BF0C37BD465DF8FD
:10094000047B70470010014080B487B000AF78602E
:10095000294B1B68002B03D1274A7B68136045E0B5
:100960007B681A68244B1B681B689A4210D8224B7C
:100970001B68214A126811687A6812688A1A1A601C
:100980001D4B1A687B68DA611B4A7B6813602DE097
:100990007B681B68FB60184B1B687B61164B1B68F0
:1009A0003B6109E03B691B68FA68D31AFB603B694D
:1009B0007B613B69DB693B613B69002B04D03B6990
:1009C0001A68FB689A42EDD33B69002B05D03B695E
:1009D0001A68FB68D21A3B691A607B68FA681A6069
:1009E0007B683A69DA617B697A68DA6100BF1C3733
:1009F000BD465DF8047B7047AC27002080B487B00B
:100A000000AF7860234B1B687B617B693B6108E02A
:100A10003A697B689A4208D03B697B613B69DB6934
:100A20003B613B69002BF3D100E000BF3B69002B29
:100A300029D07A693B699A4211D1164B1B68DB6950
:100A4000144A1360134B1B68002B08D1124B012270
:100A50009A60124B00221A60114B01221A703B69F6
:100A60001B68FB603B69DA697B69DA617B69DB697A
:100A70003B613B69002B07D03B691A68FB681A444D
:100A80003B691A6000E000BF1C37BD465DF8047B7F
:100A9000704700BFAC27002000100140B0270020A5
:100AA000C527002080B500AF1120FFF7FFFD00BF74
:100AB00080BD80B500AF1420FFF7F8FD00BF80BDFA
:100AC00080B584B000AF78600F4B1B68002B11D04D
:100AD0000D4B1B687A6850697A689269114698478D
:100AE000F860FB68BB60BB68002B09D0B868FFF7F3
:100AF0005BFD05E07B685B697A6892691046984700
:100B000000BF1037BD4680BDC027002080B584B02F
:100B100000AF2B4B1B68002B4ED000237B60FFF7F0
:100B2000E7FE0246274B1B6819461046FFF7ECFE0E
:100B3000B860234B1B68FB601DE0FB681A68BB684C
:100B40009A421CD8FB681B68BA68D31ABB60FB6862
:100B50001B687A6813447B60FB683B60FB68DB6959
:100B6000FB603B681B7C002B05D03B6800221A749D
:100B70003868FFF7A5FFFB68002BDED100E000BF5F
:100B8000114B1A78114B1B789A420CD10F4B1B78E2
:100B90000133DAB20D4B1A700C4B1B78022B02D1C9
:100BA0000A4B00221A70094B1B781946084A7B68C9
:100BB00042F82130FFF77DFF00BF1037BD4680BDF2
:100BC000AC270020B0270020BC270020BD27002034
:100BD000B427002080B483B000AF7860194B1A7836
:100BE000194B1B789A4223D0164B1B780133DAB28B
:100BF000144B1A70134B1B78022B02D1114B00229D
:100C00001A70104B1B781A46104B53F822207B6841
:100C10001A607B681A680E4B1B6813440C4A1360F9
:100C20000B4B1B6823F07F43094A1360012303E049
:100C30007B6800221A60002318460C37BD465DF819
:100C4000047B7047BC270020BD270020B42700206C
:100C5000B027002080B584B000AF244B1B78FB7315
:100C6000234B1B68BB602FE0204B5968FA7B13466F
:100C70005B001344DB000B447B60FB7B0133FB73A5
:100C80001A4B9B78FA7B9A4201D10023FB737B6855
:100C90001B78022B02D0032B10D014E07B685B681A
:100CA0001846FFF7ABFE0FE0114B1B683B603B683B
:100CB00000221A743B68DB690D4A13600C4B1B68F9
:100CC000002BF1D100E000BF084B5B78FA7B9A4221
:100CD000CAD1074B1A68BB689A4214BF012300238C
:100CE000DBB218461037BD4680BD00BFA4270020E8
:100CF000AC27002080B489B000AFF860B9607A609A
:100D00000023FB6138E0214B1B68BB61BB691A689B
:100D1000FB689A4206D9BB691A68FB68D21ABB699C
:100D20001A602DE0BB691B68FA68D31AFB60BB69C7
:100D30001B68FA691344FB61BB6900221A60134BFC
:100D40001B687B61BB69DB69104A1360BB69DB68A8
:100D5000002B11D0BA68FB69134423F07F42BB69B2
:100D60005A60BB69DA68BB699A607B681A68BB69BC
:100D7000DA617B687A691A60044B1B68002BC2D168
:100D800000BF2437BD465DF8047B7047AC270020C8
:100D900080B586B000AF7860504B1B683B6185E042
:100DA0007B68002B05D07B687B617B69DB697B609E
:100DB0003CE04B4B5A684A4B1B7819460B465B008C
:100DC0000B44DB001344FB60454B1B780133DAB264
:100DD000434B1A70424B1A78414B9B789A4202D18E
:100DE0003F4B00221A70FB685B687B61FB681B78D5
:100DF000012B5BD17B691B7C002B00D056E0FB688C
:100E00009A687B695A60FB68DA687B699A60FB685C
:100E10001A697B69DA60FB685A697B699A61314BB0
:100E20001B78002B02D07B6900225A607B695A68CC
:100E30002D4B1B68D31A23F07F432C4A93420ED8C4
:100E40007B695A68284B1B6819461046FFF75CFD02
:100E500002467B699B681A447B691A6017E0224B43
:100E60001A687B695B6819461046FFF74DFDB8604C
:100E70007B699A68BB689A4206D97B699A68BB68A5
:100E8000D21A7B691A6002E07B6900221A607B69D2
:100E900000225A607B6900229A607B6901221A74E1
:100EA0007B690022DA617869FFF74EFD7B68002BD1
:100EB0007FF476AF0A4B1A78094B5B789A427FF43D
:100EC0006FAF064B1A683B699A4214BF0123002397
:100ED000DBB218461837BD4680BD00BFAC270020E6
:100EE000A4270020C5270020B0270020FEFF7F0098
:100EF00090B589B000AF7860274B1B68002B44D0B9
:100F0000254B1B681B68FB61FFF7F2FCB861234BA4
:100F10001B687B617969B869FFF7F6FC0346033308
:100F20003B611F4B1B7883F00103DBB2002B01D028
:100F3000FFF792FC3A69FB69934238BF13467A691E
:100F400013447B617B6923F07F437B617869FFF702
:100F5000EBFCFFF7CDFCF860B969F868FFF7D4FC4B
:100F60000346DC1CB9697869FFF7CEFC03469C4256
:100F70000DD9FFF7BDFC03461846FFF7D5FC2F201F
:100F8000FFF704FCFFF78EFD01E0FFF787FC00BFD1
:100F90002437BD4690BD00BFAC270020B0270020FD
:100FA000C427002080B586B000AF00237B60184BBB
:100FB0001B683B61174B1B68FB603B461846FFF7FD
:100FC00009FE0346FB72FFF745FE0346FB75FB7AFD
:100FD000002B07D03B683A1D39691846FFF78AFE97
:100FE0000123FB757B681846FFF7D2FE0346002BF2
:100FF00001D00123FB75FB7D002B02D0F868FFF7C1
:1010000077FF054B00221A7000BF1837BD4680BD20
:10101000B0270020AC270020C527002080B483B073
:1010200000AF0346FB71044AFB79537000BF0C37D5
:10103000BD465DF8047B7047A427002080B485B0CE
:1010400000AF7860134B5B780133FB73114B9B78D7
:10105000FA7B9A4201D10023FB730E4B1B78FA7B7B
:101060009A4201D100230EE07B68FA7B1A70094B8B
:101070005A68084B5B7819460B465B000B44DB0053
:101080001344BB60BB6818461437BD465DF8047B4B
:10109000704700BFA427002080B588B000AFF8607B
:1010A000B9607A603B600023FB610023BB7507F1E8
:1010B0001603184600F0E8F907F117031846FFF782
:1010C000BDFFB861BB69002B02D10423FB6117E0AF
:1010D000BB6901221A70BB69FA685A60FFF708FC05
:1010E0000246BB699A60BB69BA68DA60BB697A6814
:1010F0001A61BB693A685A61FB7D1846FFF78EFF9B
:10110000BB7D184600F0CBF9FB69002B01D1FFF73E
:10111000D0FCFB6918462037BD4680BD80B586B03F
:1011200000AF78600B46FB7000237B610023BB732C
:1011300007F10E03184600F0A7F907F10F03184650
:10114000FFF77CFF38613B69002B02D104237B61F0
:1011500009E03B69FA781A703B697A685A60FB7B50
:101160001846FFF75BFFBB7B184600F098F97B69D8
:10117000002B01D1FFF79DFC7B6918461837BD464F
:1011800080BD000080B500AF0D4B0022C3F84021A8
:101190000B4B0022C3F84421094B0022C3F848211D
:1011A000074B0022C3F84C21054B0022C3F8002155
:1011B000034B0022C3F80421FFF7A8FC00BF80BD49
:1011C0000010014080B500AFFFF7ECFE00BF80BD0E
:1011D00080B584B000AFF8607A603B600B46FB726C
:1011E0007868FFF7C1FA034683F00103DBB2002BF6
:1011F00001D0072331E07B68002B01D107232CE0CD
:10120000FFF74CFB174A3B681360174B00221A701C
:10121000154B00225A70144AFB7A9370124A7B686D
:101220005360124B00221A60114B00221A70114BAE
:1012300000221A701420FFF753FA07211420FFF739
:1012400069FA1420FFF7FEF9F868FFF7F3FAFFF7E1
:101250004FFB0246084B1A60002318461037BD4664
:1012600080BD00BFC0270020A4270020AC2700209D
:10127000BC270020BD270020B027002080B487B005
:1012800000AFF8600B467A60FB72154B5B68002B71
:1012900001D108231DE07B68002B01D1072318E052
:1012A000FB68002B01D1072313E0FB681B681B7C44
:1012B000002B01D008230CE0FB681B687B617B6975
:1012C00000221A747B69FA7A5A747B697A685A61C7
:1012D000002318461C37BD465DF8047B704700BFED
:1012E000A427002080B586B000AFF860B9607A60AE
:1012F000FB687B61144B5B68002B01D108231EE067
:10130000FB68002B01D1082319E0BB68042B01D82E
:10131000072314E07B695B69002B01D108230EE0F1
:101320007B695B7C012B01D1BB6800E000233B6142
:101330007B683A69B9687869FFF7AEFE03461846DC
:101340001837BD4680BD00BFA427002080B584B0FB
:1013500000AF78607B68FB600D4B5B68002B01D1B0
:10136000082310E07B68002B03D0FB685B69002B2F
:1013700001D1082307E0FB6800221A740221F868F3
:10138000FFF7CCFE034618461037BD4680BD00BFB0
:10139000A427002080B483B000AFEFF310833B603C
:1013A0003B687B6072B67B6818460C37BD465DF8BB
:1013B000047B704780B400AF62B600BFBD465DF8E5
:1013C000047B704780B584B000AF7860FFF7E2FF20
:1013D000F860164B9B68002B1BD1144B01229A60BE
:1013E000134BD3F88020134B1340104A1360104B5B
:1013F000104AC3F880200E4BD3F884300B4A536058
:101400000B4B4FF0FF32C3F884207B6800221A7028
:1014100002E07B6801221A70FB68002B01D1FFF704
:10142000C9FF002318461037BD4680BDB8330020E1
:1014300000E100E0FC06FFBC80B584B000AF0346CD
:10144000FB710F4B9B68002B15D0FB79002B12D141
:10145000FFF7A0FFF8600B4A094B1B681360094AAD
:10146000074B5B685360064B00229A60FB68002BB9
:1014700001D1FFF79FFF002318461037BD4680BDFE
:10148000B833002000E100E080B582B000AF7860A2
:101490007868FFF797FF00BF0837BD4680BD80B56D
:1014A00082B000AF0346FB71FB791846FFF7C4FF1B
:1014B00000BF0837BD4680BD80B483B000AF786000
:1014C0007B6803F00303002B0CBF01230023DBB276
:1014D00018460C37BD465DF8047B704780B483B076
:1014E00000AF0346FB71064B1A78FB791343DAB25F
:1014F000034B1A7000BF0C37BD465DF8047B704784
:10150000C627002080B483B000AF0346FB7197F973
:101510000730DB435AB2074B1B785BB213405BB218
:10152000DAB2044B1A7000BF0C37BD465DF8047B7D
:10153000704700BFC627002080B483B000AF0346C9
:10154000FB71084B1A78FB791340DBB2002B14BFF8
:1015500001230023DBB218460C37BD465DF8047B3F
:10156000704700BFC627002080B584B000AF786008
:101570000023FB600EE00B4AFB6852F82330002B7F
:1015800005D0084AFB6852F8233078689847FB6812
:101590000133FB60FB68072BEDD900BF1037BD4658
:1015A00080BD00BFC827002080B483B000AF786042
:1015B00039607B681B78013B052B5BD801A252F890
:1015C00023F000BFDD150200E5150200051602003C
:1015D00037160200571602006D1602003B68002203
:1015E0001A7048E03B6801221A707B681A893B68D0
:1015F0009A817B689A883B68DA817B68DA683B6805
:101600009A6038E03B6802221A707B681A893B684E
:101610009A817B689A883B68DA817B68DA683B68E4
:101620009A607B681B7C062B0CBF01230023DAB277
:101630003B681A741FE03B6803221A707B68DA88E3
:101640003B689A817B681A893B68DA817B68DA6833
:101650003B689A600FE03B6804221A707B68DA8866
:101660003B689A813B680022DA8104E03B680522EE
:101670001A7000E000BF00BF0C37BD465DF8047B68
:10168000704700BF80B483B000AF78607B689B88F0
:101690004FF6FF72934205D07B681B88002B01D068
:1016A000012300E0002303F00103DBB218460C37EE
:1016B000BD465DF8047B704780B582B000AF7860AE
:1016C0007B68002B11D00D4B1A687B689A420CD8AE
:1016D0000A4B5A687B689A4207D37868FFF7ECFE9A
:1016E0000346002B01D0012300E0002303F0010397
:1016F000DBB218460837BD4680BD00BF2823002056
:1017000080B584B000AF786039600023FB6012E0E0
:10171000FB68DB007A6813441B681846FFF7CCFEB1
:10172000034683F00103DBB2002B01D0002307E066
:10173000FB680133FB60FA683B689A42E8D30123F7
:1017400018461037BD4680BD80B483B000AF7860C6
:101750007B681B680C4A934201D003230DE07B6831
:1017600004331B68094A934204D0094A934203D1C7
:10177000012302E0002300E0032318460C37BD4696
:101780005DF8047B704700BFDEC0ADDEFE011EF1D8
:10179000FF011EF180B485B000AF78600023FB60CC
:1017A0000CE0FB689B007A6813441B68B3F1FF3FB1
:1017B00001D0002307E0FB680133FB60FB68B3F551
:1017C000806FEED3012318461437BD465DF8047BC5
:1017D0007047000080B483B000AF03460A46FB8028
:1017E0001346BB80FB880F4A1B01134408331A8839
:1017F000BB881344BB80FB880A4A1B0113440A338D
:101800001A88BB881344BB80BB8840F2FF329342E6
:1018100094BF01230023DBB218460C37BD465DF8A8
:10182000047B7047AC28002080B485B000AF78609E
:1018300039600A23FB6000237B811CE07B89134A0B
:101840001B01134404331A683B689A4210D27B8907
:101850000E4A1B01134404331B6803F580523B6896
:101860009A4205D90023FB607B687A891A8005E0DB
:101870007B8901337B817B89012BDFD9FB6818468B
:101880001437BD465DF8047B704700BFAC280020CC
:1018900080B588B000AFF860B9607A60FB6803F586
:1018A0008053BB610023FB77FB680833FB60BB6898
:1018B00002221A8028E0FB687B617869FFF7E2FE6C
:1018C000034683F00103DBB2002B02D00123FB7738
:1018D00009E07B699A68164B1B689A4203D97B69B9
:1018E0009B68134A13607B695B8803339B00FA682B
:1018F0001344FB60BB681A887B695B8813449BB206
:1019000003339AB2BB681A80FA68BB699A4204D260
:10191000FB681B68B3F1FF3FCDD17B68002B02D081
:101920007B68FA7F1A7000BF2037BD4680BD00BFBC
:10193000E827002080B483B000AF78600B467B803E
:101940007B681A897B8813449BB203339AB27B6805
:101950001A817B685A897B88D31A9BB2033B9AB25F
:101960007B685A8100BF0C37BD465DF8047B704729
:1019700080B582B002AF064B1968002300930223A2
:10198000044A054801F050FE03461846BD4680BD96
:10199000CC28002000FA02002823002080B584B063
:1019A00002AF7860002300930223054A7968054856
:1019B00001F03AFE034618460837BD4680BD00BF19
:1019C00008FA02002823002080B584B000AF034647
:1019D0003960FB800023FB73FB8803337B817B89A9
:1019E00040F2FD32934201D9092334E00023BB8148
:1019F00028E0BB891A4A1B0113441B78002B1ED117
:101A00007A89BB8911461846FFF7E4FE0346002B8E
:101A100015D00123FB733B68BA891A80BB89BA8948
:101A20000F4912010A440A3211887A890A4491B294
:101A30000B4A1B0113440A330A461A8005E0BB898E
:101A40000133BB81BB89012BD3D9FB7B002B01D098
:101A5000002300E0072318461037BD4680BD00BFB5
:101A6000AC28002080B483B000AF03460A46FB8058
:101A70001346BB80BB88BA880A4912010A440A325D
:101A80001188FA888A1A92B2033A91B2054A1B0168
:101A900013440A330A461A8000BF0C37BD465DF86E
:101AA000047B7047AC28002080B400AF054B1B6856
:101AB0000133044A1360034B1B681846BD465DF8AA
:101AC000047B7047E827002080B584B000AF034650
:101AD0003960FB803B681B68FB60FB68002B09D00A
:101AE000FB68BB60BB685B8803339B00FA681344E8
:101AF000FB601CE0FB88184A1B01134404331B687D
:101B00000833FB6013E0FB68BB60B868FFF7BAFD01
:101B10000346002B04D03B68FA681A60012317E0E3
:101B2000BB685B8803339B00FA681344FB60FB8847
:101B3000094A1B01134404331B6803F58052FB68F8
:101B40009A4204D9FB681B68B3F1FF3FDBD1002345
:101B500018461037BD4680BDAC28002080B584B043
:101B600000AF786039607B685B681846FFF7A4FDBA
:101B70000346002B19D07B681A89254B1B899A4292
:101B800013D17B681A687B685B689B689A420CD1AA
:101B90007B685B6819463868FFF746FE0346002BF2
:101BA0000CBF01230023DBB22DE03B6800221A802A
:101BB00024E00023BB6010E0BB68FB60FB689A6810
:101BC0007B681B689A4208D1BA687B685A60104BE0
:101BD0001A897B681A81012315E03B681B8807F18D
:101BE000080211461846FFF76FFF0346002BE3D1AA
:101BF0003B681B8801339AB23B681A803B681B889C
:101C0000012BD6D9002318461037BD4680BD00BF32
:101C1000D428002080B586B000AFF860B9607A6043
:101C20003B600220FFF788FC034683F00103DBB230
:101C3000002B01D002234FE07B68002B02D03B68D1
:101C4000002B44D1052347E03B689B88244A1B01B5
:101C500013441B78002B33D124E03B681B687B6165
:101C6000FB68002B06D07B699A88FB681B889A4228
:101C700000D017E0BB68002B06D07B691A88BB68D0
:101C80001B889A4200D00DE07B699A687B681A60D5
:101C90003B681A687B685A60124B1A897B681A8104
:101CA000002319E03B689B883A6811461846FFF705
:101CB0000BFF0346002BD0D13B6800221A6000E0E6
:101CC00000BF3B689B8801339AB23B689A803B68AF
:101CD0009B88012BB8D90A2318461837BD4680BD0A
:101CE000AC280020D428002080B500AF124B1A6F1A
:101CF0001346DB009B1A9B000F4A13441C22002151
:101D00001846FDF725FC0C4B5B6F002B0BD00A4BE4
:101D10001B6F013303F00303074A1367064B5B6F26
:101D2000013B054A5367044B5B6F002B14BF012333
:101D30000023DBB2184680BDEC27002080B483B0BE
:101D400000AF78607B681B68084A934206D07B68C6
:101D50001B6803F108027B681A6002E07B68044A92
:101D60001A600C37BD465DF8047B70479C28002044
:101D70006428002080B483B000AF78600E4B5B6CA9
:101D8000002B12D00C4B1B6CDB000B4A1A447B68F7
:101D90001A60094B1B6C013303F00703064A1364F6
:101DA000054B5B6C013B044A536400BF0C37BD46D6
:101DB0005DF8047B704700BF6428002080B483B0C6
:101DC00000AF78607B681B78022B03D07B681B78A0
:101DD000032B0DD1094B1B6C7A68927D1344074A83
:101DE0001364064B5B6C7A68927D9B1A034A5364BA
:101DF00000BF0C37BD465DF8047B704764280020A7
:101E0000B0B588B000AFF860B9607A600023FB77A6
:101E10002E4B5B6F032B54D82D4B5A6CBB68C3F110
:101E200008039A424DD8294B5A6F284B1B6F134415
:101E300003F003037B6125497A691346DB009B1A93
:101E40009B00CA18FB6814461D460FCD0FC495E8C9
:101E5000070084E807001D4B5B6F01331B4A536783
:101E6000BB68002B2BD01A4B5A6C194B1B6C1344BC
:101E700003F007037B617B69DB00154A13443B6178
:101E80000023BB6111E03969BB69DB007A681A4441
:101E90000B4692E8030083E8030007F1100318469D
:101EA000FFF74CFFBB690133BB61BA69BB689A425B
:101EB000E9D3074B5A6CBB681344054A53640123AA
:101EC000FB77FB7F18462037BD46B0BDEC270020CE
:101ED0006428002080B586B000AF00237B6100231A
:101EE0007B8200237B740023FB81A2E0564B1B689E
:101EF000FA8912031344BB60B868FFF725FC034658
:101F0000FB71FB79012B63D0032B02D0002B3BD05C
:101F10008CE0B868FFF73EFC0346002B2BD04B4B00
:101F20001B68002B1AD07B8A494A1B0113440222EA
:101F30001A707B8A464A1B0113440433BA681A603C
:101F40007B8A434A1B011344083302221A80414A08
:101F50007B8A53807B8A01337B8207E03B4ABB68E4
:101F600013603A4B02229A8001237B747B6943F011
:101F700001037B615AE07B8A5A1C7A82344A1B0136
:101F8000134403221A7051E07B8A314A1B01134427
:101F900000221A707B8A2E4A1B0113440433BA684C
:101FA0001A607B8A1B010833294A99187B8A1B0116
:101FB0000833274A134406331A46B868FFF768FC0B
:101FC0007B6943F002037B617B8A01337B822DE0D6
:101FD0007B7C002B17D07B8A1D4A1B0113440222F5
:101FE0001A707B8A194A126819491B010B44043381
:101FF0001A607B8A164A1B011344083302221A8096
:102000007B8A01337B82114ABB681360002212492C
:10201000B868FFF73DFC0D4B9B88022B01D10423D0
:1020200000E008237A6913437B6100BFFB89013319
:10203000FB81FB89022B7FF659AF7B69DBB2184627
:102040001837BD4680BD00BF28230020CC280020C3
:10205000AC280020D4280020D028002080B586B0ED
:1020600002AF786039607B681A1D0023009301235A
:102070003968094801F0D8FA0346FB607B68022200
:102080001A74FB68002B01D1002300E00E231846D0
:102090001037BD4680BD00BF2823002080B586B024
:1020A00002AF786039603B6803F108017B6803F197
:1020B0000C020023009301230B4801F0B5FA0346FC
:1020C000FB607B689B7D002B01D0032200E0012296
:1020D0007B681A74FB68002B01D1002300E00E23FB
:1020E00018461037BD4680BD2823002080B586B035
:1020F00002AF786039603B68191D7B6803F1080204
:102100000023009301230C4801F08EFA0346FB6084
:102110007B681B78032B01D1052200E006227B6837
:102120001A74FB68002B01D1002300E00E2318462F
:102130001037BD4680BD00BF2823002080B586B083
:1021400002AF7860002300930123084A79680848A9
:1021500001F06AFA0346FB73FB7B002B01D10023DD
:1021600000E00E2318461037BD4680BDFCF9020082
:102170002823002080B588B000AF786007F10803FD
:1021800000221A605A609A607B68DB68BB6007F1C6
:10219000160207F1080311461846FFF7DFFC034655
:1021A000002B16D0FB68BB61BB699A887B68DA801C
:1021B000BB691A887B681A81FB681846FFF7BEFF67
:1021C000F861FB8A064A1B0113440E3301221A7080
:1021D00001E00A23FB61FB6918462037BD4680BD3C
:1021E000AC28002080B586B000AF78607B68981D71
:1021F00007F108020F4B0021FFF70CFD78617B69A6
:10220000002B0DD1FB681846FFF798FF7861094B4A
:102210009B88094A1B0113440E3301221A7004E003
:10222000082200210348FDF793F97B691846183707
:10223000BD4680BDE4280020AC28002080B586B0D3
:1022400002AF786039600023BB6007F108031846CD
:10225000FFF790FD7B689B8A9B003A68D118BB68AA
:102260001A68BB689888002300930346114801F060
:10227000DBF90346FB607B689A8ABB689B88134442
:102280009AB27B689A827B689B7D013BDAB27B685D
:102290009A757B689B7D002B02D17B6801221A74A2
:1022A000FB68002B01D1002300E00E2318461037F5
:1022B000BD4680BD2823002080B483B000AF154BFD
:1022C0001B8901339AB2134B1A81124B00225A8098
:1022D000104B00221A730023FB8011E0FB88FA8860
:1022E0000D4912010A441278002A0CBF0122002273
:1022F000D1B2084A13440A469A72FB880133FB8024
:10230000FB88012BEAD900BF0C37BD465DF8047B82
:10231000704700BFD4280020AC28002080B485B0CE
:1023200000AF78600023FB730023BB8123E0BB89EF
:10233000164A13449B7A002B1AD0BB89134A1344C4
:1023400000229A72BB89124A1B0113440C331B886A
:10235000002B0DD1BB890E4A1B0113440E331B7891
:10236000002B05D07B68BA891A800123FB7305E036
:10237000BB890133BB81BB89012BD8D9FB7B1846B4
:102380001437BD465DF8047B704700BFD428002099
:10239000AC28002080B500AF074B05221A70074B10
:1023A00002229A80054B196800230122044801F09B
:1023B000A5F90346184680BDD4280020CC2800206B
:1023C0002823002080B582B000AF124B5B887B8051
:1023D0007B88114A1B0113440C331B88002B10D13E
:1023E0007B880D4A1B011344043319680023012222
:1023F0000A4801F083F903467B60064B04221A70F9
:1024000002E0FFF7C7FF78607B6818460837BD46D3
:1024100080BD00BFD4280020AC2800202823002045
:1024200080B586B002AF104B5B68FB600F4B1A683B
:102430000E4B9B889B001344BB60FB685B88033397
:10244000FB80094B03221A70074B5A68F988002356
:1024500000930B46B968064801F0E6F803461846B3
:102460001037BD4680BD00BFD4280020CC280020F6
:102470002823002080B582B000AF0A4B5B880A4950
:102480001846FFF721FB0346002B03D0FFF7C8FFD8
:10249000786002E0FFF796FF78607B68184608379F
:1024A000BD4680BDD4280020D828002080B500AFCC
:1024B000074B06221A70064B5B88064A1B01134421
:1024C00004331B681846FFF769FA0346184680BDB7
:1024D000D4280020AC28002080B500AF054B07228F
:1024E0001A70044B00225A60FFF742FA034618465E
:1024F00080BD00BFD428002080B500AF0C48FFF796
:102500000DFF034683F00103DBB2002B0BD0094B18
:1025100000221A70074B00225A80064B00225A6094
:1025200041F61D5302E0FFF7A5FF0346184680BDA4
:10253000D6280020D428002080B483B000AF0A4BF6
:102540005B687B607B685B8803337B80074B9A8882
:102550007B8813449AB2054B9A8000BF0C37BD4666
:102560005DF8047B704700BFD4280020CC280020F1
:1025700080B483B000AF144B1B687B60134B5B8847
:10258000134A1B01134404331B680F4A13600F4B9B
:102590005B880F4A1B01134404337A681A600B4BA3
:1025A0005B881846084B9988094A0301134408338D
:1025B0000A461A80044B02229A8000BF0C37BD469F
:1025C0005DF8047B704700BFCC280020D428002091
:1025D000AC28002080B500AF1A4B1B78072B2DD8F4
:1025E00001A252F823F000BF092602003D26020096
:1025F0003D26020015260200212602002D2602009B
:102600002D26020035260200FFF756FE0D4B012253
:102610001A7014E0FFF790FF0A4B02221A700EE0C6
:10262000FFF7A6FF074B06221A7008E0054B0722AA
:102630001A7004E0034B01221A7000E000BF00BFD3
:1026400080BD00BFD428002080B586B000AF786080
:1026500039600F237B617B68002B04D00120FEF7DB
:1026600051FF012398E03B681B79032B00F288801F
:1026700001A252F823F000BF89260200972602002B
:10268000FF2602001F270200FFF772F978613B68FE
:1026900001221A7177E00023FB7400233B821CE0C7
:1026A0003B8A3F4A1B0113441B78022B12D13B8A01
:1026B0003B4A1B01134404331B681846FFF76EF9AD
:1026C00078613B8A364A1B01134400221A700123A9
:1026D000FB7405E03B8A01333B823B8A012BDFD947
:1026E000FB7C83F00103DBB2002B4BD00220FEF712
:1026F000F5FE0120FEF706FF41F61D534CE0294B85
:10270000196800230122284800F0F8FF03467B6186
:10271000244B02229A803B6800221A7133E0214B3D
:102720001B681846FFF73AF97861204B5B88FB81FC
:102730001C4B1B68BB60FB89194A1B011344043303
:102740001B68184A1360FB89154A1B0113440433A4
:10275000BA681A60FB89134A9188114A1B01134415
:1027600008330A461A800F4B02229A80FB890C4AD2
:102770001B01134400221A703B6800221A7102E008
:1027800000BF00E000BF7B69002B04D00120FEF7F2
:10279000B9FE0E2300E0002318461837BD4680BD61
:1027A000AC280020CC28002028230020D42800209A
:1027B00080B586B000AF786039603B685B8A1B01EA
:1027C0003A4A13443B617B68002B07D03B68DB88A7
:1027D00019463869FFF7AEF8012363E03B695A6890
:1027E0003B691B899B001344FB603B681B7C062BE9
:1027F0004BD801A252F823F03F28020063280200C0
:102800004B28020057280200152802006F280200FA
:1028100083280200264B00225A603B689B69244AA9
:10282000136007F10A0319462148FFF797F9034699
:1028300083F00103DBB2002B01D00A2332E0F968F8
:102840003868FFF70BFC786122E0F9683868FFF719
:1028500025FC78611CE0F9683868FFF7EFFC7861C7
:1028600016E0F9683868FFF741FC786110E0104B1A
:102870005B681846FFF762FC78613B6806221A74B1
:1028800006E041F61D537B6102E00F237B6100BF30
:102890007B69002B05D03B68DB8819463869FFF758
:1028A00049F87B6918461837BD4680BDAC28002022
:1028B000EC28002080B584B000AF786039607B6878
:1028C000002B01D0012323E03B681B79012B0BD0A7
:1028D000022B14D0002B16D13868FFF74BFCF860A0
:1028E0003B6802221A7112E03868FFF77BFCF8603F
:1028F000FB680A2B0AD141F61D53FB6006E041F646
:102900001D53FB6003E00F23FB6000E000BFFB688A
:1029100018461037BD4680BD80B584B000AF7860E2
:102920007B68002B01D001233CE0204B1B7B002B5C
:1029300003D01E4B00221A7301E0FFF74BFE1B4B26
:102940001B78013B062B29D801A252F823F000BFC7
:102950006D290200752902007D29020085290200E7
:102960009D2902008D29020095290200FFF7C4FD70
:10297000F86016E0FFF77EFDF86012E0FFF750FD0B
:10298000F8600EE0FFF71EFDF8600AE0FFF78EFD2D
:10299000F86006E0FFF7A0FDF86002E00F23FB609F
:1029A00000BFFB6818461037BD4680BDD428002004
:1029B00080B58AB000AF0346FB71334B1A6F1346E4
:1029C000DB009B1A9B00304A13443B623B6A1B7836
:1029D000013B052B29D801A252F823F0F52902006A
:1029E000032A0200032A0200112A0200112A02000F
:1029F0001F2A0200FB79396A1846FFF725FE786224
:102A000016E0FB79396A1846FFF7D2FE78620FE0CC
:102A1000FB79396A1846FFF74DFF786208E0FB79C9
:102A20001846FFF779FF786202E00F237B6200BF50
:102A30007B6A002B23D07B6A41F61D52934202D160
:102A400000233B6104E07B6A3B61386AFFF7B6F91B
:102A500007F10C031946386AFEF7A6FD07F10C03CF
:102A60001846FEF781FDFFF73FF90346002B03D020
:102A70000020FFF79DFF02E00420FEF743FD00BFAA
:102A80002837BD4680BD00BFEC27002080B500AFD1
:102A90000420FEF751FD034683F00103DBB2002B57
:102AA00005D00420FEF71AFD0020FFF781FF00BFCC
:102AB00080BD80B582B000AF78600B46FB70FB78BC
:102AC0001846FFF775FF00BF0837BD4680BD000000
:102AD00080B590B000AFF860B9607A60FB700023F9
:102AE000FB860023FB870220FEF726FD034683F0CA
:102AF0000103DBB2002B01D002239BE0BB68002B5B
:102B000001D1052396E0BB681B884FF6FF72934204
:102B100003D0BB685B88002B01D104238AE0BB682B
:102B20005A68BB681B8919461046FEF7E9FD034643
:102B300083F00103DBB2002B01D003237AE07B6832
:102B4000002B21D10023BB630BE0BB685A68BB6B31
:102B5000DB0013449A88FB8F1344FB87BB6B013364
:102B6000BB63BB681B891A46BB6B9A42EDD807F161
:102B70001202FB8F11461846FEF726FF38633B6BA7
:102B8000002B07D03B6B55E07B681B887B827B6802
:102B90005B88FB87FB783B75002387F824307B8AB2
:102BA000FB84BB681B89DBB287F82A3003233B8593
:102BB000FEF77AFF03463B62BB681B88BB83BB689A
:102BC0005B883B83FB8F7B83FB78032B05D104233E
:102BD00087F82430FB681B68FB62FB8EFB83BB68B5
:102BE0001B891946BB685A6807F114031846FFF79A
:102BF00007F9034683F00103DBB2002B07D07A8A82
:102C0000FB8F11461846FEF72DFF082312E0FB68E4
:102C1000002B0CD0FB6800225A603A6AFB681A60ED
:102C2000FB6800229A72054B1A89FB681A81FFF72C
:102C30002DFF002318464037BD4680BDD428002014
:102C400080B485B000AF78600E4B1B78082B02D1A2
:102C50000C23FB600EE00B4B1B7819460A4A7B687D
:102C600042F82130074B1B780133DAB2054B1A705A
:102C70000023FB60FB6818461437BD465DF8047BF3
:102C8000704700BFC7270020C827002080B58EB03E
:102C900000AF07F1200300221A605A609A60DA60E0
:102CA0001A610220FEF748FC0346002B06D007F10C
:102CB00020031846FEF758FC00235FE00120FEF7D2
:102CC0003BFC0346002B01D0002357E00120FEF718
:102CD00005FC00F01BFCFFF7FDF8034687F83730D2
:102CE00097F83730002B01D10B2347E097F83730A6
:102CF000062B0CD10220FEF7F1FB0120FEF702FCAF
:102D000007F120031846FEF72FFC002336E00123CD
:102D10003B7197F83730013B0A2B25D801A252F8B6
:102D200023F000BF512D0200692D0200512D020039
:102D3000692D0200632D0200692D0200632D02003F
:102D4000692D0200572D02005D2D0200572D020053
:102D500000233B7209E003233B7206E002233B722F
:102D600003E001233B7200E000BF3B1D0022002175
:102D70001846FFF745F8FFF789FE00231846383755
:102D8000BD4680BD80B584B000AF786039607B6897
:102D9000002B02D03B68002B01D1052328E007F16E
:102DA0000A0319467868FEF7D9FE0346002B1ED0A9
:102DB0007B685B68FB607B890F491A010A440C320F
:102DC0001288013291B20C4A1B0113440C330A469B
:102DD0001A803B68FA681A607B685B6803F10C0232
:102DE0003B685A607B6801229A72002300E00A2344
:102DF00018461037BD4680BDAC28002080B584B091
:102E000000AF78607B68002B01D105232EE007F12D
:102E10000A0319467868FEF7A1FE0346002B22D06C
:102E20007B89144A1B0113440C331B88002B17D0D9
:102E30007B689B7A002B13D07B890E491A010A44C8
:102E40000C321288013A91B20A4A1B0113440C3326
:102E50000A461A807B6800229A720023FB6004E015
:102E60000623FB6001E00A23FB60FB68184610376D
:102E7000BD4680BDAC28002080B584B000AF78602E
:102E80000B467B800220FEF757FB034683F00103CD
:102E9000DBB2002B01D0022316E07B68002B01D1AE
:102EA000052311E007F10A027B8811461846FEF758
:102EB0008BFDF860FB68002B05D17A897B681A804E
:102EC0007B687A885A80FB6818461037BD4680BDFB
:102ED00080B584B000AF78600220FEF72DFB03467A
:102EE00083F00103DBB2002B01D002232DE07B68CD
:102EF000002B01D1052328E07B681B88022B01D918
:102F0000042322E07B681B881B01124A1344BB6028
:102F1000BB685B891A467B685B880333D31A002B36
:102F200010DB7B685A887B681B8819461046FEF7C1
:102F300099FD7B6800221A807B6800225A8000235A
:102F4000FB6001E00423FB60FB6818461037BD46B8
:102F500080BD00BFAC28002080B582B000AF786093
:102F600039600223002239687868FFF7B1FD034613
:102F700018460837BD4680BD80B584B000AFF86004
:102F8000B9607A607B68002B01D1052306E002233B
:102F90007A68B968F868FFF79BFD03461846103752
:102FA000BD4680BD80B582B000AF786039607B6877
:102FB000002B01D1052306E003230022396878683D
:102FC000FFF786FD034618460837BD4680BD80B52D
:102FD0008AB000AF0346FB800220FEF7ADFA03463D
:102FE00083F00103DBB2002B01D002231BE0FB883E
:102FF0004FF6FF72934201D1042314E005233B7383
:1030000001233B74FB887B8207F10C030022002123
:103010001846FEF7F5FE0346002B03D0FFF736FDFA
:10302000002300E0082318462837BD4680BD000075
:1030300080B588B000AF0220FEF77EFA034683F029
:103040000103DBB2002B01D0022316E006233B7103
:103050003B1D002200211846FEF7D2FE0346002B3E
:103060000AD0084B1B78002B02D0064B01221A73A2
:10307000FFF70CFD002300E0082318462037BD466B
:1030800080BD00BFD428002080B584B000AFBA60F6
:103090007B600346FB810B46BB8107F10C0107F106
:1030A0000E007B68BA68FEF7B5FD03461846103778
:1030B000BD4680BD80B584B000AF0346B9607A607C
:1030C000FB8107F10E017B68BA680020FEF7A2FDC4
:1030D000034618461037BD4680BD80B584B000AFAA
:1030E0000346B9607A60FB8107F10E007B68BA681D
:1030F0000021FEF78FFD034618461037BD4680BD00
:1031000080B483B000AF786039607B68002B02D058
:103110003B68002B01D1052304E07B681A683B68FB
:103120001A60002318460C37BD465DF8047B7047D3
:1031300080B483B000AF4FF010235B697B607B6885
:10314000B3F1FF3F04D14FF080535B691B0300E0F4
:103150007B6818460C37BD465DF8047B704729DF55
:10316000704700BF184628DF704700BF184680B57B
:1031700086B000AF78600B46FB7007F108031022A1
:1031800000211846FCF7E4F97B681B7A012B02D07A
:10319000022B09D015E000233B727B681B693B6161
:1031A0007B689B8ABB820CE001233B727B689A8917
:1031B0007B68DB89D31A9BB23B827B689B897B82CD
:1031C00000BF7B685B68FB607B681B689B68F97865
:1031D00007F108021046984700BF1837BD4680BD6A
:1031E00080B483B000AF78607B68002B09D07B6827
:1031F000074A934205D37B68064A934201D20123D2
:1032000000E0002318460C37BD465DF8047B70478C
:10321000282300203823002080B584B000AF7860D8
:103220007B689B8A1A467B68DB8AD31AB3F5806F6A
:1032300006DA7B689A8A7B68DB8AD31AFB8102E014
:103240004FF48063FB817B681A697B68DB8A9B0093
:10325000D0187B68DA687B68DB8A9B001344FA89A4
:103260001946FFF77CFF034618461037BD4680BD60
:1032700080B582B000AF78607B689B891846FFF705
:1032800072FF034618460837BD4680BD80B400AFC4
:10329000104B5B6E013B0F4A53660E4B5B6E002B6F
:1032A00006D10D4B1B7823F00203DAB20A4B1A70D9
:1032B000084B1B6E0133074A1366064B1B6E042B2B
:1032C00002D1044B00221A6600BFBD465DF8047BA4
:1032D000704700BFFC280020F828002080B582B08D
:1032E00000AF1F4B1A6E13465B001344DB001C4AF1
:1032F00013443B601A4B5B6E002B2CD03B681B7A4F
:10330000012B02D0022B05D009E03868FFF784FFBB
:10331000786007E03868FFF7ABFF786002E00923C8
:103320007B6000BF7B68112B0ED10E4B1B7823F006
:103330000203DAB20B4B1A700A4B1B7843F00403FA
:10334000DAB2084B1A7006E07B68002B03D0092123
:103350003868FFF70CFF00BF0837BD4680BD00BFCF
:10336000FC280020F828002080B500AF0B4B1B780C
:1033700003F00203002B0ED1084B1B7803F004036B
:10338000002B08D1054B1B7843F00203DAB2034B44
:103390001A70FFF7A3FF00BF80BD00BFF828002010
:1033A00080B584B000AF7860284B00221A707B682B
:1033B0001B7A012B02D0022B27D042E07B689B8A2C
:1033C0001A467B68DB8AD31AB3F5806F06DA7B680E
:1033D0009A8A7B68DB8AD31AFB8102E04FF4806310
:1033E000FB817B68DA8AFB8913449AB27B68DA82B4
:1033F0007B68DA8A7B689B8A9A421FD100217868B1
:10340000FFF7B5FEFFF742FF18E07B689B890133A9
:103410009AB27B689A817B68DB8901339AB27B68B8
:10342000DA817B68DA897B681B8A9A4208D100219D
:103430007868FFF79CFEFFF729FF01E000BF00E07E
:1034400000BF00BF1037BD4680BD00BF642900200B
:1034500080B582B000AF78600B4B1B780133DAB2D5
:10346000094B1A70084B1B78032B08D9064B002216
:103470001A7008217868FFF77AFEFFF707FF00BF90
:103480000837BD4680BD00BF6429002080B584B0E8
:1034900000AF78601C4B5B6E042B01D100232EE043
:1034A000194B1A6E184B5B6E1344032B05D8164B41
:1034B0001A6E154B5B6E134405E0134B1A6E124BDC
:1034C0005B6E1344043BFB600F4B5B6E01330E4A93
:1034D0005366FA6813465B001344DB000A4A134440
:1034E000182200211846FCF733F8FA6813465B00EF
:1034F0001344DB00044A1A447B681A60012318460F
:103500001037BD4680BD00BFFC28002080B58AB0C2
:1035100000AF424A424BD31A1B09FB603F4A404B63
:10352000D31A1B097B62FFF703FE38623D4B1B7801
:1035300003F00103002B01D000236AE00023FB61AC
:1035400012E0FB691B01364A1344BB60BB681B6871
:10355000002B06D0BB685B68002B02D07B6A013B66
:103560007B62FB690133FB61FA69FB689A42E8D32D
:103570000023BB6141E0BB691B01294A13447B6006
:103580000023FB75BB69BB7500233B611BE03B69F6
:103590001B01234A13443B603B681B68002B03D08C
:1035A0003B685B68002B0AD13B685B7BFA7D9A42E3
:1035B00006D23B685B7BFB753B69BB7500E000BFD7
:1035C0003B6901333B613A69FB689A42DFD3BB7DBB
:1035D0001B01134A13447B607B683A6A5A607B681C
:1035E0001B7B1B035B423A6A1A447B681A607B6848
:1035F0001B683B62BB690133BB61BA697B6A9A4253
:10360000B9D3084B1B7843F00103DAB2054B1A70AB
:10361000002318462837BD4680BD00BF3823002050
:1036200028230020F828002080B586B000AFF8607D
:10363000B9607A607B80304B1B7803F00103002B6C
:1036400001D1012354E0F868FFF7CAFD034683F077
:103650000103DBB2002B01D0022349E07B68002B81
:1036600002D0BB68002B01D1032341E07B6803F04B
:103670000303002B04D1BB6803F00303002B01D02C
:10368000062335E0FB681A68BB689A4207D8FB68D6
:103690005A687B889B00B9680B449A4201D2052383
:1036A00026E07B88002B01D1042321E007F11403DD
:1036B0001846FFF7EBFE034683F00103DBB2002B55
:1036C00001D0072314E07B693A6A5A607B69FA6883
:1036D0001A607B6901221A727B697A68DA607B69F9
:1036E000BA681A617B697A889A82FFF73DFE0023E7
:1036F00018461837BD4680BDF828002080B586B032
:1037000000AFF860B9603B601346FB802B4B1B7821
:1037100003F00103002B01D101234BE0F868FFF710
:103720005FFD034683F00103DBB2002B01D00223CF
:1037300040E0BB68002B01D103233BE0BB68C3F32F
:103740000B03002B01D0062334E0FB681A68BB682A
:103750009A4207D8FB881B03BA681A44FB685B6867
:103760009A4201D9052325E0FB88002B01D10423CF
:1037700020E007F114031846FFF788FE034683F0A4
:103780000103DBB2002B01D0072313E07B693A6809
:103790005A607B69FA681A607B6902221A727B6937
:1037A000BA68120B92B29A817B69FA881A82FFF783
:1037B000DBFD002318461837BD4680BDF8280020E1
:1037C00080B483B000AF78607B68002B01D1032305
:1037D00004E0054B5A6E7B681A60002318460C37CC
:1037E000BD465DF8047B7047FC28002080B584B09E
:1037F00000AF78601D4B1A6E13465B001344DB006C
:103800001A4A1344FB601A4B1B7803F00203002B87
:103810000ED07B68022B02D0032B04D020E0F86886
:10382000FFF7BEFD1CE0F868FFF712FE00BF17E0CF
:103830000F4B1B7803F00403002B11D00C4B1B78AB
:1038400023F00403DAB20A4B1A70084B5B6E002BAC
:1038500006D0074B1B7843F00203DAB2044B1A7010
:10386000FFF73CFD00BF1037BD4680BDFC2800209F
:10387000F828002080B483B000AF78600B467B80CE
:103880007B681A787B88012101FA03F3DBB21343CA
:10389000DAB27B681A7000BF0C37BD465DF8047B56
:1038A000704780B483B000AF78600B467B807B6844
:1038B0001A787B88012101FA03F3DBB2DB43DBB228
:1038C0001340DAB27B681A7000BF0C37BD465DF852
:1038D000047B704780B483B000AF03460A46FB7197
:1038E0001346BB80FA79BB8842FA03F303F0010365
:1038F000002B14BF01230023DBB218460C37BD4652
:103900005DF8047B704780B584B000AF0346FB715F
:103910000023FB810DE0FA89FB7911461846FFF779
:10392000D9FF0346002B01D0FB8907E0FB89013357
:10393000FB81FB89072BEED94FF6FF731846103732
:10394000BD4680BD80B586B002AFF860B960114653
:103950001A460B46FB8013467B71FA887B790093ED
:1039600013460122B968F86800F004F800BF103768
:10397000BD4680BD80B586B000AFF860B9607A60A2
:103980007B80FB68002B38D0BB68002B35D07B6870
:10399000002B32D000237B612CE07B695B00FA684E
:1039A00013441B887A889A4221D100233B6119E095
:1039B00097F82030002B09D0BA683B6913447A6924
:1039C00092B211461846FFF755FF08E0BA683B6906
:1039D00013447A6992B211461846FFF762FF3B69B9
:1039E00001333B613A697B689A42E1D305E07B6928
:1039F00001337B617B69072BCFD91837BD4680BD6A
:103A000080B584B000AF78600B46FB7013463B80F6
:103A10007B68002B19D00023FB6013E0FB685B0080
:103A20007A6813441B883A889A4208D1FB689AB294
:103A3000FB7811461846FFF74DFF034606E0FB688A
:103A40000133FB60FB68072BE8D9002318461037C9
:103A5000BD4680BDB0B58AB000AFF860B96013460E
:103A6000FB7100233B61BB68002B20D000237B62ED
:103A70001AE07B6A9AB2FB7911461846FFF72AFFD3
:103A80000346002B0DD03B695A1C3A617A6A5200FA
:103A9000B9680A4412885B0007F128010B4423F837
:103AA000142C7B6A01337B627B6A072BE1D9FB68AC
:103AB0001D4607F110040FCC0FC523682B60F86872
:103AC0002837BD46B0BD80B483B000AF78604FF0FA
:103AD000A04318460C37BD465DF8047B704780B59F
:103AE00084B000AF7860084611461A460346FB7062
:103AF0000B46BB7013467B703B1D1846FFF7E3FF78
:103B0000F8607A68F978BB785B0019437B789B0092
:103B100019433B7E1B0219433B7F1B041943FB687F
:103B200002F5E07243F8221000BF1037BD4680BD99
:103B300080B584B002AF7860002301930023009326
:103B40000023012201217868FFF7C9FF00BF083771
:103B5000BD4680BD80B584B000AF78603B1D18467F
:103B6000FFF7B1FFF8607B68012202FA03F3194600
:103B7000F86800F095F800BF1037BD4680BD80B5ED
:103B800084B000AF78603B1D1846FFF79CFFF860DB
:103B90007B68012202FA03F31946F86800F08FF8F7
:103BA00000BF1037BD4680BD80B584B000AF7860DF
:103BB0003B1D1846FFF787FFF860FB68D3F8043514
:103BC000BB60BB68DA437B68012101FA03F31A404A
:103BD000FB68C3F808257B6801229A40BB681A403D
:103BE000FB68C3F80C2500BF1037BD4680BD80B50B
:103BF00082B000AF786039603B68002B03D17868F1
:103C0000FFF7BDFF02E07868FFF7A4FF00BF0837A9
:103C1000BD4680BD80B584B000AF78603B1D1846BE
:103C2000FFF751FFF860F86800F020F802467B6863
:103C300022FA03F303F0010318461037BD4680BD96
:103C400080B584B000AF78603B1D1846FFF73BFF9E
:103C5000F860F86800F017F802467B6822FA03F370
:103C600003F0010318461037BD4680BD80B483B011
:103C700000AF78607B68D3F8103518460C37BD4626
:103C80005DF8047B704780B483B000AF78607B68D8
:103C9000D3F8043518460C37BD465DF8047B7047F1
:103CA00080B483B000AF786039607B683A68C3F84D
:103CB000082500BF0C37BD465DF8047B704780B413
:103CC00083B000AF786039607B683A68C3F80C2530
:103CD00000BF0C37BD465DF8047B704780B584B0EB
:103CE00000AF78600E4A7B6813441B781846FFF7D4
:103CF000A7FF0346002B14BF01230023FB73FB7BAC
:103D0000002B14BF01230023DBB283F00103DBB2DD
:103D100003F00103DBB218461037BD4680BD00BF7B
:103D200010FA020080B582B000AF7860054A7B6867
:103D300013441B7800211846FFF759FF00BF0837CE
:103D4000BD4680BD10FA020080B582B000AF786039
:103D5000054A7B6813441B7801211846FFF747FF8B
:103D600000BF0837BD4680BD10FA020080B582B0A2
:103D700000AF00237B6005E07868FFF7E5FF7B6814
:103D800001337B607B68032BF6D900BF0837BD4643
:103D900080BD80B582B000AF00237B6005E078680D
:103DA000FFF7C0FF7B6801337B607B68032BF6D98C
:103DB00000BF0837BD4680BD80B582B000AF7860D7
:103DC000054A7B6813441B781846FFF7EDFE00BFD9
:103DD0000837BD4680BD00BF10FA020080B582B032
:103DE00000AF00237B6009E0094A7B6813441B781D
:103DF0001846FFF79DFE7B6801337B607B68032BD1
:103E0000F2D9FFF7B3FF00BF0837BD4680BD00BF42
:103E100010FA020080B584B000AF78600E4A7B686B
:103E200013441B781846FFF7F5FE0346002B14BF1A
:103E300001230023FB73FB7B002B14BF0123002312
:103E4000DBB283F00103DBB203F00103DBB21846FF
:103E50001037BD4680BD00BF14FA020080B485B0A3
:103E600000AF78604FF0FF33BB600023FB600DE0D4
:103E70000B4AFB6813441B781A467B689A4202D1AE
:103E8000FB68BB6005E0FB680133FB60FB68032B4C
:103E9000EED9BB6818461437BD465DF8047B704701
:103EA00014FA020080B483B000AF7860044A7B68E3
:103EB00013441B7818460C37BD465DF8047B7047E9
:103EC00014FA020080B483B000AF78604FF08042F3
:103ED0007B68C2F8083300BF0C37BD465DF8047B31
:103EE000704780B485B000AF0346FB80FB8803F1C8
:103EF000804300221A60FB8803F180431B68FB604B
:103F0000FB6800BF1437BD465DF8047B704780B482
:103F100083B000AF0346FB80FB8803F180431B683E
:103F2000002B14BF01230023DBB218460C37BD461B
:103F30005DF8047B704780B483B000AF0346FB712B
:103F40004FF08042FB7903F00303C2F8183500BF3D
:103F50000C37BD465DF8047B7047000080B483B029
:103F600000AF0346FB710C4A97F907305B0952F822
:103F70002320FB7903F01F0322FA03F303F001036C
:103F8000002B14BF01230023DBB218460C37BD46BB
:103F90005DF8047B704700BF00E100E080B500AF32
:103FA0000020FFF7DBFF034683F00103DBB2002BA9
:103FB00003D00721002000F02BF900BF80BD0000D6
:103FC00080B582B000AF00237B60144B1B78002BC0
:103FD00002D085237B601BE0104B00229A600F4BC0
:103FE00000225A600D4B00221A610C4B0022DA604D
:103FF000FFF7D4FF0AF0B2FE034683F00103DBB201
:10400000002B02D00120FFF796FF044B01221A700B
:104010007B6818460837BD4680BD00BF6829002070
:1040200080B485B000AF78607B681B68FB60FB687C
:10403000002B03D0FB681A687B681A60FB6818467F
:104040001437BD465DF8047B7047000080B584B02E
:1040500000AF0346FB71FB79002B02D10B4BFB60D9
:1040600001E00B4BFB60F868FFF7DAFFB860BB6854
:10407000002B05D0BB685B68FA7910469847F2E7D9
:1040800000BF00BF1037BD4680BD00BF70290020B3
:104090007829002080B500AF4FF48070FFF737FF1C
:1040A0000346002B0CD04FF48070FFF71AFF01205D
:1040B000FFF708FF0D4B01225A700020FFF7C6FFE3
:1040C0004FF48270FFF723FF0346002B0CD04FF410
:1040D0008270FFF706FF0220FFF7F4FE034B012278
:1040E0009A700120FFF7B2FF00BF80BD6829002051
:1040F00080B582B000AF78607B68002B02D10020D1
:10410000FFF7A4FF00BF0837BD4680BD80B582B071
:1041100000AF0023FB71FB1D1846FDF7B5F90C4BF2
:104120001B7883F00103DBB2002B01D0FFF748FFBF
:10413000074BDB680133064AD360054B01229A70B6
:10414000FB791846FDF7ABF900BF0837BD4680BDC7
:104150006829002080B483B000AF0346FB71094991
:1041600097F907305B09FA7902F01F02012000FA83
:1041700002F241F8232000BF0C37BD465DF8047BF6
:10418000704700BF00E100E080B483B000AF034699
:10419000FB71094997F907305B09FA7902F01F02B0
:1041A000012000FA02F2603341F8232000BF0C37EF
:1041B000BD465DF8047B704700E100E080B483B049
:1041C00000AF03463960FB7197F90730002B0BDA1B
:1041D0000D49FB7903F00F03043B3A68D2B2520158
:1041E000D2B20B441A7609E0084997F907303A68C9
:1041F000D2B25201D2B20B4483F8002300BF0C3775
:10420000BD465DF8047B704700ED00E000E100E092
:1042100080B582B000AF03460A46FB711346BB71FE
:10422000BA7997F9073011461846FFF7C7FF97F993
:1042300007301846FFF7A8FF97F907301846FFF731
:1042400089FF00BF0837BD4680BD80B582B000AF92
:104250000346FB80FB88184600F024F803461B68E1
:10426000012B0CBF01230023DBB218460837BD46E3
:1042700080BD80B584B000AF0346FB80FB88184644
:1042800000F010F803461A4600231360FB88184616
:1042900000F008F803461B68FB60FB6800BF10379E
:1042A000BD4680BD80B483B000AF0346FB80FB8871
:1042B00003F1804303F5C04318460C37BD465DF853
:1042C000047B704780B483B000AF7860044A7B6899
:1042D000C2F8043300BF0C37BD465DF8047B70475D
:1042E0000060004080B483B000AF7860054BD3F825
:1042F00004237B68134018460C37BD465DF8047BE9
:10430000704700BF0060004080B483B000AF7860A9
:104310000949094A7B6803F5A27352F8233043F038
:1043200001027B6803F5A27341F8232000BF0C371C
:10433000BD465DF8047B70470060004080B485B0E6
:1043400000AFF860B9601346FB711649154AFB6867
:1043500003F5A27352F8233023F4473323F4407358
:10436000FA6802F5A27241F822300E480D4AFB6845
:1043700003F5A27352F82320BB681B0203F4F85123
:10438000FB791B0403F440330B431A43FB6803F52A
:10439000A27340F8232000BF1437BD465DF8047BAC
:1043A000704700BF0060004080B483B000AF786009
:1043B000074A7B6803F5A27352F823301B0A03F007
:1043C0001F0318460C37BD465DF8047B704700BFDD
:1043D0000060004080B483B000AF7860074A7B681B
:1043E00003F5A27352F823301B0C03F00303DBB276
:1043F00018460C37BD465DF8047B704700600040EE
:1044000080B483B000AF78604FF0A04318460C37FB
:10441000BD465DF8047B704780B584B000AF78601E
:10442000084611461A460346FB700B46BB701346FE
:104430007B703B1D1846FFF7E3FFF8607A68F97858
:10444000BB785B0019437B789B0019433B7E1B02C2
:1044500019433B7F1B041943FB6802F5E07243F8E4
:10446000221000BF1037BD4680BD80B584B002AFBA
:1044700078600B46FB70FA780023019300230093C9
:104480001346002200217868FFF7C6FF00BF0837F7
:10449000BD4680BD80B584B000AF78603B1D184636
:1044A000FFF7AEFFF8607A68FB6802F5E07253F838
:1044B000223023F00203BB607A68FB6802F5E072E9
:1044C000B96843F8221000BF1037BD4680BD80B5E3
:1044D00084B000AF78600B46FB703B1D1846FFF7B9
:1044E0008FFFF8607A687968FB6801F5E07153F82E
:1044F000213023F44031FB6802F5E07243F82210CA
:104500007A687968FB6801F5E07153F82130F97831
:1045100009041943FB6802F5E07243F8221000BF5A
:104520001037BD4680BD80B584B000AF78603B1DBC
:104530001846FFF765FFF860F86800F021F80246BA
:104540007B6822FA03F303F0010318461037BD46D7
:1045500080BD80B584B000AF78603B1D1846FFF782
:104560004FFFF8607A68FB6802F5E07253F822307A
:104570001B0C03F00303DBB218461037BD4680BDA9
:1045800080B483B000AF78607B68D3F810351846EC
:104590000C37BD465DF8047B704780B586B000AF30
:1045A000F860B9607A604FF0A0433B61FB687B61C3
:1045B00012E07B699B0007F11802134453F8083C92
:1045C0001846FFF7DDFF02467B681A607B680433FC
:1045D0007B607B6901337B61FA68BB681A447B6945
:1045E0009A42E6D800BF1837BD4680BD80B485B07A
:1045F00000AF786039603B68FB607B68DB08BB60BC
:104600007B6803F007037B6001227B6802FA03F3F7
:10461000F968BA680A441278134018461437BD4640
:104620005DF8047B704780B485B000AF7860396076
:104630003B68FB607B68DB08BB607B6803F00703BB
:104640007B60FA68BB681344F968BA680A44127858
:1046500051B201207A6800FA02F252B20A4352B211
:10466000D2B21A7000BF1437BD465DF8047B7047A4
:1046700080B483B000AF78600D4A7B681344303358
:1046800093F90030002B09DB094A7B68134430336F
:1046900093F90030072B01DC012300E0002303F035
:1046A0000103DBB218460C37BD465DF8047B70474A
:1046B0007C29002080B483B000AF7860084A7B6812
:1046C0001344303393F90030072BCCBF0123002370
:1046D000DBB218460C37BD465DF8047B704700BF5F
:1046E0007C29002080B483B000AF7860074A7B68E3
:1046F0001344303393F90030DB43DBB2DB09DBB228
:1047000018460C37BD465DF8047B70477C290020B5
:1047100080B485B000AFF860B9607A60FB70BB68A8
:1047200059B2104AFB68134430330A461A700D49D7
:10473000BB687A6841F82320FB7883F00103DBB281
:10474000002B08D0BB68083BFA6851B2054A1344F5
:104750000A4683F8502000BF1437BD465DF8047B3D
:10476000704700BF7C29002080B483B000AF786020
:10477000054A7B6813443033FF221A7000BF0C37A0
:10478000BD465DF8047B70477C29002080B483B06F
:1047900000AF7860054A7B681344303393F90030EA
:1047A00018460C37BD465DF8047B70477C29002015
:1047B00080B483B000AF7860044A7B6852F823303D
:1047C00018460C37BD465DF8047B70477C290020F5
:1047D00080B588B000AFF860B9601346FB71FF2365
:1047E000FB77FB79002B01D0002300E008237B61DD
:1047F000FB79002B01D0082300E00C233B617B698F
:10480000BB6112E00E4ABB6952F82330B3F1FF3F9F
:1048100008D1FB79BA68B969F868FFF779FFBB6915
:10482000FB7706E0BB690133BB61BA693B699A4219
:10483000E8D397F91F3018462037BD4680BD00BF2A
:104840007C29002080B483B000AF0346FB71FB7964
:104850000A4A4FF0FF3142F82310FB79072B06D9A3
:10486000FB79083B054A1344FF2283F8502000BF20
:104870000C37BD465DF8047B704700BF7C290020E3
:1048800080B582B000AF1D4B93F85430002B03D09D
:1048900008233B603B682CE00023FB7106E0FB79BA
:1048A0001846FFF761FFFB790133FB71FB791F2B82
:1048B000F5D90023FB7106E0FB791846FFF7C2FF2C
:1048C000FB790133FB71FB790B2BF5D9072106200E
:1048D000FFF79EFC4FF4BE70FFF7CBFC4FF000409B
:1048E000FFF7F0FC054B012283F8542000233B60C6
:1048F0003B6818460837BD4680BD00BF7C290020B4
:1049000080B400AF064B93F85430002B14BF012342
:104910000023DBB21846BD465DF8047B704700BF3C
:104920007C29002080B586B000AFF860B9607A605D
:1049300000237B61F868FFF7D5FE0346002B02D009
:1049400008237B6140E0BB68DB781A467968F86829
:10495000FFF73EFF0346FB7497F91330B3F1FF3FB7
:1049600030D0BB689B78002B03D0F868FFF792FD2E
:1049700005E0BB685B781946F868FFF776FDBB6811
:10498000DB78002B08D097F91300BB681B781A4618
:10499000F968FFF7D3FC17E097F91330083B97F954
:1049A0001320083A0B490A4492F95010BA68127859
:1049B000920152B20A4351B2064A13440A4683F89E
:1049C000502001E004237B617B6918461837BD46FF
:1049D00080BD00BF7C29002080B586B000AF786024
:1049E0000B46FB707868FFF765FE0346002B27D067
:1049F0007868FFF7CBFE0346083B2A4A134493F935
:104A00005030BB75BB7D9B097B757B7D032B0AD129
:104A10007868FFF788FD0346002B01D0032300E0F0
:104A20000223FB7506E07B7D012B01D1022300E010
:104A30000323FB75FB7D19467868FFF748FD2DE0E1
:104A40007868FFF715FE0346002B27D07868FFF73C
:104A50009DFE03463B613B699BB240339BB29B008A
:104A6000FB813B691846FFF74FFCFB891846FFF7AF
:104A700000FCFB78002B11D07868FFF787FE034617
:104A80001846FFF795FEB860BB68002B06D00122E0
:104A90003B6902FA03F31846FFF714FC00BF18370E
:104AA000BD4680BD7C29002080B582B000AF786013
:104AB0007868FFF738FD0346002B14BF012300235D
:104AC000DBB218460837BD4680BD000080B594B003
:104AD00000AF0023FB640023FB604FF48073A7F852
:104AE000463001233B640023BB6421E0B7F8463025
:104AF0001846FFF7AAFB0346002B0ED0386CFFF7D1
:104B0000F1FB0346002B08D0B7F846301846FFF7F4
:104B1000B0FBFA6C3B6C1343FB643B6C5B003B6487
:104B2000B7F846300433A7F84630BB6C0133BB649A
:104B3000BB6C072BDAD94FF4BE70FFF786FB034638
:104B4000002B0ED04FF4BE70FFF793FBFB6C43F0CD
:104B50000043FB6407F10C031A4601210020FFF714
:104B60001CFDFB6CDBB2002B29D001233B6400232E
:104B7000BB6421E03A6CFB6C1340002B16D0B86C80
:104B8000FFF712FC7863B86CFFF724FC034687F844
:104B90003330B86CFFF70CFEF862FB6A002B05D0CF
:104BA00097F83320FB6A1146786B98473B6C5B00A3
:104BB0003B64BB6C0133BB64BB6C072BDAD9FB6C69
:104BC000002B80F2F180002387F83B300023BB608C
:104BD0000023FB630BE0FB6B9B0007F150021344C7
:104BE0004FF0FF3243F84C2CFB6B0133FB63FB6B44
:104BF000002BF0D0002387F83B300023BB6474E027
:104C00006B4ABB6C1344503393F9003087F82B3058
:104C100097F82B3023F0C0037B62654ABB6C1344CA
:104C2000503393F90030B3F1FF3F5BD03B1D194681
:104C3000786AFFF7DBFC0346002B53D097F82B3044
:104C40009B0987F82330786AFFF7A0FD03461846D2
:104C5000FFF7AEFDF861FB69002B03D197F8233015
:104C6000032B3FD197F82330032B05D107F108031D
:104C70001946786AFFF7D7FC786AFFF76AFC0346A3
:104C8000FB7607F10C031946786AFFF7AFFC7861F1
:104C90007B69002B02D0FB7E022B05D07B69002BA9
:104CA00020D1FB7E032B1DD197F82330032B10D18D
:104CB000FB7E022B01D1032300E00223FB74FB7C6B
:104CC0001946786AFFF703FC97F83B30013387F801
:104CD0003B30FB69002B05D097F82320FB69114678
:104CE000786A9847BB6C0133BB64BB6C032B87D9D4
:104CF00097F83B30002B52D0012387F83A303B46DF
:104D00001A4601210020FFF748FC0023FB6316E050
:104D1000FB6B9B0007F15002134453F8502CFB6BC4
:104D20009B0007F150010B4453F8443C9A4203D0D6
:104D3000002387F83A3005E0FB6B0133FB63FB6B24
:104D4000002BE5D097F83A30002B03D0002387F8EA
:104D50003B3024E00023FB631EE0FB6B9B0007F16C
:104D60005002134453F8502CFB6B9B0007F1500189
:104D70000B4443F8442CFB6B9B0007F15002134497
:104D800053F8482CFB6B9B0007F150010B4443F890
:104D90004C2CFB6B0133FB63FB6B002BDDD097F8D6
:104DA0003B30002B7FF426AF00BF5037BD4680BD9F
