:020000021000EC
:10F000000000012015A602003DA602003FA6020056
:10F0100041A6020043A6020045A60200000000002F
:10F0200000000000000000000000000047A60200F1
:10F0300049A60200000000004BA602004DA60200F7
:10F04000452002004FA602007D2D02004FA60200BF
:10F050004FA602004FA6020081240200A929020047
:10F060004FA602004FA602004FA602004FA60200C4
:10F070004FA602004FA602004FA602004FA60200B4
:10F080004FA6020091F701004FA602004FA6020012
:10F0900055F801004FA6020069B202004FA6020017
:10F0A0004FA602004FA602004FA602004FA6020084
:10F0B0004FA602004FA60200000000000000000062
:10F0C0004FA602004FA602004FA602004FA6020064
:10F0D0004FA602004FA602004FA60200000000004B
:10F0E0000000000000000000000000000000000020
:10F0F0000000000000000000000000000000000010
:10F1000000000000000000000000000000000000FF
:10F1100000000000000000000000000000000000EF
:10F4000010B5054C237833B9044B13B10448AFF35E
:10F4100000800123237010BDC421002000000000E3
:10F42000E8B302000C4B43B10C480D4910B5AFF3E3
:10F4300000800C48036823B910BD0A48036833B93B
:10F440007047094B002BF7D0BDE810401847064B1A
:10F45000002BF5D0184700BF00000000E8B3020001
:10F46000C8210020B021002000000000154B002B17
:10F4700008BF134B9D46A3F5803A00218B460F46EB
:10F480001348144A121A00F063F80F4B002B00D0F7
:10F4900098470E4B002B00D0984700200021040015
:10F4A0000D000D48002802D00C48AFF3008000F09A
:10F4B0002BF82000290004F061FC00F011F800BFD7
:10F4C0000000080000000120000000000000000013
:10F4D000C4210020A0310020000000000000000036
:10F4E00008B5074B044613B10021AFF30080054B6C
:10F4F0001868836A03B19847204600F031F800BFCE
:10F500000000000044B3020070B50D4E0D4CA41B6A
:10F51000A4100025A54209D10B4E0C4C0BF006FFA0
:10F52000A41BA4100025A54205D170BD56F82530B6
:10F5300098470135EEE756F8253098470135F2E750
:10F54000A8210020A8210020A8210020AC21002013
:10F5500002440346934200D1704703F8011BF9E7C8
:10F56000FEE700BF2DE9F84F254B93F800E0BEF110
:10F57000000F31D0DFF88CB0DFF88CA0DFF88C9072
:10F580000024012703E00134E4B2744524D226B2FA
:10F59000DBF80050DAF8003015F8360007FA00F111
:10F5A000194205EBC608EED023EA0103CAF8003081
:10F5B00002F05CFF15F83660D9F8003007FA06F55E
:10F5C0002B4000FA06F18B4208D00D4B013493F822
:10F5D00000E0E4B27445DAD3BDE8F88FD8F804301F
:10F5E000002BF2D098F80110A1F10101B1FA81F1DC
:10F5F0004909091AB1FA81F1490930469847E4E707
:10F60000E0210020102200200C22002008220020EF
:10F6100070B50646114800F07FFD40B9104D012439
:10F620002B68B4401C4203D023EA04042C6070BD54
:10F63000304602F01BFF0B4E326860B122432B684C
:10F64000094932601C432C60044809680022BDE867
:10F65000704000F009BD22EA0402F0E7E821002032
:10F660000C22002008220020E4210020042A01D8D6
:10F67000072070472DE9F04182B0884605461746BD
:10F6800002F0C8FD002836D01D4C1E481E491F4AF6
:10F690001F4B2560002608F1FF3480F800800F60C2
:10F6A00016601E60E4B2B8F1000F1ED0DFF86C8067
:10F6B000032701E0FF2C18D023B205EBC30215F895
:10F6C000330093788DF80470424601A98DF80660E6
:10F6D0008DF807608DF8053002F0A6FD013CE4B21C
:10F6E0000028E7D002B0BDE8F0810A4A0A480021AC
:10F6F00000F0A8FCF6E702F04BFD0028C4D0F1E7CB
:10F7000010220020E0210020E42100200822002017
:10F710000C22002065F5010048B3020011F601003B
:10F7200070B5084D2B785BB1074E0024336801217A
:10F7300013F8340002F038FE2B780134A342F5D8D8
:10F74000002070BDE02100201022002000B585B00F
:10F7500000230390194601AA44F20100ADF80430D9
:10F76000029300F003F805B05DF804FBBFF34F8F80
:10F770000549064BCA6802F4E0621343CB60BFF34D
:10F780004F8F00BFFDE700BF00ED00E00400FA0569
:10F790002DE9F843274A284B0025C2F84051C2F80A
:10F7A0004451C2F84851C2F84C51C2F80051C2F855
:10F7B00004511B681BB32149D2F804450A68204F45
:10F7C000A41A1A6824F07F44A242A84609D8197CDA
:10F7D000DE69A41A1544A1B91EB133461A68A242C3
:10F7E000F5D91849184A0B7812789A421BD0174954
:10F7F000174A41F823504FF48013C2F80031BDE896
:10F80000F883D3F8149083F810803A689B694846CF
:10F8100019462AB190470028DED0FFF797FFDBE7B3
:10F820001846C847D8E7531CDBB2022B08BF002399
:10F830000B70DCE700100140342200203022002051
:10F84000142200202D2200202C220020242200201F
:10F8500000E100E02DE9F04FA34AA44913780978AC
:10F86000A348994289B0D0F800B000F0E580013398
:10F87000DBB2022B08BF002313709E4A52F82360AC
:10F880009B4A0BEB060323F07F4313600123059390
:10F89000994B93F80090994BD3F800A0964B5C7865
:10F8A0005B680393944B9B780293954B1B7804936E
:10F8B0008F4B00271B680693CC465546D646B84664
:10F8C00001973B460097A44523D00CEB4C020398CC
:10F8D000029F10F832100CF1010C5FFA8CFCBC4551
:10F8E00008BF4FF0000C022900EBC2027BD00329B5
:10F8F000E9D1BEF1000FE6D0DEF81C208EF8103002
:10F900009646002AF8D11546A4454FF00102009210
:10F91000DBD1019B009F002B40F0A380B8F1000FCA
:10F9200002D0734B069A1A600FB1744B1D60059B91
:10F93000002B40F0C281BAEB0E0318BF01230593E0
:10F9400000250023019304931F466D4BDFF8B4B1EB
:10F950001B780693664BD3F80080684B1B680093B6
:10F9600076464FF0010A35B36A68A9682B46ED69FF
:10F97000A2EB080020F07F40584577D80144196079
:10F980005F609F6083F810A0DF61002E00F08E8022
:10F990003068884280F08280344603E010688842F4
:10F9A0006DD21446E269091A002AF7D11960DA61AA
:10F9B000E361002DD8D1039909EB490309F1010254
:10F9C000CC4501EBC3045FFA82F900F09D8011F889
:10F9D0003300029B4B4508BF4FF0000901286AD055
:10F9E00001230493E8E75068BEF1000F3FF46BAFCA
:10F9F0007045714617D0009F02E0904205D0114635
:10FA0000CA69002AF9D100975DE7884200970BD0B8
:10FA1000C2690068CA61002A3FF455AF1168014409
:10FA20001160AE464FE77046DEF81C20964632B1B4
:10FA3000154601220092EBE70026059628E702F121
:10FA4000804202F588324FF00108C2F808807546FE
:10FA5000CDF818E0CDF80080CDF80480CDF8108006
:10FA6000D6E7274B9DF810201A7057E7A8EB020243
:10FA700022F07F428A4208D2891A196080E7401A30
:10FA800010601960DA61E36193E71F605F609F6057
:10FA900083F810A0DF614EB130680021411A316057
:10FAA0000093DE611E46012301935CE700931E462E
:10FAB0000123019357E763681A7C0492002A7FF4BC
:10FAC0007BAFA2685A60E168996007902069D860AE
:10FAD00064699C61069C002C00F0EC80049A5A60DA
:10FAE0000494002244E700BF2C2200202D22002095
:10FAF000302200202422002018220020342200205E
:10FB000020220020FEFF7F00049B002B40F0A681F6
:10FB1000019B13B1804B009A1A60764500F0C080BB
:10FB2000002E00F007817D4A7D49D2F804050C784B
:10FB30003668A0EB080323F07F430333002C50D139
:10FB4000784CDFF8E8E1784F4FF48035C2F8445341
:10FB5000C2F804534FF40035C4F8805125600124E5
:10FB60001460DEF800502F2200BF00BF00BF00BFAE
:10FB700000BF00BF00BF00BFBD422FD000BF00BF0D
:10FB800000BF00BF00BF00BF00BF00BF00BF00BF7D
:10FB900000BF00BF00BF00BF00BF00BF00BF00BF6D
:10FBA00000BF00BF00BF00BF00BF00BF00BF00BF5D
:10FBB00000BF00BF00BF00BF00BF00BF00BF00BF4D
:10FBC00000BF00BF00BF00BF00BF00BF00BF00BF3D
:10FBD00000BF00BF00BF00BF00BF00BF013AC3D1DC
:10FBE0000C709E422CBF08EB060343444B4923F0A4
:10FBF0007F43C1F84035D1F80425121A1B1A22F0B0
:10FC00007F4223F07F4303329A424DD9D1F8043525
:10FC1000464AC1F84035126843492F2300BF00BF50
:10FC200000BF00BF00BF00BF00BF00BF8A422FD08F
:10FC300000BF00BF00BF00BF00BF00BF00BF00BFCC
:10FC400000BF00BF00BF00BF00BF00BF00BF00BFBC
:10FC500000BF00BF00BF00BF00BF00BF00BF00BFAC
:10FC600000BF00BF00BF00BF00BF00BF00BF00BF9C
:10FC700000BF00BF00BF00BF00BF00BF00BF00BF8C
:10FC800000BF00BF00BF00BF00BF00BF00BF00BF7C
:10FC9000013BC3D1234B4FF40032C3F8002103E0F2
:10FCA000059B002B7FF43CAF214A0023137009B061
:10FCB000BDE8F08F079804905AE6174B002477466A
:10FCC0002546214620461B68DDF814E0A7B13A68B6
:10FCD000B24218D8FC683860B61A1144FB693CB1CE
:10FCE0000BEB010222F07F42FD61BC607A603D4671
:10FCF0001F467446002FEAD1BE46002C3FF421AEC9
:10FD0000054A13601DE6BE46002C40F0A480921BFD
:10FD1000CEF8002015E600BF34220020001001407C
:10FD20002122002000E100E00024F400A4210020B2
:10FD3000202200204B4A4C4B4C4D4D484FF4803113
:10FD40004FF400370124C3F88070C2F848132F2302
:10FD5000C2F80813546029681D4600BF00BF00BFE9
:10FD600000BF00BF00BF00BF00BF81422FD000BF57
:10FD700000BF00BF00BF00BF00BF00BF00BF00BF8B
:10FD800000BF00BF00BF00BF00BF00BF00BF00BF7B
:10FD900000BF00BF00BF00BF00BF00BF00BF00BF6B
:10FDA00000BF00BF00BF00BF00BF00BF00BF00BF5B
:10FDB00000BF00BF00BF00BF00BF00BF00BF00BF4B
:10FDC00000BF00BF00BF00BF00BF00BF00BF013DBC
:10FDD000C3D19460274A166000BF00BF00BF00BFB8
:10FDE00000BF00BF00BF00BF81422FD000BF00BFD7
:10FDF00000BF00BF00BF00BF00BF00BF00BF00BF0B
:10FE000000BF00BF00BF00BF00BF00BF00BF00BFFA
:10FE100000BF00BF00BF00BF00BF00BF00BF00BFEA
:10FE200000BF00BF00BF00BF00BF00BF00BF00BFDA
:10FE300000BF00BF00BF00BF00BF00BF00BF00BFCA
:10FE400000BF00BF00BF00BF00BF00BF013BC3D168
:10FE5000094B1E7028E709490B6058E7084B83F8E7
:10FE600000C055E60010014000E100E0A4210020A0
:10FE70000024F4003022002021220020342200201F
:10FE8000182200202DE9F04712F0030402D00720C9
:10FE9000BDE8F087002AFAD05F4D604EDFF8889108
:10FEA000DFF888C14FF4803E4FF400374FF001086F
:10FEB000C6F88070C5F848E32F27C5F808E3C5F8F1
:10FEC0000480D9F800E0B94600BF00BF00BF00BF02
:10FED00000BF00BF00BF00BFE6452FD000BF00BF7E
:10FEE00000BF00BF00BF00BF00BF00BF00BF00BF1A
:10FEF00000BF00BF00BF00BF00BF00BF00BF00BF0A
:10FF000000BF00BF00BF00BF00BF00BF00BF00BFF9
:10FF100000BF00BF00BF00BF00BF00BF00BF00BFE9
:10FF200000BF00BF00BF00BF00BF00BF00BF00BFD9
:10FF300000BF00BF00BF00BF00BF00BFB9F1010993
:10FF4000C2D1C5F8088000BF00BF00BF00BF00BF1E
:10FF500000BF00BF00BFE6452FD000BF00BF00BFFD
:10FF600000BF00BF00BF00BF00BF00BF00BF00BF99
:10FF700000BF00BF00BF00BF00BF00BF00BF00BF89
:10FF800000BF00BF00BF00BF00BF00BF00BF00BF79
:10FF900000BF00BF00BF00BF00BF00BF00BF00BF69
:10FFA00000BF00BF00BF00BF00BF00BF00BF00BF59
:10FFB00000BF00BF00BF00BF00BF013FC3D1DFF8DB
:10FFC00070E0DFF870A0164FDFF86C90DFF86C80FF
:10FFD000DFF86CC08EF80040CAF800304FF4801E85
:10FFE000E023B9703C707C70C9F8004088F800408C
:10FFF0008CF800400B49C6F880E186F81433C6F847
:020000022000DC
:1000000000E0C5F8080586F81133D5F804350B6013
:100010007A602046BDE8F0870010014000E100E072
:100020001822002030220020A42100200024F40007
:100030002122002014220020342200202C22002023
:100040002D220020074B5B6823B12AB120B1036841
:10005000187C18B1082070470720704759745A61FE
:10006000704700BF182200202DE9F043274C636839
:1000700083B033B128B1042907D8072003B0BDE805
:10008000F083082003B0BDE8F0834369002BF8D06B
:10009000054602A86B7C0026012B00F8016D0CBF01
:1000A0008946B14690460F4600F074F86378A07810
:1000B00021785A1CD2B2904208BF324691421FD0DA
:1000C00003EB43036068DB00C11819D04FF0010E49
:1000D00000F803E00E4B4D60D3F804358B609DF8BB
:1000E0000700CF60C1F81090C1F81480627000F072
:1000F00077F8084B4FF480123046C3F80021C1E76F
:100100009DF8070000F06CF80420BBE718220020DF
:100110000010014000E100E0F0B51C4E736883B0B0
:1001200053B348B343693BB3054602A8002400F823
:10013000014D2C7400F02EF87378B07831785A1C89
:10014000D2B2904208BF2246914218D003EB43033B
:100150007168DB00CF1812D00220C8547D609DF872
:100160000700727000F03CF8094B4FF480122046F3
:10017000C3F8002103B0F0BD082003B0F0BD9DF826
:10018000070000F02DF80420F7E700BF1822002038
:1001900000E100E070B4EFF3108472B60D4B9A6882
:1001A000AAB90D490D4E01259D60D1F8805035400A
:1001B0001D60C1F88060D1F884505D604FF0FF335E
:1001C000C1F88430027004B962B670BC7047012374
:1001D0000370F8E79431002000E100E0FC06FFBC6A
:1001E000094B9A6872B168B910B4EFF3108272B615
:1001F00006491C680C605C684C60986002B962B685
:100200005DF8044B704700BF9431002000E100E02E
:10021000F0B52B4C2B4F6268668883B0002A48D01B
:1002200036015388B9190333496802EB830201F59B
:100230008050824225D21368013318BF4FF6FF75F4
:100240001FD09388AB4213D013888BB162601E48D5
:100250005388868801681D480025033300959BB2AA
:1002600001EB86010325257001F048FA03B0F0BDCB
:100270005388033302EB8302824202D213680133B4
:10028000DFD13E44B38963B10F4D1048296802277E
:10029000052600230122AF80267001F085FA03B005
:1002A000F0BD0122094801F07FFA0423237003B056
:1002B000F0BD3601BB19596801F10802B7E700BF6C
:1002C000B02200203C2300205C230020B421002029
:1002D000F0B543688E464BB1324A1468A34205D349
:1002E0005268934202D813F003023AD000232E4EF4
:1002F000AEF800304FF0010C4FF6FF757768002321
:1003000007F5805453B35A88033203EB82039C42AF
:1003100017D91A68013214D09A88AA420BD01A88C9
:100320004AB1026899689142ECD1204A436013892E
:1003300003810120F0BD5A88033203EB8203A342FC
:10034000E7D30CF10103AEF800C01FFA83FCBCF147
:10035000030F06F11006D1D10020F0BD07F108030C
:10036000D5E7124C05892489A542BFD105689C6850
:10037000A542BBD10C4C6068834205D900F5805082
:10038000834201D2134608E062699342E4D902F540
:100390008052934238BF0123DED2AEF800300120F4
:1003A000F0BD00BFB42100203C230020B02200207B
:1003B000B3F804C0BCF1010F53D82DE9F0419046C9
:1003C000294A4FF6FF7702EB0C1E00229EF80040F0
:1003D000002C33D11C68002C3ED06588DEF8046008
:1003E000033504EB850406F58056B44225D2256812
:1003F000013522D0A588BD4219D02588BDB11C6029
:1004000018B1A6880588AE42E5D119B126880D88B5
:10041000AE42E0D1A268C8F800201A68134BC8F8B1
:1004200004201B89A8F808300020BDE8F081658809
:10043000033504EB8504B442D9D31A600CF1010CE6
:100440001FFA8CFCBCF1020FA3F804C00EF1100ED1
:10045000BCD10A20BDE8F081DEF8046006F1080492
:10046000C1E70A20704700BF3C230020B0220020D3
:100470002DE9F04FA94C256FEF007E1BB6008BB025
:10048000A25D013A824604EB0609052A31D8DFE86D
:1004900002F05C3E3E1D1D03002840F0D580DFF8D1
:1004A000908298F80C30002B00F00A8398F8003006
:1004B00088F80C00013B062B1BD8DFE813F006017F
:1004C000BC02CE01AF011A00ED02C802002840F0C4
:1004D000BB80A7EB050B04EB8B0B9BF80480B8F1FA
:1004E000010F00F04883C0F03183B8F1020F00F033
:1004F00011810F23A15D06938B1E012B40F2AB806F
:10050000052A33D8DFE802F02F80695D938F7B1BCB
:1005100004EB83038249B3F8128001EB081800282A
:1005200040F0AA80B8F808A0D8F804101B7C01EBB2
:100530008A0A062B00F28C83DFE813F0A701EA0198
:10054000D3013002190207020402002840F08D8016
:1005500099F80430032B00F20681DFE813F03F0125
:100560004C012F010B0100238DF814306D4D05F166
:10057000200655F8043F0BB105A89847B542F8D1BD
:10058000206FC0EBC00004EB80001C220021FEF7AE
:10059000DFFF636F3BB1226F0132013B02F00302C8
:1005A000636722673BB9604A137823F00403137032
:1005B0000BB0BDE8F08F0020FFF75AFF0BB0BDE88D
:1005C000F08F7B1B04EB83030322D3F80610DB6858
:1005D000089107938DF81420C8E77B1B04EB830375
:1005E00002211A7C1E899D88D868ADF82060A2F18E
:1005F0000603B3FA83F35B098DF82430ADF822507B
:1006000007908DF81410B1E77B1B04EB83030122E4
:1006100018899988DB68ADF82000ADF8221007939F
:100620008DF81420A2E705238DF814309EE77B1B7C
:1006300004EB83030422DB88ADF8203000238DF81F
:100640001420ADF8223091E7A15D012306938B1EA3
:10065000012B3FF655AF354B99F81660186C596C65
:100660003044891B186459644AE72F490B7823F0FA
:1006700001030B7001233DE7DB88B8F80AE0B8F806
:100680000800C3F57F41FD31033303447144A8F8EA
:100690000830A8F80A1001232CE7214BB8F80810FD
:1006A0001A781B7CB2FA82F2B3FA83F352095B091F
:1006B000013188F80A2088F80B3000220123A8F8BD
:1006C000081088F80C2088F8003098F80A304BB1F0
:1006D000134A9389002188F80A101BB9927B002ADB
:1006E00040F0AD8298F80B304BB10D4B9A8B002146
:1006F00088F80B101AB99B7F002B40F09F827A1B61
:10070000002314F8222088F80030013AA8F80230BB
:10071000C8F8043000230693F2E600BFC42200208C
:100720003C23002040220020AC2200206422002034
:10073000B02200204FF001084FEA08180AEB080326
:100740004FF0000B5968CA4ACDF800B00223C948DF
:1007500000F0D4FF0AF808B000283FF429AF7B1B53
:1007600014F82320013AC4490B7823F001030B70DD
:100770000E23BFE6DFF80C83BD4AD8F80010BD4851
:100780004FF0000A0223CDF800A000F0B7FFBB4BEA
:10079000BB495B88D8F800E089F804A01B01CA189F
:1007A00001F803A05368B8F80410C8F80030022319
:1007B000C2F804E01181A8F80430CDE7DFF8C48264
:1007C000AC48D8F800100023012200F0EDFF02220F
:1007D0000023A8F8042089F80430BDE7A94BAA4AF1
:1007E0001968A44800230093022300F087FF012327
:1007F00089F80430B0E7DFF888A29AF80030022BBD
:1008000000F023829AF81030022B93D09A490B788B
:1008100043F0020323F001030B707BE7B8F80230CA
:10082000974A02EB03129389002B00F0E281954B6B
:100830009048196802229A800522002388F8002037
:10084000012200F0B1FF0346002B3FF4B1AE1C22A1
:1008500002FB05F2A25C013A4CE68A48D8F8042073
:10086000D0F800E08188538882480EEB81014FF078
:10087000000ECDF800E003334FF0030E9BB288F872
:1008800000E000F03BFF0346DEE70023321D514647
:10089000224400937748012300F030FF7B1B9B002C
:1008A000E2180221117400283FF482AEE25C0E23AC
:1008B000013A791B04EB8101B8F80AC0C988B8F87D
:1008C00008E0C1F57F40FD30033160447144A8F871
:1008D0000A00A8F8081041F61D518B423FF41AAFE8
:1008E00008E6002306F10C020AF1080122440093F5
:1008F0006048012300F002FF7B1B9B00E218917D02
:1009000000290CBF0121032111740028CED14FE62C
:10091000002306F108020AF104012244009355481D
:10092000012300F0EBFE7B1B9B00E118E25C032A35
:100930000CBF052306230B7400283FF439AE013A9F
:100940000E23B6E741F61D53B3E7504B504A5968A2
:10095000484800230093012300F0D0FE002840F017
:100960003F817D1B04EB85040623237420E6A7EB5F
:10097000050B4FEA8B0B04EB0B02444B92691A6098
:100980001846002205A95A60FFF7A2FC00287FF450
:100990007CAF14F80B200A23013AABE5DFF8F4E052
:1009A000DEF844C0BCF1000F00F0F980DEF8401022
:1009B00030485EF83120A7EB050B04EB8B0B0EEBF8
:1009C000C103013101F00701CEF840100CF1FF3CEA
:1009D000BBF81410CEF844C04FF0000E03930AEB9E
:1009E00081019B88CDF800E000F088FE039A9BF817
:1009F00016309188BBF81420013B0A44DBB2ABF8F7
:100A000014208BF8163013B901238BF8103000280E
:100A10003FF4CEAD7A1B0E2314F82220013A48E7AA
:100A2000184AD8F804109388498803330B440221EC
:100A3000938088F80010FFF7EBFB0346002B3FF490
:100A4000B7AD1C2202FB05F2A25C013A43E70D4B55
:100A50000D4A1968074800230093C8F8043007239B
:100A600088F80030022300F049FE0346ECE600BFA0
:100A700050B30200B4210020AC220020B02200209C
:100A80003C2300205C23002058B3020038220020C1
:100A90004CB3020064220020B8F80230DFF8CCA189
:100AA0001B019A4406200023DAF80410694A0093D7
:100AB000022388F80000684800F020FE0346C3E6E1
:100AC00098F80030072B2CD801A151F823F000BF73
:100AD0009B060200230B0200230B0200210A0200E6
:100AE000F90A02004F0A02004F0A0200F10A02004E
:100AF000012388F80030E8E5B8F80230DFF86CA18F
:100B0000564A1B010AEB03011068D1F804C0B2F881
:100B100004E048600220C2F800C0A1F808E090801C
:100B2000BFE7013B062B3FF6E4AC01A151F823F0EF
:100B3000CB060200370A02005B0802001D08020013
:100B4000F3040200990A02004F0A0200DBF80C309D
:100B5000CDF818A005A80DF11201CDF81CA0059341
:100B6000FFF7B6FB00284ED10A237A1B04EB820262
:100B70000221117168E63A4B1B789B0712D40223BD
:100B80000822002137480393FEF7E2FC039B0A2B5F
:100B90007FF454AF7B1B14F82320013ABAE5DCF84C
:100BA0000030FFDEB01D2F4B204405AA5146FFF751
:100BB000FFFB03460028E3D143462B4A0699CDF8B4
:100BC00000A0254800F09AFD264B284A9B8802EB9E
:100BD000031200280CBF53460E2382F80E80D6E77E
:100BE0007B1B9B00E118E25C06230B74013A0E2389
:100BF0005FE651681848012200F0D6FD0422034642
:100C000088F8002020E60699174A8B88ABF8063052
:100C10000888CDF800A00123ABF808000E4800F0CA
:100C20006DFDBDF81230114A02EB031200284FF09F
:100C3000010114BF0E230023917396E70123A8F846
:100C40000230FFF7E5FA0346F8E64FF0000873E5D7
:100C50000F232EE650B30200B42100205C230020B5
:100C6000AC220020682300204CB302003C2300206B
:100C70000846FFF7FDBB00BF2DE9F04F0D894C681A
:100C800085B00646002D00F0AB80206810F0030010
:100C900005D091E054F83070BF0740F08D800130EE
:100CA0008542F7D1002A00F08B80B2F800A052886C
:100CB000644FDFF8A0813868D8F87490032B00F1F6
:100CC000010E03BF306803904FF0040B4FF0000B90
:100CD000B9F1030FC7F800E05FD8DFF87CC1DCF89A
:100CE0004400C5F10807B84257D8D8F87070029789
:100CF0000F884988019102990097494401F0030146
:100D0000C1EBC101890008EB010708F80130FA8046
:100D1000BDF800203A81039ABA6109F10109002364
:100D2000BDF80410B9804FF00302C7F80CE087F853
:100D300010B0A7F812A0BD75BA827B81C8F8749074
:100D4000DDB1DCF84020024402F007020CEBC202E5
:100D50000CF1380804EBC30103C9013302F10807A1
:100D600082E80300424514BF3A4662469D42F1D1F3
:100D7000DCF844302B44CCF844303EB10023324AF6
:100D8000C6F800E073601289B37232812F4A13787B
:100D900013F0040442D000200BE02D4B03EB0A1AA1
:100DA000C2F57F42BAF80A30FD321A44AAF80A2086
:100DB000082005B0BDE8F08F032005B0BDE8F08F36
:100DC00004EBC505A08808340244A54292B2F9D1CB
:100DD000D01C80B240F2FD34A04205D90920E8E7DA
:100DE000002A7FF462AF0320194C94F800A0BAF1F6
:100DF000000F07D1678925893D440544ADB2B5F59B
:100E0000806F1DD3257C3DB9678B258B3D44054400
:100E1000ADB2B5F5806F09D30720CAE743F00403EC
:100E200020461370FFF724FB2046C2E74FF0010A6B
:100E3000554604EB0514384460810D894C6837E74A
:100E40005546F6E7C0220020B0220020AC22002048
:100E50003C230020C422002064220020074A13788B
:100E6000082B09D010B4591C054C117044F823000C
:100E700000205DF8044B70470C207047642300206D
:100E8000442200202DE9F04FB04B8BB01A7800239C
:100E90000693059307930893099393070DD5AC4CDC
:100EA00004F1200554F8043F05A803B19847A54272
:100EB000F8D100200BB0BDE8F08F12F00106F8D198
:100EC000A24B42F001021A7000F0BCFBA14BDFF80C
:100ED000A4C21968A04B01961D6801F54053083360
:100EE00001F5805000930831B046B34651F8083CF4
:100EF0009A4A9342A1F1080428D0A1F10C0301F60B
:100F0000F47E02E0734500F0FD8053F8042F0132B7
:100F1000F8D04FEA0813924A4FF0030408F1010891
:100F2000D4541FFA88F8009B01F58051994200F5CE
:100F30008050DBD1DA46002E40F00581BAF1000F77
:100F400040F08A800B200BB0BDE8F08F51F8043CD4
:100F5000844A934243D001329342CED1019B93B154
:100F60007F4B7F4F4FEA081903EB09024FF0020E47
:100F700008F10108DCF8003007F809E01FFA88F8EA
:100F80005360A2F808E00222CCF80040ACF804203C
:100F90000B68013300F0B48014464FF6FF7E0A461A
:100FA00002E01368013313D09388734506D0138889
:100FB00023B19368AB4201D91D4601265388033300
:100FC0001C4402EB8302A4B29042ACF80440E8D87F
:100FD000022C00F0958008234BEA030BA3E7604F37
:100FE0004FEA081307EB030E4FF00009022207F83F
:100FF0000390CEF80440AEF8082002930B6801334A
:101000001ED00B464FF6FF7A11E09C68AC4201D926
:10101000254601265C880334224403EB840392B204
:101020009842AEF808200BD91C68013408D09C887F
:10103000544502D01C88002CE7D14FF00109E9E7A4
:10104000029B474A134408F1010883F80E901FFAE7
:1010500088F84BF0020B66E7BAF1060F5FFA8AF3E5
:101060000AD0013B0A2B1CD8DFE803F0191B191B1F
:10107000441B441B41474100344B354C1B78334AD9
:1010800043F0020323F00103137004F1200554F828
:10109000043F05A803B19847A542F8D109E700230A
:1010A0000393314A516F032912D8304B5B6C082BE4
:1010B0000ED8136F0B4403F00303C3EBC3039B0071
:1010C000D0180124D45401319DF80C3003715167BC
:1010D0001E4B1B7813F004047FF4EBAE1B4A43F065
:1010E000040320461370FFF7C3F92046E2E603230A
:1010F0000393D6E701230393D3E702230393D0E7B7
:10110000042369E7DCF80030ABB1154A4FEA081355
:1011100002EB030E164ACEF80440114CA2F80280EE
:10112000022208F10109E2541FFA89F8AEF80820FA
:101130004BF0010BF7E60223ACF804300123CCF8A6
:1011400000400193F4E7044B1D60F7E6AC22002059
:1011500040220020B4210020C0220020DEC0ADDEED
:101160003C230020FE011EF1C42200206422002046
:10117000B02200205C23002060B159B130B583B0AB
:101180000C460DF106010546FFF7A2F820B90A202A
:1011900003B030BD05207047BDF80620074B6868D6
:1011A00003EB021301219A890A449A8120606B683B
:1011B00000200C336360A97203B030BD3C230020D3
:1011C00050B110B582B00DF106010446FFF780F86A
:1011D00020B90A2002B010BD05207047BDF80620D6
:1011E000084B03EB02139A8912B9062002B010BD16
:1011F000A17A0029F9D00021013A9A810846A1720A
:10120000E8E700BF3C2300201D4B1B789B0702D45E
:1012100002231846704740B1CB1C9BB240F2FD320E
:10122000934205D90923184670470523184670478D
:1012300070B4144A157895B95689148934441C44FD
:10124000A4B2B4F5806F0AD22C4602EB04123344E8
:101250005381058041800023184670BC7047147C80
:1012600054B9568B148B34441C44A4B2B4F5806F2B
:1012700002D201252C46E8E70723184670BC7047C8
:10128000AC2200203C230020134B1B789B0702D488
:10129000022318467047D0B10388022B02D90423D9
:1012A0001846704710B40D49428801EB0313598961
:1012B0008C1A032C0DD4C2F57F42FD320A44002162
:1012C0005A810B46016018465DF8044B70470523B0
:1012D000DFE70423F7E700BFAC2200203C23002017
:1012E0000D4B1B789B0701D40220704759B110B4F5
:1012F0000C884FF6FF739C4201D04B882BB9042019
:101300005DF8044B704705207047022300225DF80A
:10131000044BFFF7B1BC00BFAC2200203AB130B49F
:101320000C4C2478A30704D4022030BC704705205D
:10133000704769B10D884FF6FF74A54201D04B8804
:1013400013B9042030BC7047022330BCFFF794BCB3
:101350000520EAE7AC22002028B10E4A1278930754
:1013600003D402207047052070470029FBD010B439
:101370000C884FF6FF72944201D04B881BB90420B1
:101380005DF8044B7047032300225DF8044BFFF720
:1013900073BC00BFAC220020F8B5194A1378990736
:1013A00001D40220F8BD4FF6FF7188421BD0154CC6
:1013B000656F032D19D81449496C082915D8216F78
:1013C000294401F00301C1EBC1018900661805271A
:1013D000675401350121F0803171656713F0040411
:1013E00005D00020F8BD0420F8BD0820F8BD43F06A
:1013F000040320461370FFF73BF82046F8BD00BFFA
:10140000AC220020C422002064220020F8B5164A35
:101410001378990701D40220F8BD1448416F0329BD
:1014200018D8134C646C082C14D8046F114D0C445C
:1014300004F00304C4EBC4042E780131062700F83D
:10144000247041670EB10121297313F0040403D005
:101450000020F8BD0820F8BD43F0040320461370B7
:10146000FFF706F82046F8BDAC220020C422002079
:1014700064220020B022002010B50C4C82B0ADF8E0
:1014800006002078ADF80410810702D4022002B0D3
:1014900010BD3AB133B101A90DF10600FEF788FF86
:1014A00002B010BD052002B010BD00BFAC2200206C
:1014B00000B50D4B83B0ADF806001878830703D450
:1014C000022003B05DF804FB51B14AB1134600207D
:1014D0000A460DF10601FEF76BFF03B05DF804FB51
:1014E000052003B05DF804FBAC22002000B50D4BD5
:1014F00083B0ADF806001878830703D4022003B048
:101500005DF804FB51B14AB113460DF106000A46DD
:101510000021FEF74DFF03B05DF804FB052003B08A
:101520005DF804FBAC22002020B119B103680B6008
:10153000002070470520704729DF704728DF70477B
:1015400070B50C4D696E042911D02B6E0B44032B22
:1015500088BF043B182202FB035406464B1C20465E
:1015600000216B66FDF7F4FF3460012070BD0020A0
:1015700070BD00BF7423002070B5304C636E84B022
:101580007BB1266E7500AB1904EBC3031A7A012AEE
:1015900009D0022A26D19889FFF7D0FF112818D048
:1015A00000BB04B070BDA8199A8ADB8A04EBC000A6
:1015B000D21AC1680069B2F5806F4FEA8303B4BFE5
:1015C00092B24FF4806219441844FFF7B5FF112816
:1015D000E6D11B4A137823F0020343F0040313708F
:1015E00004B070BD102268460021FDF7B1FFAB19B1
:1015F00004EBC3031A7A012A17D0022A09D19A8967
:10160000DB89ADF80A20D21A0123ADF808208DF845
:1016100000303544ED006219635952680192684602
:101620009B680921984704B070BD1A699B8A029291
:1016300000218DF80010ADF80C30EAE7742300208B
:10164000702300202DE9F0434FF010235D696B1CDF
:1016500048D0DFF8A48098F800C01CF0010F3ED1FC
:10166000234F2448C01B000935D007EB00113B462F
:1016700086461A681AB15A680AB10EF1FF3E103355
:101680009942F6D1BEF1000F25D0002600229146E6
:10169000F4B23B4606E0596839B10132904203F199
:1016A00010030ED019680029F5D1597B494588BF30
:1016B000D4B202F1010288BF8946904203F11003BF
:1016C000F0D12401E31901361A7B5D60B645A5EB24
:1016D0000235E551DAD14CF0010C88F800C0002049
:1016E000BDE8F0834FF080535D692D03B1E700BF83
:1016F000B4210020C4210020702300202DE9F041F6
:10170000264D2C78E60782B012D510B1244CA042A9
:1017100003D2022002B0BDE8F081224CA042F8D2F0
:1017200052B149B142EA0104A40707D00620F1E70B
:10173000012002B0BDE8F0810320EBE70468A1427C
:1017400001D20520E6E7466801EB8304A642F8D300
:101750000BB90420DEE7804601A81E4614460F465A
:10176000FFF7EEFE08B90720D4E701992B78C1F8FE
:101770000080019A089848600121D46013F00604A3
:1017800017619682117201D00020C3E743F0020373
:101790002B70FFF7F1FE2046BCE700BF702300204E
:1017A000B4210020C42100202DE9F041244D2C78E3
:1017B000E40782B010D510B1224CA04203D202201F
:1017C00002B0BDE8F081204CA042F8D241B1C1F393
:1017D0000B043CB10620F3E7012002B0BDE8F08124
:1017E0000320EDE70468A14201D20520E8E746683E
:1017F00001EB0234A642F8D30AB90420E0E78046A0
:1018000001A81E4614460F46FFF79AFE08B90720A6
:10181000D6E701992B78C1F80080019A4E6002202A
:10182000390B148213F006049181107201D000204C
:10183000C6E703432B70FFF79FFE2046C0E700BFBB
:1018400070230020B4210020C421002020B1034BCC
:101850005B6E0360002070470320704774230020F4
:101860002DE9F047B44FB54C3B78256E990784B00D
:1018700040F18180022800F0DD80032840F0D48010
:10188000AF4E33780133DBB2032B337040F2AF80BD
:101890004FF0000A1022514668464FEA450886F884
:1018A00000A0FDF755FE08EB050304EBC303E94672
:1018B0001A7A012A00F0F080022A09D19A89DB897C
:1018C000ADF80A20D21A0123ADF808208DF80030B7
:1018D0004544ED0062196359526801929B6848467D
:1018E00008219847626E013A6266002A40F00D8135
:1018F000236E3978013321F00201042B39702366FD
:1019000040F08F80002525668C4C2346002A00F08D
:1019100088804FEA450808EB050204EBC202117A01
:10192000012940D0022975D0102268460021FDF718
:101930000FFE08EB050304EBC303E9461A7A012AFC
:1019400000F08B80022A09D19A89DB89ADF80A2040
:10195000D21A0123ADF808208DF800304544ED007F
:10196000621963595268019248469B680921984759
:1019700004B0BDE8F0875A0739D5626E03F0FB0367
:101980003B70002A4DD043F002024FEA45083A70FE
:1019900008EB050204EBC20208EB0503117A0129EA
:1019A00004EBC303BED1D08A08EB050304EBC303E9
:1019B0009A8A08EB050304EBC303121AD9681B6962
:1019C000B2F5806F4FEA8000B4BF92B24FF48062EC
:1019D00001441844FFF7B0FD112820D13B7823F0D3
:1019E000020343F004033B7004B0BDE8F08705EB4D
:1019F000450304EBC303626E88E7F389B289318A39
:101A000001339BB201329942F381B2816CD0636E93
:101A10003BB133469889FFF791FD1128DED00028AD
:101A200082D104B0BDE8F08705EB4503626E04EB9C
:101A3000C3036BE74FEA450808EB050304EBC30655
:101A40003F4A337A4FF0000A012B82F800A00DD0F4
:101A5000022BD2D03346626E58E71A699B8A0292F3
:101A600000218DF80010ADF80C3077E7F08AB18ACC
:101A70000B1AB3F5806FB4BF9BB24FF4806308EBD1
:101A80000502184480B204EBC2068142F0820BD0FA
:101A9000636E002B88D1C4E71A699B8A8DF800A079
:101AA0000292ADF80C3013E7684610220021FDF7D2
:101AB0004FFD337A012BE94634D0022B09D1F2894C
:101AC000B389ADF80A309B1A0122ADF808308DF8C1
:101AD000002008EB0503DB00E218E358526801928E
:101AE00048469B680021FCE6684610225146FDF7F7
:101AF0002FFD337A012BE946DFD13269B38A8DF8A5
:101B000000A00292ADF80C30E3E7256E0135042DFC
:101B100025663FF4F7AE4FEA450808EB050304EBF2
:101B2000C303F8E63269B38AADF80C3000218DF8B2
:101B300000100292CDE700BF702300207423002024
:101B4000DC230020C30711D4810711D4420711D42C
:101B5000030711D4C10611D4820611D4430611D44F
:101B6000C3094FF6FF7018BF072070470020704769
:101B700001207047022070470320704704207047FF
:101B80000520704706207047E8B1E1B110B4048821
:101B9000944227D04488944226D08488944225D009
:101BA000C488944224D00489944223D04489944226
:101BB00022D08489944207D0C089904208BF072070
:101BC00003D05DF8044B70470620012223B10B7847
:101BD000824013430B70F4E70B78824023EA020340
:101BE0000B70EEE70020F0E70120EEE70220ECE7C3
:101BF0000320EAE70420E8E70520E6E72DE9F043C3
:101C00009DF81C4008B301B3FAB105889D4200F06D
:101C1000E88045889D4200F0EA8085889D4200F07A
:101C2000E880C5889D4200F0E68005899D4200F06D
:101C3000E48045899D4200F0E28085899D4206D07E
:101C4000C089984208BF072002D0BDE8F083062073
:101C500001238340DBB2002C5FD14E4206F0030625
:101C6000964228BF1646042A00F2B280144608782D
:101C7000DD43EDB22840012C087000F0B6804878B2
:101C8000022C00EA0500487000F0AF808878042C30
:101C900000EA0500887040F0B880C8780540CD7033
:101CA0002646A242D1D0A2EB040EAEF10407551E87
:101CB000BF082D1B0137022D4FEA870C1AD90025CA
:101CC00063F3070563F30F2563F31745081963F3FF
:101CD0001F65ED43A0F104094FF0000859F8044FC7
:101CE00008F101082C40B84540F8044BF6D3E6450E
:101CF0006644AAD0D8438B5DC0B2741C0340A24294
:101D00008B55A2D90D5DB31C05409A420D557ED965
:101D1000CA5C1040C854BDE8F083484200F003009C
:101D2000904228BF1046042A57D814460878012C40
:101D300040EA0300087056D04878022C40EA0300BD
:101D4000487050D08878042C40EA030088705AD13B
:101D5000C8781843C8702046A24252D0A2EB040EA5
:101D6000AEF10406551EB6082D1B0136022D4FEAB2
:101D700086081AD94FF0000C63F3070C63F30F2C9D
:101D80000C4463F3174C63F31F6CA4F104090027A0
:101D900059F8045F01374CEA0505BE4244F8045B7C
:101DA000F6D8C64540443FF450AF0D5C441C1D437B
:101DB000A2420D547FF649AF0D5D02301D438242B1
:101DC0000D557FF642AF0A5C13430B54BDE8F08318
:101DD000002E3FF468AF344649E704460028BDD0E2
:101DE000A4E7002034E72046B6E7264659E701205D
:101DF0002EE702202CE703202AE7042028E705200D
:101E000026E7BDE8F0830320A6E7032649E7BDE8FF
:101E1000F08300BFD0B1038893421ED04388934221
:101E20001DD0838893421CD0C38893421BD0038962
:101E300093421AD04389934219D08389934206D0A2
:101E4000C389934208BF072002D0002070470620B4
:101E500041FA00F000F0010070470020F8E701208F
:101E6000F6E70220F4E70320F2E70420F0E705207C
:101E7000EEE700BF00293AD012F0010330B402D0DF
:101E80000B8883800123950704D500EB43044D881C
:101E9000A5800133540704D500EB43048D88A58049
:101EA0000133150704D500EB4304CD88A580013329
:101EB000D40604D500EB43040D89A58001339506B3
:101EC00004D500EB43044D89A5800133540604D5A5
:101ED00000EB43048D89A5800133D20904D000EBC7
:101EE0004302C98991800133036030BC70470160AF
:101EF000704700BF054A4FF0A043105CD3F804358B
:101F000023FA00F0C04300F00100704764B3020000
:101F1000044B195C4FF0A04201238B40C2F80C35F2
:101F2000704700BF64B30200044B195C4FF0A0423D
:101F300001238B40C2F80835704700BF64B302002C
:101F40004FF0A04310B44FF480204FF400344FF40E
:101F500000214FF48012C3F80845C3F80805C3F800
:101F60000815C3F808255DF8044B70474FF0A043EF
:101F700010B44FF480204FF400344FF400214FF49C
:101F80008012C3F80C45C3F80C05C3F80C15C3F850
:101F90000C255DF8044B7047074B4FF0A041185CCF
:101FA000D1F804350122824022EA03001340C1F82F
:101FB0000805C1F80C35704764B3020030B44FF027
:101FC000A04303224FF400354FF480244FF4002047
:101FD0004FF48011C3F84427C3F84827C3F84C27AF
:101FE000C3F85027C3F80855C3F80845C3F80805D7
:101FF000C3F8081530BC7047054A4FF0A043105C89
:10200000D3F8103523FA00F0C04300F00100704708
:1020100060B302000D2809D00E2809D00F2809D07E
:1020200010280CBF03204FF0FF307047002070478E
:102030000120704702207047014B185C704700BFB9
:1020400060B3020010B51A4B1A6882B0A2B1002228
:102050001A601B6800934FF080430122154C0099D1
:10206000C3F80823A368627033B10CCB0020A260D0
:102070009847A368002BF8D10F4B1A68AAB1002229
:102080001A601B6801934FF080430222094C0199AA
:10209000C3F8082323690122A27033B10CCB0120BD
:1020A000226198472369002BF8D102B010BD00BF10
:1020B00000010040E02300200401004058B910B5A1
:1020C000054CA36833B10CCB0020A2609847A368ED
:1020D000002BF8D110BD7047E023002010B582B06E
:1020E00002A80023144C00F8013DFEF753F82378B2
:1020F00053B1E3689DF8070001330122E360A27049
:10210000FEF76EF802B010BD0C4A6360E360106821
:10211000A36010F0010023610AD009F041F820B952
:102120004FF080430122C3F8182501232370E0E714
:10213000072100F005F8F0E7E023002000E100E0CF
:10214000002810B418DB00F1604303F56143490136
:10215000C9B283F80013C3B24009800000F16040A7
:1021600000F5614003F01F0201239340C0F8803165
:1021700003605DF8044B7047C3B2044A03F00F04D8
:1021800049012244C9B21176E6E700BFFCEC00E049
:1021900030B51D4C94F8545083B015B1082003B0ED
:1021A00030BD4FF0FF33FF22072106202363636316
:1021B000A363E36323646364A364E36423606360F1
:1021C000A360E36023616361A361E361236284F838
:1021D00050306362A36284F85230E36284F8533073
:1021E00084F85120FFF7ACFF084B094A1D601B68BB
:1021F000019301984FF000430121284684F85410C0
:10220000C2F8043303B030BDF42300207C610040E9
:1022100000600040034B93F85400003018BF0120C9
:10222000704700BFF4230020F0B55E4C251895F9E7
:102230003030002B01DB0820F0BD91F803E0BEF147
:10224000000F50D02368013300F0A6800826012536
:1022500054F8253001334CD06B1C54F823700137EF
:1022600048D0AB1CB3423CD254F82370013741D064
:10227000EB1CB34235D254F8237001373AD02B1DF2
:10228000B3422ED254F82370013733D06B1DB342C2
:1022900027D254F8237001372CD0AB1DB34220D283
:1022A00054F82370013725D0EB1DB34219D254F8EE
:1022B000237001371ED005F10803B34211D254F840
:1022C0002370013716D005F10903B34209D254F83F
:1022D000237001370ED00A35B54202D2E36A0133CA
:1022E00058D00420F0BD236A01332DD00C260925D7
:1022F000AEE72B4626185DB244F8232086F830500E
:10230000BEF1000F26D08B78A3B94A784FF0A046D3
:1023100000F5E073920046F82320CB78F3B9083D2E
:102320002C44097894F8502042EA811284F8502015
:102330001846F0BD830003F1A043D3F8002722F034
:102340000202C3F80027E8E7082685F83060334624
:1023500022623546234483F84800D4E7AB0003F1FA
:10236000804303F5C0430978D3F8104524F447347B
:1023700024F44074C3F8104502020904D3F8100590
:1023800001F4403102F4F8520A430243C3F8102525
:102390000020F0BD0B23ADE7002385F8303022602C
:1023A0001D46B0E7F4230020F0B42E4D2E1882B065
:1023B00096F93030072B1CDD2B4493F848309B09ED
:1023C000032B41D0012B14BF4FF440314FF40031A7
:1023D000800000F1A040D0F8002722F44032C0F87D
:1023E0000027D0F800370B43C0F8003702B0F0BC2C
:1023F0007047DAB2072AF9D8980000F1804000F55A
:10240000C04003F140029200D0F8104592B202F1B0
:102410008042002744F0010402F5C042C0F8104594
:102420000197019817600029E0D096F9302055F8FF
:102430002220002ADAD001220B4902FA03F3C1F864
:10244000043302B0F0BC70474FF0A043D3F810350E
:10245000C34013F0010F0CBF4FF400314FF4403173
:10246000B6E700BFF4230020006000404FF0A04317
:10247000D3F8103523FA00F000F00100704700BFD8
:102480002DE9F04F87B00023CC4A01931168012950
:1024900000F00A821E46CA4B1A68012A00F0F68133
:1024A000C84B1A68012A00F0E381C74B1A68012A59
:1024B00000F0D081C54B1A68012A00F0BD81C44BE1
:1024C0001A68012A00F0AA81C24B1A68012A00F09A
:1024D0009781C14B1A68012A00F08481BF4B1A68AA
:1024E000012A00F05E8116F0FF0F1AD0BC4F0125C3
:1024F0000024A30003F180432E4203F5C0434FEABA
:1025000045050BD0D3F8100557F82420D3F8101543
:10251000C0F30420C1F3014102B190470134082CFB
:10252000E7D1002E02DB07B0BDE8F08F00224FF0AC
:10253000FF33AB4C02920393012502AE94F9501085
:102540004F1C2DD0C9B221F0C00006AB4FEAD00E0F
:1025500003EB0E0701F0070317F80C2C05FA03F341
:102560001A421DD02218890992F9302054F82220ED
:10257000002A00F0F080032900F0F0804FEA800E7E
:102580000EF1A04E17F814CCDEF800771CEA030316
:10259000C7F3014940F0B880B9F1030F00F0D781CB
:1025A0004FF0030A4FF002094FF00108002794F999
:1025B0005110481C2DD0C9B221F0C00006AB4FEA23
:1025C000D00C03EB0C0E01F007031EF80C2C05FADF
:1025D00003F31A421DD02218890992F9302054F8C9
:1025E0002220002A00F0CA80032900F0CA804FEAA6
:1025F000800C0CF1A04C1EF814BCDCF800E71BEAC0
:10260000030FCEF3014E40F09080BEF1030F00F0B7
:102610008A8194F952104A1C2CD0C9B221F0C00012
:1026200006AB4FEAD00C03EB0C0E01F007031EF8CB
:102630000C2C05FA03F31A421CD02218890992F9CE
:10264000302054F82220002A00F08F80032900F067
:102650008E804FEA800C0CF1A04C1EF814ACDCF814
:1026600000E71AEA030FCEF3014E6AD1BEF1030F61
:1026700000F0468194F953104B1C2CD0C9B221F0C4
:10268000C00006AB4FEAD00E03EB0E0201F00703C9
:1026900012F80CCC05FA03F31CEA030F1BD004EB71
:1026A000000C89099CF930C054F82C90B9F1000F46
:1026B0006ED003296ED04FEA800E0EF1A04E12F8B4
:1026C00014CCDEF800271CEA030FC2F3014211D13B
:1026D000032A00F0F580002F3FF425AF4FF0A04310
:1026E000019AD3F810359A423FF41DAF029A019334
:1026F000039223E7022AEED1032900F04681B9F1C3
:10270000000FE8D0C847E6E7B9F1020F7FF448AF01
:10271000032900F043814FF0030A4FF0010800271E
:10272000002A3FF444AF904741E7BEF1020F7FF427
:1027300070AF032900F02C81002A3FF46AAF904764
:1027400067E7BEF1020F95D1032900F02481002A2A
:1027500090D090478EE703297FF422AF16F80EC081
:102760004CEA030C06F80EC008E7032982D116F8DC
:102770000CA04AEA030A06F80CA06AE703297FF4D2
:1027800048AF16F80CB04BEA030B06F80CB02EE776
:102790000329A0D116F80EC04CEA030C06F80EC0AF
:1027A00089E700221A601B6805934FF0A043059A41
:1027B000D3F81035019346F0004694E600610040DE
:1027C00004610040086100400C610040106100405D
:1027D00014610040186100401C6100407C610040B1
:1027E000F42300206F4AD2F8042312067FF576AE58
:1027F00000221A601B680493049B46F080066DE675
:10280000684AD2F8042351067FF563AE00221A60AD
:102810001B680493049B46F040065AE6614AD2F8CE
:10282000042390067FF550AE00221A601B680493C3
:10283000049B46F0200647E65A4AD2F80423D40601
:102840007FF53DAE00221A601B680493049B46F09E
:10285000100634E6534AD2F8042315077FF52AAE52
:1028600000221A601B680493049B46F0080621E6C8
:102870004C4AD2F8042357077FF517AE00221A609E
:102880001B680493049B46F004060EE6454AD2F802
:10289000042392077FF504AE00221A601B6804939C
:1028A000049B46F00206FBE53E49D1F8046316F0AE
:1028B00001063FF4F0AD136013680493049BEAE54E
:1028C00003297FF41CAF4FF40032DEF8003723F405
:1028D0004033CEF80037DEF800371343CEF8003728
:1028E000B9F1000F01D047460CE74FF0A043019A21
:1028F000D3F8103593427FF4F9AE07B0BDE8F08FFE
:1029000003297FF424AF4FF40037DCF8003723F4B9
:102910004033CCF80037DCF800373B43CCF80037C5
:102920004746C84613E703297FF406AF4FF4003744
:10293000DCF8003723F44033CCF80037DCF80037FC
:102940003B43CCF800374746C846D146F4E6032956
:1029500006D0CA461F464FF002094FF00108DFE6D5
:102960004FF40037DEF8003723F44033CEF8003759
:10297000DEF800373B43CEF800374FF0040A4FF043
:1029800003094FF002080127CAE64FF440329CE7E2
:102990004FF44037CCE74FF44037B6E74FF44037B9
:1029A000E0E700BF006000402DE9F041724B1A687B
:1029B00088B0002A3CD1714F97F82B30002B45D1BD
:1029C0006F4B1A68002A6DD16E4B1C68002C7AD1AF
:1029D0003E699EB14FF000480125B6FA86F2930099
:1029E00003F58C7303F1804101F5E04128FA02F20E
:1029F000086826EA020620B9002EEED108B0BDE82C
:102A0000F081A3F58C730C6083F0040209680491D3
:102A1000C2F38002DB088DF819208DF818308DF88C
:102A200014503B68049A05A89847002ED5D1E5E7D5
:102A30000022524F1A60196897F82B3000910099C4
:102A4000002B4AD097F82C30002B5ED14E4B1A68E1
:102A5000002AB5D000221A601968FB8A01910199F9
:102A6000002B60D097F82A0084B2A34271D93A892A
:102A70007968464D1B1B9BB292B2D21A01EB4202FF
:102A8000FB82C5F82C26C5F830063B4B404A002196
:102A900019601B680293012302991360384B1A686E
:102AA000002A91D000221A6008A81B680393022113
:102AB00000F80C1D3B68039987F829209847314B93
:102AC0001C68002C84D000221A601B680593059BAB
:102AD00087F8292008B0BDE8F081FA68786839895C
:102AE0008DF814300690ADF81C10002A2DD027491F
:102AF000B88A7A600122FB6038810A603B6805A8C9
:102B00009847002387F82C3056E7FB6878683989A6
:102B10008DF814200690ADF81C10B3B1B98A7B6013
:102B2000FA603981EAE73B8997F82A403A8979685F
:102B300016481B1B9BB292B2D21A01EB4202FB82D7
:102B4000C0F82C26C0F830469FE7002387F82930CC
:102B5000D4E79AD1FB684BB10C49FA82012287F87D
:102B60002C20C1F82C36C1F830068EE70122FB82FA
:102B700087F82C2089E700BF047100404C24002016
:102B8000107100401471004000710040007000405E
:102B90000470004070B5214C94F8283082B013B115
:102BA000082002B070BD002933D0002833D003784C
:102BB0001B4D2160C5F8F03543781A4AC5F8F43545
:102BC0006FF000410023C678C5F80813136012683F
:102BD0000192817884F82B6007200126019A84F8FD
:102BE000293084F82A30236184F82C3084F8286056
:102BF000FFF7A6FA94F82B300222C5F804230BB194
:102C0000C5F80463064B01220020C3F8002502B07A
:102C100070BD0720C5E704480123C9E74C24002004
:102C2000007000400471004068B30200154B93F837
:102C300029200AB11120704770B500F10C0213F879
:102C4000124024B993F82A40013483F82A400D46F3
:102C500003EB42010446EE79287A03F812604870CB
:102C60002946204600F004FA200100F1804303F5D4
:102C7000E043EA79297AC3F81415C3F81025002037
:102C800070BD00BF4C240020F0B42D4B2D4A93F8AA
:102C900029401225022C82B0C2F808531CD0012C06
:102CA00020D093F82B405860022701250026C2F857
:102CB000047383F829501981DE60E4B9224BC2F80D
:102CC0002C06C2F830161C601B680193019B15602E
:102CD000204602B0F0BC70471120C2F8045302B085
:102CE000F0BC7047DC688CB102231120C2F80433B9
:102CF00002B0F0BC704793F82A40C2F82C06304668
:102D0000D982C2F8304602B0F0BC704793F82B204D
:102D1000D86099826AB90C4A1368002BFCD0002352
:102D200013601268074B0092009AC3F82C06C3F890
:102D30003016044B0222C3F804230020C9E700BF69
:102D40004C2400200070004000710040084A92F8B6
:102D50002930012B01D00820704792F82B0010B9C0
:102D6000044A13607047044A00201360704700BF94
:102D70004C240020047000400070004070B5A54C49
:102D8000237F8EB0002B73D1A34AD2F80413890598
:102D900046D4A14BD3F80423520704D5D3F8082115
:102DA000002A40F0C9809C4BD3F81C21BAB1A28AFA
:102DB000A17D92B28A424FF00002C3F81C2180F03C
:102DC000A880D3F81C210692069AA18AA28AA0683C
:102DD00089B20132415C92B2A282C3F81C158E4BBB
:102DE000D3F84421D2B10022C3F84421D3F84411CE
:102DF000A27E04910499002A40F08880E37D6BB1A3
:102E00000023617EE268E37501238DF830108DF8B0
:102E100028300B9294E80A000AA898470EB070BDBB
:102E2000D2F824110029B4D0C2F82431D2F82411E8
:102E3000A37E07914FF401710798C2F808130BB9EC
:102E400001235360744A02238DF82830D2F880346D
:102E5000C2F88034E07DE2680D9300238DF83000E5
:102E6000E375237621680B9263680AA898479AE76E
:102E7000694BD3F82421002A40F09280D3F8101136
:102E800061B1C3F81021D3F8101103910399D3F85D
:102E90003C15E07DC9B2884200F0A4805E4BD3F8B7
:102EA0004421B2B10022C3F84421D3F84401E17DAA
:102EB0000190019869B1D3F83C35E1688DF8303064
:102EC00001230B918DF82830E27594E80A000AA8D6
:102ED0009847514BD3F82021002A9FD00022C3F8F5
:102EE0002021D3F82001A17D00900098002995D0E1
:102EF000D3F84C15A3688DF830100B938DF828206B
:102F0000A27594E80A000AA8984787E701221A6088
:102F100074E7D3F81C310593059B00293FF45FAF9C
:102F2000A3688DF830100B938DF82820A27594E8D3
:102F30000A000AA8984752E7E27D002A6ED00022D4
:102F4000C3F80821D3F808210892089AE168627E44
:102F5000D3F818358B54637EE27D0133DBB26376A0
:102F6000637E93427FF41FAF237E002B6CD1A37E40
:102F700013B9294B01225A60274AE06863684FF46D
:102F80000171C2F80813627E8DF8302000250122FD
:102F90000B902168E5758DF828200AA8984702E76C
:102FA0000022C3F82421D3F82411029102218DF8C4
:102FB00028100299D3F88014C3F880140D91D3F827
:102FC0003C15E368E27522768DF830100B9321688A
:102FD00063680AA89847104BD3F84421002A3FF4AD
:102FE00078AF5FE7217E11B3D3F80062E568E17541
:102FF00026F02006C3F8006226698DF83000012310
:103000008DF82830227621680B95E66063680AA85F
:10301000984743E77C24002000200040C3F80821A3
:10302000D3F8081109910999D3F8183598E7E2689F
:10303000E17501238DF830008DF828300B9294E86B
:103040000A000AA8984729E7607EE5682169E375C8
:10305000012200238DF83000E160237663760B9522
:103060008DF8282094E80A000AA898479BE600BF3C
:10307000F0B44B788C780F78CA780E794D791B01B3
:10308000240204F4E06403F030032343120307F046
:103090000304234302F480528C793604134306F46C
:1030A000E02602012D05334305F48015240602F1C4
:1030B000804202F5E0422B4304F080742343C2F8BF
:1030C00018351046CB790A7AC0F81425C0F81035A7
:1030D000F0BC70470220FEF75FBF00BF2DE9F0474C
:1030E0000D460646FEF796FF03281ED8012D04461E
:1030F0001FD00ED3022D1AD11D4B00EB40041C44EF
:10310000657895B11B4B1B687BB12846BDE8F0473D
:1031100018471948FDF700F8154B184A04EB44010D
:103120000B44125D9D78AA42EBD0BDE8F087BDE864
:10313000F0870F4F4FEA400808EB0003FA18FD5CD8
:1031400053782BB9A04447440C4BBA781A55D8E7AA
:103150000B4BDFF830901968074801EB81014900FB
:103160004A46FCF781FF0028ECD189F80060E9E7C6
:10317000E424002018250020C4240020202500205D
:10318000C02400209C2400207F4B1B68DB0700D458
:10319000704770B57D4E7E4D33782C789BB9172CD7
:1031A00010D8DFE804F0666B6B879CB0C2AA2415C8
:1031B000241582313131313151565ECF0C0CFEF77E
:1031C000D5FE2C7070BD00233370FEF7B9FEE6E724
:1031D000012318463370FEF7DFFE6E4B6E48196808
:1031E000002201EB8101BDE87040FCF73DBF0123E7
:1031F00018463370FEF7D0FE664B67481968002208
:10320000BDE87040FCF730BF6448FCF785FFD4F19F
:103210001104024600F0A180002840F09E80012C9D
:103220000DD0C8235E4D5B495C48096803FB04F37D
:10323000A5FB03435B0901FB03F1FCF715FF02202B
:10324000BDE87040FEF764BEFEF77AFE12232B70D5
:1032500070BDFEF775FE0020FEF75AFE13232B709B
:1032600070BDFEF76DFE0120FEF752FE14232B7099
:1032700070BDFEF765FE00232B7070BD0020FEF7C9
:1032800039FE002879D00020FEF74EFE022C14BF34
:10329000282312233F4A2C7011683F4801FB03F199
:1032A0000022BDE87040FCF7DFBEFEF75FFE0C2396
:1032B0002B7070BD0020FEF71DFE002856D00020A8
:1032C000FEF732FE0822334B3348196803232B7074
:1032D00001FB02F1BDE870400022FCF7C5BE0020F2
:1032E000FEF708FE00283DD00020FEF71DFE282234
:1032F000284B294819680423E9E70020FEF708FE57
:1033000007232B7070BD0020FEF7F4FD90B3002062
:10331000FEF70AFE1F4B2048196805232B70490051
:103320000022BDE87040FCF79FBE0020FEF734FE8F
:10333000184B1948196806232B700022BDE870400D
:10334000FCF792BEFEF7FCFD0020FEF7E1FD012038
:10335000FEF7DEFD15232B7070BD0220BDE8704026
:10336000FEF7E2BDFEF7D4FD0422C1E7FEF7D0FD73
:103370000222A8E7FEF7CCFDCCE7FEF7C9FD022C40
:1033800014BF0423022385E7F0240020F424002046
:103390001C250020C0240020F8240020A0240020A8
:1033A0001F85EB5110B50078FEF734FE03280BD8CB
:1033B000064B00EB40001844407828B1044B1B68D2
:1033C00013B1BDE81040184710BD00BFE424002031
:1033D00018250020FEF710BE904B1A6812F001026B
:1033E00001D11046704730B58D4D2B7883B004461F
:1033F000E3B9172C00F20F81DFE814F0DB00E100E5
:10340000E100540068007C008E003F002D001D008C
:103410002D001D009900A000A000A000A000A000A9
:10342000C000C700D10047003700370000232B70D1
:10343000FEF786FDDDE7012318462B70FEF7ACFD95
:10344000784B79481968002201EB810103B0BDE88F
:103450003040FCF709BE012318462B70FEF79CFD97
:10346000704B714819680022F0E7FEF77FFD6F4B43
:1034700000221C70104603B030BD0020FEF748FD4E
:103480006A4B07221A700022F4E7FEF759FD00206C
:10349000FEF73EFD0120FEF73BFD644B15221A703E
:1034A0000022E7E70020FEF725FD002800F0AF80AE
:1034B0000020FEF739FD08225A495C4B09685A483A
:1034C000032401FB02F11C700022BFE70020FEF77D
:1034D00011FD002800F094800020FEF725FD282231
:1034E0005049524B09685048042401FB02F11C70FA
:1034F0000022ABE70020FEF7FDFC002800F08480EE
:103500000020FEF711FD474A484B11684648052444
:10351000490000221C7099E70020FEF73DFD414A5A
:10352000424B11684048062400221C708EE7FEF7CB
:103530001DFD3E4B0C221A7000229BE73C48FCF715
:10354000EBFDD4F1110402464DD000284BD1012CE3
:103550000ED0C823374D33493548096803FB04F3BF
:10356000A5FB03435B0901FB03F1FCF77DFD02466C
:1035700002200192FEF7CCFC019A7BE7FEF7E0FC0B
:103580002A4B12221A70002274E7FEF7D9FC0020A1
:10359000FEF7BEFC254B13221A7000226AE7FEF7E5
:1035A000CFFC0120FEF7B4FC204B14221A7000223D
:1035B00060E7FEF7C5FC1D4B00221A705AE7002099
:1035C000FEF798FCA8B10020FEF7AEFC022C14BF59
:1035D000282312231349154A09681470124801FB65
:1035E00003F1002232E702200192FEF79DFC019ACE
:1035F00040E7FEF78DFC022C14BF04230223E9E709
:10360000FEF786FC04226BE7FEF782FC7BE7FEF701
:103610007FFC022250E700222CE700BFF0240020AC
:10362000F4240020C0240020F82400201C250020C1
:10363000A02400201F85EB51F0B5214D214E224BD7
:103640002860044610F0020083B031601A6012D086
:103650001E4B1F484A080F270E21102611251970EE
:10366000DF7004219E715D72FCF700F8A0B1E307E2
:103670001DD403B0F0BDE20719D4164A1648002144
:10368000FCF7E0FC0028F4D1144A1548012103B0EE
:10369000BDE8F040FCF7D6BCFCF742F80028E6D1C4
:1036A0000146104A1048FCF7CDFCE10703D5019014
:1036B000FEF784FC01980028DFD003B0F0BD00BF06
:1036C000F0240020C024002018250020E42400203D
:1036D0006CB302008931020094B30200D5300200BD
:1036E0008CB30200A533020090B30200032801D975
:1036F00007207047012A12D0012917D008D30229C8
:10370000F6D10D4B00EB4000034400205A70704787
:10371000094B00EB4000034400209A7070470129D8
:1037200001D00022E8E700F10E02D2B200EB400324
:1037300001490020CA547047E424002008B5FEF770
:103740007BFC800000F1A0430020D3F8002722F486
:103750004032C3F80027D3F8002742F44032C3F8C0
:10376000002708BD08B50020FFF7E8FF10B10628C4
:1037700000D008BD0120FFF7E1FF0028F9D006289E
:1037800008BF002008BD00BF10B50388102B08D06B
:10379000112B05D1264B18680138186038B110BDBF
:1037A00010BD234C216881B10131216010BD01227F
:1037B0000221FFF79BFF48B3072827D01D4B1B684A
:1037C000002BECD0BDE81040184701220846FFF757
:1037D0008DFF48B1072807D0164B1B6803B19847E7
:1037E00021680131216010BD072202210120FFF76D
:1037F0007DFF08B10728EFD1042202210020FFF746
:1038000075FF0028ECD00728E6D1E9E7072202215E
:103810000120FFF76BFF08B10728CFD10021084630
:103820000A22FFF763FF0028B9D00728C6D110BDD0
:103830002825002024250020194B10B5186031B12F
:1038400001200C46FFF7C6FD30B102232370154B53
:10385000186848B1002010BDFFF7BCFDE8B9114B56
:10386000207018680028F5D101220221FFF73EFFE1
:1038700008B10728EFD1072202210120FFF736FF08
:1038800008B10728E7D1002108460A22FFF72EFFDA
:103890000028DFD00728DED1DCE70B232370D6E732
:1038A000242500202825002076DF704777DF704729
:1038B00078DF70477ADF70477CDF7047A8DF70479A
:1038C000ADDF704767DF704732DF70473EDF70471C
:1038D000FBF73CBF08B5FFF739FA00B908BDBDE8F2
:1038E0000840FBF733BF00BF10B50446FDF7B8FF33
:1038F0002046BDE8104001F08BBB00BF10B5044668
:1039000084B001F0D7FC204605F0D6FC21463D48A6
:1039100001F056FF204601F071FC21463A4807F0BD
:103920006BF92146394807F0A3FA2146384807F0D9
:1039300011F82146374807F051FA2146364807F07A
:1039400055FB2046FFF720FF23883B2B24D010D9BE
:10395000552B4DD0562B1FD0512B05D1A3791BB120
:10396000A27B043A022A28D9204601F0F1FA04B0D9
:1039700010BD102B31D0112B19D0022BF4D1002106
:10398000A088FFF79FFF0028EED0FBF7DFFE204660
:1039900001F0DEFA04B010BD1321A088FFF784FF08
:1039A0000028F2D1204601F0D3FA04B010BD002067
:1039B000FFF712FD0028D7D0E7E7022B18BF01233D
:1039C0004FF4C1726946A0888DF80030ADF804202C
:1039D000FFF774FF0028C7D0D7E70720FFF7FCFCEC
:1039E00068B9A188074801F0B7FE0028BCD0CCE731
:1039F0001721A088FFF764FF0028B5D0C5E7FBF7C3
:103A0000A5FEEEE760260020C0280020EC2800205C
:103A100028260020D0280020002900200146014847
:103A200007F080B9D0280020037803B1704710B5A3
:103A3000436801211846B3F90040FFF725F9002833
:103A400043D104EB8404C4EB0414E40048BF04F243
:103A5000FF34A31203EB43035B0003F587739BB2B0
:103A600040F6B732934213D964212E4807F07CF810
:103A700030F008020BD043F20402904207D043F228
:103A80000142904203D0BDE81040FBF75FBE10BD7D
:103A900040F6543293421BD840F6B4218B4227D8CB
:103AA00040F68812934230D840F634018B4236D922
:103AB000D31AA3EB83031C4A5B0082FB0312D917C2
:103AC000C1EBE2110631C9B2CFE7FBF73FFEB8E721
:103AD000C3F53B636FF039020833144902FB03F36B
:103AE00081FB0321DB17C3EB61116431C9B2BCE771
:103AF000D31AA3EB83030E4ADB0082FB0312D91710
:103B0000C1EBA2112A31C9B2AFE7084ACB1A82FB36
:103B10000312D917A1EBE2011231C9B2A5E70021C6
:103B2000A3E700BF28260020616060601F85EB517D
:103B30006766666608B50B7803B108BD4B78012B44
:103B40000CD002D3022B0FD008BD1120FFF744FC8C
:103B50000028F2D0BDE80840FBF7F8BD0D20FFF7C4
:103B60003BFC0028E9D0F5E71020FFF735FC0028E2
:103B7000E3D0EFE7043810B50B280FD8DFE800F0EA
:103B8000060E0E0E0E0E2F0E0E0E180F224B1321C8
:103B90001889FFF789FE30F0080305D110BD112008
:103BA000FFF71AFC0028F9D0BDE81040FBF7CEBDA6
:103BB0001A4B1B78002BF1D0194C23780BBB022138
:103BC000154807F023F908B343F204039842E5D0FF
:103BD00043F201439842E1D00528E5D1DEE7002019
:103BE000FFF7FAFB50B9FFF7BDFD20B9FFF76CFEF8
:103BF0000028D9D110BDFBF7A9FDF7E7FBF7A6FD1B
:103C0000F1E70021044807F001F9DCE7237883F0AD
:103C10000103237010BD00BFD0280020E928002038
:103C2000E828002008B50A783AB1012A04D10848EA
:103C3000FCF772FA40B908BD08BD4FF47011044892
:103C4000FCF712FA0028F6D0BDE80840FBF77EBD6D
:103C50004026002008B50B7833B1022B03D1084B66
:103C600000221A7008BD08BD8A890648498807F0F5
:103C7000F1F808B1FBF76AFD014B01221A7008BD8B
:103C8000E9280020D0280020FBF760BD00B50378AC
:103C9000043B83B00A2B0DD8DFE803F027150F0C87
:103CA000230C0F060F0C1E00032001F031F908B1A0
:103CB000FBF74CFD03B05DF804FB80680028F7D1EA
:103CC00003B05DF804FBFDF7A1FB0E280346F1D01D
:103CD00033F00803EED0EBE705F070FB03B05DF8BE
:103CE00004FB00690028E5D0E2E702A9002301F8FF
:103CF000043D408805F060FB03B05DF804FB00BFA5
:103D000008B530B1032803D10220FFF765FB50B995
:103D100008BDFFF761FB50B9FFF724FD50B9FFF76D
:103D2000D3FD0028F4D0BDE80840FBF70FBDFBF73A
:103D30000DFDF1E7FBF70AFDF1E700BF08B50B78D1
:103D400003B108BD4B78012B0CD002D3022B0FD04E
:103D500008BD1120FFF740FB0028F2D0BDE8084065
:103D6000FBF7F4BC0D20FFF737FB0028E9D0F5E79F
:103D70001020FFF731FB0028E3D0EFE7F0B5002378
:103D80009BB01846BB4A0721FCF77CF808B1FBF74B
:103D9000DDFCB94AB9480121FCF754F908B1FBF739
:103DA000D5FCB74A40F6CD410320FFF745FC08B1EA
:103DB000FBF7CCFC0BA90020FFF73EFD08B1FBF799
:103DC000C5FCB04BB0491A689DF82C501AAC0023C2
:103DD00044F85C2D5022204607F0E8F908B1FBF7C3
:103DE000B5FC0BAA0121002007F056FA08B1FBF739
:103DF000ADFC17230BA8ADF83C3007F065FA08B10D
:103E0000FBF7A4FCA14807F01BFA08B1FBF79EFCE6
:103E10009F4807F01FFA08B1FBF798FC9D49002066
:103E2000FEF7B8FE08B1FBF791FC9B4B93E8070047
:103E30000BAB03C30BA900201A70FEF7F7FE08B105
:103E4000FBF784FC01219548FEF71EFF08B1FBF744
:103E50007DFC01219248FEF717FF08B1FBF776FCC5
:103E600005F03CFA08B1FBF771FC022D00F08681E9
:103E7000052200210BA8FBF76BFB9DF82C309DF869
:103E80002F109DF8302043F00103032003F0F103CD
:103E900060F30613014302436FF3C713072610258F
:103EA0000BA88DF82C308DF82F108DF830208DF860
:103EB0002D608DF82E5005F075FA08B1FBF746FC21
:103EC000784805F053FA08B1FBF740FC9DF80C3038
:103ED0007548012262F3030362F307138DF80C3077
:103EE00007F01CFA704982B22046FFF7E5FC08B1E2
:103EF000FBF72CFC4FF41070FFF7DAFC08B1FBF76E
:103F000025FC082200210BA8FBF722FB674B0B9333
:103F10000BA84FF0C8730C93FFF7CCFC08B1FBF76C
:103F200015FC6FF00700FFF7C1FC08B1FBF70EFCB2
:103F30003C2200210BA8FBF70BFB022205205C4B67
:103F40008DF82C2001250426202200218DF82F0039
:103F50002046ADF83C6010938DF82E50FBF7F8FA30
:103F6000002122462826B4240091524B8DF80F5090
:103F70000BA80796089400F00FFF08B1FBF7E6FBCB
:103F80004D4801F06BFB08B1FBF7E0FB0322002179
:103F90000BA8FBF7DDFA9DF82D309DF82E20474841
:103FA000012161F3030302F0F002022161F3071320
:103FB0006FF30712F8240BA98DF82D308DF82E2001
:103FC0008DF82C4007F018F808B1FBF7BFFB002173
:103FD00004220BA8FBF7BCFA394B3A480B930BA908
:103FE00006F028FE08B1FBF7B1FB0C2200210BA85C
:103FF000FBF7AEFA9DF835209DF8363032490B912B
:10400000012161F3030261F30303022161F307124B
:1040100061F307132D4C2E488DF8352000250BA990
:104020008DF836300C948DF8345006F063FF08B1EB
:10403000FBF78CFB142200210BA8FBF789FA9DF8F3
:1040400039109DF83A00234B9DF83C209DF83B50D9
:104050000B93012363F3030163F30300002663F36F
:10406000071163F3071063F3030205F0F00563F330
:10407000071231E02C250020D5380200A8B3020039
:10408000753B020098B30200D4250020FD380200E1
:10409000E9380200293A02009CB3020024260020DD
:1040A000262600208D3C0200ACB3020090012003C4
:1040B00088210020013D02001D3A02000029002055
:1040C000353B0200C02800203D3D0200893C020033
:1040D000EC280020253C020066F307158DF8391006
:1040E00064278DF83A000BA928488DF830308DF8F8
:1040F0003C208DF83B500D968DF8387006F05AFC38
:1041000008B1FBF723FB082200210BA8FBF720FADC
:104110001F4A204B0C9420480B9300240BA91470C9
:1041200006F042FE08B1FBF711FB1C2200210BA890
:10413000FBF70EFA4FF4203600234FF470250324CA
:104140000121164A0B930BA8ADF83A3010930C9648
:104150000D958DF838408DF83C10119201F014F84F
:1041600008B1FBF7F3FA032000F0D2FE18B9FFF70D
:10417000ADFB0028FBD0FBF7E9FAF8E705F026F9DC
:1041800000283FF475AEFBF7E1FA71E6282600201F
:10419000E8280020553C0200D0280020D138020039
:1041A0006DDF704772DF704779DF70477DDF7047E2
:1041B00065DF70472DE9F04F85B00488DDF8388061
:1041C000BDF83CA0B8F800500195002C57D0994696
:1041D000002317468B4605461C4603E02A88013417
:1041E000A24228DD6A6852F82400039000220DF1F3
:1041F0000B0103A8FFF7DCFF064630BB9DF80B2040
:10420000BA42EBD12BB3B8F80020D31953451BDCCD
:104210004A440DF10B0103A80123FFF7C9FF98BB26
:10422000B8F800109DF80B200A44A8F800202A884E
:104230000134A242D6DC13B3B8F80030019A013B36
:104240009B1A9BB2FF2B17D90C26304605B0BDE850
:10425000F08FB8F800305A1C3B440233534592B2F9
:10426000F2DCA8F8002009F802B0B8F8002001320A
:1042700092B2A8F80020CBE709F80230E5E7002663
:10428000304605B0BDE8F08F0646304605B0BDE8C3
:10429000F08F00BF2DE9F04700231788138090F8B6
:1042A0002D3084B0144605460E46002B49D1AA781D
:1042B000002A70D1EA78002A2ED16A68A2B1D91CEE
:1042C000B94225D8022192F90020F1542388013304
:1042D0009BB20A212380F154238801339BB22380AF
:1042E000F2542388013323802B89002B40F02A814C
:1042F0002B8A002B40F03F812B8B002B40F0548108
:104300002A6A002A00F0A78021888B1DBB4262D94F
:104310000C2004B0BDE8F087D91CB942F8D80221BE
:10432000F154238801339BB201212380F154238867
:104330000B449BB22380F25423880B449BB223800E
:10434000BBE7082FE4D902A8FFF72AFF0028E0D135
:1043500013880822CA54238801339BB21B2223806E
:10436000CA542088013080B22080062208440DF112
:10437000090106F0C8FF23889DF8082006339BB288
:1043800012F0FE0218BF01222380F2542388013369
:104390009BB223808BE70433BB42B9D802A8FFF756
:1043A00003FF0028B5D12388BDF808200321F1546C
:1043B000238801339BB219212380F15423880133D0
:1043C0009BB2F1182380F254120A4A7023880233F8
:1043D0009BB223806EE71388052B40F2AF806FF409
:1043E000486803EB080080B24FF27D3E704540F212
:1043F000A5805088052840F2A1806FF4486C844461
:104400001FFA8CFCF44540F299804FF6FF7E73450D
:1044100004D0704502D0834200F29080052373548B
:10442000238801339BB212212380F1542388013366
:104430009BB223801188F1543344090A59702388B0
:1044400002339BB223805288F2543344120A5A70CA
:10445000238802332380D5F82480B8F1000F30D0B0
:10446000B8F8041020888A1C831C1344BB423FF612
:104470004FAFFE2A3FF64CAF03313154238801334E
:104480009BB2FF222380F254238801339BB2238006
:10449000B8F80020F2543344120A5A7020880230CF
:1044A00080B22080B8F804205AB1D8F8081000294A
:1044B00044D0304406F027FFB8F804202388134482
:1044C000238095F82C30002B40F087802878002836
:1044D0003FF41FAF2B88012B30D023889A1CBA429F
:1044E0003FF616AF012805D16978023119448F4291
:1044F000FFF40EAF023FFB1A04A99BB221F8083D5E
:10450000B018FFF753FE00287FF403AF2A78022A81
:1045100000F0AF80012A00F0B4800821FE2B3FF6A6
:10452000F7AE22885D1CB5542288013292B22280F7
:10453000B1542288013213442380EAE6072004B0F4
:10454000BDE8F08705F1080802228DE8900040469A
:1045500011463346FFF72EFE00287FF4DAAE8DE8D1
:1045600090004046334610220621FFF723FE002824
:104570003FF4BEAECDE605F110088DE89000404650
:10458000334602220321FFF715FE00287FF4C1AE57
:104590008DE890004046334610220721FFF70AFEBF
:1045A00000283FF4A9AEB4E605F118088DE89000A4
:1045B0004046334602221421FFF7FCFD00287FF419
:1045C000A8AE8DE890004046334610221521FFF733
:1045D000F1FD00283FF494AE9BE6D5F82880B8F1B1
:1045E000000FABD0B8F804200232FE2A3FF690AE9E
:1045F00023884FF000094FF0160A0132F254238845
:1046000001339BB2238006F803A0238801339BB2B9
:104610002380B8F80020F2543344120A5A702388D9
:1046200002339BB22380B8F80410F0180A4661B137
:10463000D8F808301946002B80D006F064FEB8F890
:104640000420238813449BB2238009F1010995F8C3
:104650002C205FFA89F94A4509EB49087FF636AF05
:10466000AA6A02EB8808B8F804200232FE2AC4D9EC
:104670004EE6BDF808209342FFF44FAF13460921E0
:104680004CE76A789342FFF448AF1346082145E7A8
:104690002DE9F04395B01F230D46ADF80E300446CA
:1046A000002800F08480C27853077CD590F82D3024
:1046B0000021ADF80C10002B40F0DB8183780CAFAB
:1046C000002B40F017821946032014AE31445F1CC2
:1046D000023316FA87F74FF0020E16FA83F601F846
:1046E00040EC83B2012107F8401CADF80C3006F80D
:1046F000402C6668002E00F08C80D81C1F2874D9CE
:104700000C2015B0BDE8F083A76A002F4BD0BA8803
:104710000232FE2AF4D8BDF80C304FF0000804AE87
:104720004FF016091AE006F0EEFDBDF80C30BA881D
:1047300094F82C1013449BB2ADF80C3008F101082A
:104740005FFA88F8884508EB480280F0F080A76A95
:1047500007EB8207BA880232FE2AD1D80DF1500E3B
:104760009E44581C01320DF1500C0EF8402C1CFADE
:1047700080F09A1C92B200F8409CADF80C2038886A
:10478000B0543244000A50700433B7F804E09BB2CE
:104790007246F018ADF80C30BEF1000FCED0BB68F9
:1047A0001946002BBFD1072015B0BDE8F083ADF846
:1047B0000C00ADB1EB78002BF5D128460CA90DF11A
:1047C0000E02FFF767FD0028EED19DF80E300CAA0F
:1047D00020469DF80C10FFF7E5FC15B0BDE8F0830E
:1047E0002B46ADF80E502A46F2E714AF591C9A1C1E
:1047F00017FA81F13B4417FA82F296F90060ADF89E
:104800000C0002270A2003F8407C01F8400C02F853
:10481000406C2389002B40F08F80238A002B40F0CE
:10482000AB80238B002B40F0C780226A002A42D045
:10483000BDF80C30991D1F293FF662AF108805287E
:10484000B1D96FF4486C00EB0C06B6B24FF27D376D
:10485000BE42A8D95688052EA5D96FF4486EB64435
:104860001FFA8EFEBE459ED94FF6FF77B84203D0A1
:10487000BE4201D0B04296D814A8C7185E1C10FAE8
:1048800086F64FF0050E981C07F840EC80B2122710
:1048900006F8407CADF80C001788ADF80C1004AE9B
:1048A0003118375404333F0A4F709BB25288F25488
:1048B0001E44120A7270676AA7B3B888BDF80C303C
:1048C000811C9A1C56181F2E3FF61AAFFE293FF680
:1048D00017AF14AE1E44591C0DF1500E1EFA81F193
:1048E000033006F8400C92B2FF2001F8400CADF8FE
:1048F0000C20398804AEB018B154090A4170043351
:10490000BA8898B2ADF80C0062B1B96800293FF4DA
:104910004AAF304406F0F7FCBDF80C30BA881344B7
:10492000ADF80C3094F82C1000297FF4EDAE23780C
:10493000002B61D104AC3CE703A904F1080704AEE5
:104940004FF01F080222009138463346CDF804800C
:104950001146FFF72FFC00287FF426AF03AB00932E
:10496000CDF804803346384610220621FFF722FC9A
:1049700000283FF452AF17E703AA04F1100704AE72
:104980004FF01F08009238463346CDF804800222CB
:104990000321FFF70FFC00287FF406AF03AB009361
:1049A000CDF804803346384610220721FFF702FC79
:1049B00000283FF436AFF7E603AA04F1180704AE67
:1049C0004FF01F08009238463346CDF8048002228B
:1049D0001421FFF7EFFB00287FF4E6AE03AB009352
:1049E000CDF804803346384610221521FFF7E2FB4C
:1049F00000283FF41AAFD7E62288012A3FF4D3AE4D
:104A0000BDF80C20901C1F283FF67AAE012B04D174
:104A1000637803441F2B3FF673AEC2F11D0314A944
:104A20009BB204AE21F8203D3044FFF7BFFB0028C5
:104A30007FF4BAAE2278022A00F08680012A00F0C4
:104A40008B80ADF830300820FE2B3FF659AEBDF814
:104A50000C2014AC511CA71814FA81F102321A442C
:104A6000013307F8403C3446ADF80C2001F8400C07
:104A70009FE60CAF3846FFF793FB00287FF494AE17
:104A8000BDF80C3014A903F1010E9A1C11FA8EFE28
:104A90000B4492B204AEB01808211B2603F8401C48
:104AA000ADF80C200DF1310106220EF8406C06F035
:104AB0002AFCBDF80C209DF83010931D11F0FE016A
:104AC0009BB23BD114A8034403F8401CD31DA27829
:104AD0009BB2ADF80C304AB9E278002A3FF409AE37
:104AE000D81C1F2819463FF60BAEEEE504331F2BEA
:104AF0003FF606AE3846FFF757FB00287FF454AE6A
:104B0000BDF80C30BDF83010E278581C14AE16FA1F
:104B100080F01E449F1C4FF0030E06F840ECBFB21D
:104B200004AE4FF0190E00F840EC0433F019F155C3
:104B30009BB2090AADF80C304170CEE714A90B44C2
:104B4000012103F8401CC1E7BDF830209342FFF477
:104B500078AF1346092077E762789342FFF471AF8C
:104B6000ADF83020134608206EE700BF73DF7047B2
:104B7000F0B57F4D7F4E85B00746072200217E4865
:104B8000FAF7E6FC2B6823F07F4323F0FF0313B111
:104B90003378012B20D0AB78DBB9774C6378002BCE
:104BA00065D1A378002B62D1E378002B5FD1237904
:104BB000002B5CD16379002B59D1A3791A1C18BF43
:104BC00001227B1E032B00F2CF80DFE803F01048A8
:104BD00015313378022BE0D1684B694A1B68002BF2
:104BE00000F0B4800121082011709847D5E76B7858
:104BF000002B34D0002A38D1EB78CBB15F4B1B6847
:104C000003223270E3B95F4B00221A70102268460B
:104C10000021FAF79DFC337800228DF800208DF8F2
:104C20000820042B45D8DFE803F08D836947240072
:104C30002F79D7B1514B1B6804223270002BE2D080
:104C40002A78002ADFD0504A1278002ADBD14F4858
:104C50004C490270012207200A709847D6E7AB78CA
:104C6000002BC9D0002AC7D002273770CBE701221A
:104C7000A7E72B78A969EA69ADF80A10ADF80C200E
:104C8000002B65D0404B1978002961D13F4B1B7830
:104C9000002B5DD03E4B042402221846DC708DF8B8
:104CA0000820FFF7F5FC00285AD13A4A337806214C
:104CB0001170002B33D02EE02B7829696A69ADF88A
:104CC0000A10ADF80C20002B46D02F4B1978002984
:104CD00042D12E4B1B78002B3ED02D4B04240222B8
:104CE0001846DC708DF80820FFF7D2FC002837D179
:104CF000284A3378052111708BB10CE02548EA6809
:104D0000AB6801940121022404708DF80010ADF805
:104D10000C20ADF80A306846FFF728FF30B9174B72
:104D20001B6813B11B4A10789847002005B0F0BDEE
:104D300018490194012300220B708DF80030CDF842
:104D40000A20E8E7134B00221A70E8E7137024E703
:104D5000104B04221A70DEE70E4B03221A70DAE7BA
:104D60003378002BDBD0D6E7002737704BE700BF46
:104D7000102900200D290020AC29002074290020D2
:104D8000A8290020E5290020E6290020E4290020A8
:104D9000302900200C2900202DE9F84FDDF828E00B
:104DA000002800F09880002A00F0958014460546FF
