:020000040001F9
:10B00000484600208DB2010095B2010097B20100C0
:10B0100099B201009BB201009DB201000000000046
:10B020000000000000000000000000009FB20100CE
:10B03000A1B2010000000000A3B20100A5B201000E
:10B04000A7B20100A7B2010021B90100A7B2010017
:10B05000A7B20100A7B2010039B30100C5B40100D5
:10B06000A7B20100A7B20100A7B20100A7B2010078
:10B07000A7B20100A7B20100A7B20100A7B2010068
:10B08000A7B20100A1B40100A7B20100A7B201005C
:10B090002DB60100A7B2010031B60100A7B2010030
:10B0A000A7B20100A7B20100A7B20100A7B2010038
:10B0B000A7B20100A7B201000000000000000000DC
:10B0C000A7B20100A7B20100A7B20100A7B2010018
:10B0D000A7B20100A7B20100A7B201000000000062
:10B0E0000000000000000000000000000000000060
:10B0F0000000000000000000000000000000000050
:10B10000000000000000000000000000000000003F
:10B11000000000000000000000000000000000002F
:10B12000000000000000000000000000000000001F
:10B13000000000000000000000000000000000000F
:10B1400000000000000000000000000000000000FF
:10B1500000000000000000000000000000000000EF
:10B1600000000000000000000000000000000000DF
:10B1700000000000000000000000000000000000CF
:10B1800000000000000000000000000000000000BF
:10B1900000000000000000000000000000000000AF
:10B1A000000000000000000000000000000000009F
:10B1B000000000000000000000000000000000008F
:10B1C000000000000000000000000000000000007F
:10B1D000000000000000000000000000000000006F
:10B1E000000000000000000000000000000000005F
:10B1F000000000000000000000000000000000004F
:10B20000DFF80CD000F086F80048004701E40100A8
:10B2100048460020401E00BF00BF00BF00BF00BF67
:10B2200000BF00BF00BF00BF00BF00BF00BF00BF26
:10B2300000BF00BF00BF00BF00BF00BF00BF00BF16
:10B2400000BF00BF00BF00BF00BF00BF00BF00BF06
:10B2500000BF00BF00BF00BF00BF00BF00BF00BFF6
:10B2600000BF00BF00BF00BF00BF00BF00BF00BFE6
:10B2700000BF00BF00BF00BF00BF00BF00BF00BFD6
:10B2800000BF00BF00BFC5D170470000064880471F
:10B2900006480047FEE7FEE7FEE7FEE7FEE7FEE7BB
:10B2A000FEE7FEE7FEE7FEE755B6010001B201004A
:10B2B00040EA01039B0703D009E008C9121F08C038
:10B2C000042AFAD203E011F8013B00F8013B521EB8
:10B2D000F9D27047D2B201E000F8012B491EFBD22F
:10B2E00070470022F6E710B513460A460446194691
:10B2F000FFF7F0FF204610BD30B50446002003469E
:10B3000000E05B1C934203D2E05CCD5C401BF8D0B4
:10B3100030BD0000064C074D06E0E06840F0010338
:10B3200094E8070098471034AC42F6D3FFF76CFF5F
:10B330003CFD01005CFD01002DE9F0470025DFF830
:10B34000F090A8464FF4807601242F46304603F053
:10B3500077FB38B1D9F80403204203D0304603F01C
:10B3600065FB2543361D64007F1CB6B2082FEDD364
:10B370004FF4BE74204603F063FB38B1204603F05F
:10B3800055FB2C4845F00045D0F800802A4E15F0BA
:10B39000FF0F14D0012700242F420CD009EB8401A9
:10B3A000D1F81005D1F81015C0F3042056F8242068
:10B3B000C1F3014190477F00641C082CECD3002DA1
:10B3C00032DA0024B14609EB04004E4690F95010E1
:10B3D000491C26D090F8507027F0C005284601F08F
:10B3E000AFFD56F82060E6B1BF090120A840A900D2
:10B3F00001F1A041D1F8001710EA080FC1F3014193
:10B4000002D0022902D00CE003290AD1032F05D172
:10B4100002290BD00221284603F0F9FA39462846C2
:10B42000B047641C042CCED3BDE8F0870321F2E7BB
:10B4300000600040100500508025002000F01F0231
:10B44000012191404009800000F1E020C0F8801205
:10B45000704700F01F02012191404009800000F177
:10B46000E020C0F80011704700F01F020121914058
:10B470004009800000F1E020C0F800127047490741
:10B48000090E002806DA00F00F0000F1E02080F835
:10B49000141D704700F1E02080F800147047000090
:10B4A00007480021C0F84011C0F84411C0F8481105
:10B4B000C0F84C11C0F80011C0F8041104F066B9CE
:10B4C000001001402DE9FE434FF4827003F002FBAF
:10B4D0000025DFF84C91534C012700286ED05248CC
:10B4E0004E46056094F82A00012818D06089401C57
:10B4F000608160892189814223D18DF80050606884
:10B5000001902089ADF8080084F82750E06810B158
:10B51000A18A03F075F92168684688474EE08DF8E6
:10B520000050606801902089ADF80800E06828B1FB
:10B530006060A08A2081E5603760ECE784F82750DE
:10B54000E9E7002294F82900114603F0B9FA61896D
:10B55000606800EB4100012103F07AFA94F82900B9
:10B5600011E000BF04EB4001897D61B1C1B204EB81
:10B570004101CA7D897D03F0A3FA37602848001D88
:10B580000760BDE8FE83401C84F82900C0B208288B
:10B59000E8D3002004EB4001897D11B184F8290033
:10B5A00003E0401CC0B20828F4D394F8290004EB4F
:10B5B0004001CA7D897D03F083FA37604FF48A70B9
:10B5C00003F088FA28B118481030056084F8275035
:10B5D000D7E7A04626691FE0B6FA86F04FF0004193
:10B5E000C1408E434FF48C7101EB8004204603F080
:10B5F00071FA88B144F80950A4F58C74E0088DF80C
:10B60000040044F38000401C8DF800708DF80500A4
:10B61000D8F8001068468847002EDDD1B1E7000059
:10B6200000700040D82500200471004004F04AB8A2
:10B63000074810B5406830B18047002807D0BDE802
:10B64000104000F095BCBDE8104002F073BD10BD85
:10B65000B81F0020F0B5A3480023021D0178012582
:10B66000101D4FF0805406290BD11678360708D1EB
:10B670000678C6F30316032E06D0042E04D0052E3A
:10B6800002D0062907D00EE0B4F82463964FC6F323
:10B6900004263E6002E01678360704D10678C6F329
:10B6A0000316032E02D0062904D00FE0904F8F4ED0
:10B6B0007E670EE01678360708D10678C6F30316C3
:10B6C000032E06D0042E04D0052E02D0062907D062
:10B6D0000EE0D4F84462874FC6F342363E6002E083
:10B6E0001678360704D10678C6F30316032E02D067
:10B6F000062906D011E0804E376827F08077376042
:10B700000EE01678360708D10678C6F30316032E26
:10B7100006D0042E04D0052E02D006290AD011E04E
:10B720004FF08046C6F80C31C6F81031714E361F06
:10B73000336002E01678360704D10678C6F30316A4
:10B74000032E02D0062905D00CE06A4F0326643789
:10B750003E600AE01678360704D10678C6F3031671
:10B76000032E02D006290DD014E0644F05263E605A
:10B77000624E78363560614E083633603F263F1D95
:10B780003E6002E01678360704D10678C6F3031649
:10B79000052E02D0062957D068E059490968594A50
:10B7A00011605749091D0968121D1160544908317B
:10B7B0000968121D116052490C310968121D11608F
:10B7C0004F4910310968121D11604D491431096843
:10B7D000121D11604A49183109684A4A2032116025
:10B7E00047491C310968121D11604549203109681B
:10B7F000121D1160424924310968121D116040492F
:10B8000028310968121D11603D492C310968121D4B
:10B8100011603B49303109683A4A40321160384979
:10B8200034310968121D1160354938310968121D1B
:10B83000116033493C310968121D116030494031B3
:10B840000968121D116002E0117809070ED1007815
:10B85000C0F30310032803D0042801D0052805D124
:10B86000D4F85802284900F04F0008602248743884
:10B87000016841F470010160BFF34F8FBFF36F8F18
:10B880004FF01021D1F80002002803DBD1F80402A8
:10B89000002822DA1D4A15601D480468002CFCD0DF
:10B8A0001524C1F800420568002DFCD0C1F80442FF
:10B8B00001680029FCD0136001680029FCD0BFF3A7
:10B8C0004F8F0D48F0380168124A01F4E0611143CE
:10B8D0000160BFF34F8F00BFFDE710490E480860BD
:10B8E000F0BD0000E00F00F0403501400DF0ADBAB2
:10B8F00000C007403C050040FCED00E01056004051
:10B900000404001020C50040E40E004004E501409E
:10B9100000E401400400FA050090D0032C1F002031
:10B920000348007F08B104F061B803F0DBBF0000FA
:10B930000426002002E008C8121F08C1002AFAD11C
:10B9400070477047002001E001C1121F002AFBD19F
:10B95000704700001CB51249002003F003F808B13D
:10B9600000F006FB0F49D1E90101CDE9000169466C
:10B97000002002F0B5FF08B100F0FAFA01210A48F0
:10B9800002F03EFF08B100F0F3FA07480121801CE5
:10B9900002F036FF002801D000F0EAFA1CBD0000DA
:10B9A0004DF1010080FC0100081F00202DE9FC5F23
:10B9B0000025168807461580406B14468946A84620
:10B9C0004FF00C0A11234FF0020B98B10178484652
:10B9D000032E48D380F800B02288521C92B22280F5
:10B9E00083542288521C92B2228009F802102088C7
:10B9F000401C20803A6BDAB12088494600F11205DC
:10BA0000B54230D80B5420881023401C80B22080CF
:10BA10000B542088401C20800F202388155C401E7A
:10BA2000CD54238840B25B1C23800028F5DA4546BC
:10BA300097F82E0030B133462246494602F0E8FB23
:10BA4000050011D197F82D0030B132462146484605
:10BA500000F0ACFD050007D1B87820B32088C846B7
:10BA6000001DB04202D95046BDE8FC9F684679DF10
:10BA70000028F9D12188032008F801002088192125
:10BA8000401C80B2208008F800102088401C80B242
:10BA9000208000EB0801BDF8000004F013F8014617
:10BAA000208808442080F878B8B1228897F90310DC
:10BAB000D31C4846B342D6D800F802B022880123EE
:10BAC000521C92B2228083542288521C92B222804D
:10BAD00009F802102088401C20807868B8B12188BD
:10BAE00090F90020CB1C4846B342BCD800F801B006
:10BAF00021880A23491C89B2218043542188491C8A
:10BB000089B2218009F801202088401C20803889D2
:10BB100050B1CDE900464B460622022107F108004C
:10BB200004F046F805009FD1388A50B1CDE90046AF
:10BB30004B460722032107F1100004F039F80500F5
:10BB400092D1388B50B1CDE900464B4615221421D5
:10BB500007F1180004F02CF8050085D1386A30B1DF
:10BB600033462246494601F04BFB0500DBD1786A9B
:10BB700030B133462246494602F0B4FC0500D2D12A
:10BB800097F82C0038B1334622464946384603F030
:10BB90005DFB0500C7D1387838B1334622464946A7
:10BBA000384602F0D1FC0500BDD128465CE710B54F
:10BBB00001220221002000F0DDFF08B1072810D18A
:10BBC00007220221012000F0D5FF08B1072808D183
:10BBD00000210A22084600F0CDFF08B1072800D155
:10BBE000002010BD10B592B00446144AF8208DF81C
:10BBF000440007CA0EAB83E8070011490020887093
:10BC000038216846FFF76DFB02208DF80000012007
:10BC10008DF8020011A801900320ADF810008DF8F6
:10BC200003400EA805900021684600F08EFB002816
:10BC300001D000F09DF912B010BD00008CFC010095
:10BC4000001F00202DE9F0419CB00AA803F030F855
:10BC500008B100F08DF9344C0A98012718B16770CB
:10BC60001CB0BDE8F08118216846FFF73AFB0020C0
:10BC70008DF8000001908DF808000390A07803254E
:10BC800028264FF01E0830B1012805D0022829D0FF
:10BC9000032842D130E0A77008208DF81C008DF8F1
:10BCA00024000BA8069013A808901F4806A9001DA1
:10BCB00001F0EAFF08B100F05BF99DF81C0010B933
:10BCC0009DF8240038B106A8022503908DF808508D
:10BCD0000420FFF787FFA570ADF81060ADF8128063
:10BCE000032015E00520FFF77DFFADF81060ADF8EB
:10BCF0001280A57002200BE00520FFF773FF4FF4C0
:10BD00004860ADF81000B420ADF812000420A07017
:10BD100000F052FF08B100F02BF9684673DF0028ED
:10BD20009ED000F025F99BE7001F0020054B012263
:10BD3000824093F8280009B1104300E0904383F853
:10BD400028007047D825002070B590B005461C210A
:10BD50006846FFF7C6FA9DF80000002440F0040092
:10BD60008DF80000039401268DF8366042F6062017
:10BD7000ADF834000C949DF83000019420F0FF00E1
:10BD80008DF830009DF83100049420F00F00401C25
:10BD900020F0F00020308DF831009DF8320005943D
:10BDA00020F00600801C20F019008DF83200069467
:10BDB000142107A8FFF795FA0DA807900CA88DF895
:10BDC00038400890ADF824600EA8ADF82640ADF8D4
:10BDD00028600B90A888AB1D07AA6946A2DF10B0A7
:10BDE00070BDF0B58FB00D4606461C216846FFF7C2
:10BDF00078FA00249DF80000039440F00A008DF8C2
:10BE00000000012701948DF8367042F60620049454
:10BE100005940694ADF834000C94687A8DF83000DF
:10BE2000A87A8DF831009DF83200142120F0060028
:10BE3000801C20F019008DF8320007A8FFF751FA96
:10BE4000287A8DF838000DA807900CA80890ADF856
:10BE500024700EA8ADF82640ADF828700B903089FC
:10BE600006F10A0307AA6946A2DF0FB0F0BD10B5BC
:10BE700028B1012805D002280CD1102002E01120A1
:10BE800000E00D2000F098FE002803D0BDE810402F
:10BE900000F06EB810BD0000064800684FF40021A5
:10BEA000044A8143121D1160111D00F40020086036
:10BEB000704700000405005070B50024064D06E0F0
:10BEC0006868012110F8340002F0AEFB641C287889
:10BED0008442F5D3002070BD841F0020F8B51546BC
:10BEE0000C460646052A01D20720F8BD02F07EFC6A
:10BEF00018B902F051FC0028F7D1104900204E601B
:10BF00000C70C1E902500E4D08610DE006EBC40053
:10BF10006968009181788DF801100078094A6946B6
:10BF200002F0D4FB0028E0D1641EE4B2EED2BDE8FA
:10BF3000F840054A0021024800F052B8841F002052
:10BF400034FD01002DE00100B1D30100BFF34F8F9C
:10BF500005480168054A01F4E06111430160BFF33F
:10BF60004F8F00BFFDE700000CED00E00400FA0574
:10BF70000EB500210091CDE901106A4644F201009E
:10BF8000FFF7E4FF014B1B681847000084240020E2
:10BF900038B50C46074BA268097802EB420253F809
:10BFA0002250054A126A0092024604F108002369F1
:10BFB000A84738BD74250020601F0020074910B530
:10BFC0000A7802EB820201EB8201091DFFF7E0FF14
:10BFD000BDE81040042003F0FBB90000A8240020B5
:10BFE000074B9B6823B12AB120B10068037C1BB1C9
:10BFF0000820704707207047417442610020704755
:10C00000981F00202DE9F0478046994614460F46B8
:10C0100090074FF0000634D11C4D8CB303F050F85C
:10C020000320C5F81490287004F11800002107EBD4
:10C030004703AC6004EBC102491C16705670977040
:10C04000506000EBC3000329F4DBEE606E70AE704D
:10C050001420FFF7F3F903211420FFF710FA14203E
:10C06000FFF7F7F90A49C1F8008003211120FFF713
:10C0700006FA0748001F006828610020BDE8F08725
:10C0800001E00720FAE7AE60FBE70000981F002000
:10C09000081501402DE9F843DFF870900D4617466A
:10C0A000D9F80810044651B34CB3052D02D207202D
:10C0B000BDE8F883606910B3607C012821D00026B8
:10C0C00003F040FDD9F80810804601EBC80069462E
:10C0D00003F05AFDB8B1012100F8041B0C4910C04F
:10C0E000096880E8E200D9F8081001EBC8009DF863
:10C0F000001041701420FFF7B7F90020D8E708209E
:10C10000D6E72E46DCE70420D2E70000981F002087
:10C1100004150140F8B5124E0446B168E1B1DCB136
:10C120006069C8B10027277403F00CFD0546B068AC
:10C13000694600EBC50003F027FD78B102210170CC
:10C140004460B0689DF8001000EBC50041701420F9
:10C15000FFF78AF93846F8BD0820F8BD0420F8BD7D
:10C16000981F002000B585B014216846FFF7B9F884
:10C170001B48009001208DF80400002002906420EC
:10C180008DF80C009DF80D00694620F00F00401C52
:10C1900020F0F00010308DF80D009DF80E0020F01A
:10C1A0000F00401C20F0F00010308DF80E009DF8BC
:10C1B0000F0020F0FF008DF80F009DF8100020F018
:10C1C0000F00401C20F0F00010308DF810000548E2
:10C1D00000F02CF9002801D0FFF7CAFE05B000BD21
:10C1E00005EB0100BC2200202DE9F0430546007D4F
:10C1F00093B00E460024A0B107949DF81C0020F0D7
:10C200000F00401C20F0F00010308DF81C00707BF7
:10C210008DF81D009DF81E0020F00600801C8DF892
:10C220001E001C216846FFF75CF89DF8000040F0F6
:10C2300002008DF80000297D11B140F0100001E0EE
:10C2400020F010008DF80000019403940494287DE0
:10C2500000B107A8CDE9050401278DF8427042F628
:10C260001920ADF840000D94B07B8DF83400F07BC0
:10C270008DF835009DF83600142120F00600801C52
:10C2800020F019008DF83600307B8DF8440008A8A6
:10C29000FFF727F80DF140080DF13409ADF82870CB
:10C2A00011A8CDE90889ADF82A40ADF82C700C90A2
:10C2B000A888AB1D08AA6946A2DF002838D1B0685B
:10C2C00098B38DF8427042F60810ADF840000D9416
:10C2D000307C8DF834009DF8350020F0FF008DF89B
:10C2E00035009DF8360020F00600801C20F0190073
:10C2F0008DF836000EA8B16800F0B1FA0646142198
:10C3000008A8FEF7EEFFADF828600EA8CDE9088971
:10C31000ADF82A40ADF82C600C90E88805F10E02CB
:10C3200008A9A3DF002803D101E0FFE7EC8100208A
:10C3300013B0BDE8F08310B502F048FB002803D02D
:10C34000BDE81040FFF714BE10BDF0B50C4693B029
:10C350001F210726ADF80010ADF80410002750B1DA
:10C36000C17849070DD56A4602A9FFF71FFB0028CF
:10C3700008D102AD02E00025ADF800706CB1E078A4
:10C3800010B1304613B0F0BD01AA0AA92046FFF74C
:10C390000DFB0028F6D10AAA02E00022ADF80470D5
:10C3A000BDF80400C3B2BDF80000C1B2284672DF78
:10C3B000E8E773B586B0040034D0217C9DF81C20DA
:10C3C000002091422CD0002501260095ADF8006098
:10C3D00007A8ADF802500190E188608A6A46A4DFA0
:10C3E00000281DD19DF81C002074608AA0F57F41B3
:10C3F000FF3919D0207DB8B10295039504950595B4
:10C40000E088ADF80800BDF80200ADF80C00019816
:10C410008DF80A60CDF810D00590608A02A9A6DFD9
:10C4200008B070BD0E20FBE70820F9E738B50D46CF
:10C4300004001BD0D5B1286820604FF6FF706082E1
:10C4400028792075FF20207401208DF8020041F624
:10C450000F00ADF80000221D69460120A0DF002872
:10C4600003D129462046FFF7BFFE38BD0E2038BD58
:10C4700008B5002821D000291FD00A88102A17D01B
:10C48000112A17D0502A18D1027D002A15D031F870
:10C49000062F43899A4210D10A8B022A0DD10268D5
:10C4A000002A0AD0897E11F0010F07D0002106E092
:10C4B000898801E04FF6FF71418208BD01218DF8A6
:10C4C00000106946904708BD70B5054601461C221C
:10C4D0000F48FEF7EDFE0F4C00262670286830B19D
:10C4E000016861604068A060201D7ADF02E00948B1
:10C4F000001D7BDF00280AD14FF6FF706080667058
:10C50000BDE87040044A00210448FFF769BD70BDD2
:10C510006C230020301F0020E5FA0100D4FC01004C
:10C5200070B5204C068800251D49E289102E15D0D3
:10C530001D4B112E1ED0122E2BD0502E19D130F89B
:10C54000061F914215D1018B022912D1807E10F075
:10C55000010F13D0BDE8704000F098BE83884B8077
:10C56000D0F81630CB60D0F81A0008614D70002A60
:10C57000F0D070BD4FF6FF7048804D701868FFF71F
:10C58000C9FD0028F5D0A1690029F2D0BDE87040AE
:10C59000084750F8062FCA6040680861DAE70000D3
:10C5A000301F00206C230020D4FC01007CB5054620
:10C5B00008880C460930904201D90C207CBD6846A1
:10C5C00071DF0028FAD121880820685420881B21B7
:10C5D000401C80B2208029542088401C80B22080DA
:10C5E0002844DDF801100160BDF805108180208825
:10C5F000801D80B220809DF8001001B101212954D6
:10C600002088401C208000207CBD000010B504461E
:10C6100000F0D4FF2046FFF783FF21460F4800F0CB
:10C62000ACF80E482146103000F0EDF80B482146DA
:10C630002430FFF71DFF094821463C3000F026F862
:10C64000064821460C3800F05CF9204600F0AAF9B3
:10C650002046BDE8104002F06FBA0000982200208A
:10C660000A687AB10260496841604FF6FF71418102
:10C670000021018104480121817042F606210180D8
:10C680000020704707207047441F002038B504463B
:10C690000888012210280AD011282CD0302813D065
:10C6A000322827D12046BDE8384002F083BA888876
:10C6B00060818DF8022041F60200ADF8000060892B
:10C6C0006A46012190DF07E0CB8820466BB98B8951
:10C6D0005BB16089123192DF00280BD061680029BC
:10C6E00008D001B0BDE8304008478DF8002002684E
:10C6F0006946904738BD4FF6FF7060812089002859
:10C70000F8D002208DF80000226869462046904744
:10C710000020208138BD13B5018984B0002291B179
:10C72000408901240092ADF802100192022105AB6C
:10C730008DF80010ADF80420ADF80640694602936C
:10C7400098DF06B010BD0520FBE738B50446086841
:10C7500088B1206001208DF8020041F60200ADF89A
:10C760000000221D69460120A0DF002802D12046DA
:10C77000FFF7EAFA38BD072038BD08B50A88102A45
:10C7800013D0502A10D131F8062FC3889A420BD10A
:10C790000A8B012A08D100228DF80020897E8DF8AD
:10C7A000011002686946904708BD8988C18108BDAB
:10C7B0001CB5002201230092ADF80030ADF8022034
:10C7C00001914189408A6A46A5DF1CBD38B50446FF
:10C7D00008680D46A8B120606868606001208DF887
:10C7E000020041F60300ADF8000004F108026946BA
:10C7F0000120A0DF002803D129462046FFF7F1FAE7
:10C8000038BD072038BD38B50B880022102B0DD05D
:10C81000112B0ED0172B1CD18979002919D18DF835
:10C8200000208DF801206946026816E0898841825F
:10C83000F5E70446887908280BD18DF800202046BA
:10C840000DF10101FFF7B4FF20B16168002900D0AC
:10C85000884738BD226869462046904738BD0A7827
:10C8600002704978417002207047000000B585B021
:10C87000002348221449082002F0F2FD08B1FFF716
:10C8800077FB6A460121002002F0D4FD08B1FFF7D2
:10C890006FFB0E4802F0D2FC08B1FFF769FB684657
:10C8A00002F0BEFD08B1FFF763FB094802F0AEFDE0
:10C8B00008B1FFF75DFB074802F0EAFD002801D050
:10C8C000FFF756FB05B000BD44220020001E0020EB
:10C8D0000DC6010085F6010038B5044601208DF82B
:10C8E000020041F604000D46ADF8000022466946FC
:10C8F0000120A0DF002803D12946204602F0ACFF2A
:10C9000038BD0A88102A01D189884181704700000A
:10C910001CB5044681786A460C4802F0DBF9002811
:10C9200013D160780A49C0EBC00001EB80001C23E2
:10C930001A46694602F078FA054806493830807A86
:10C9400051F820202146684690471CBD581F002002
:10C950004C240020E8FC01007CB5114E0C004FF087
:10C960000005306015D06946002000F0B1F80028BD
:10C9700015D101A9012000F0ABF800280FD19DF8D6
:10C98000041009B1022003E09DF8001001B10B2052
:10C990002070706810B9FFF70AF9054628467CBD7B
:10C9A000241F002010B51A4C0188606810290ED091
:10C9B00011292BD1401E606028D1FFF7F8F800281C
:10C9C00024D02168002921D0BDE810400847D0B903
:10C9D00000210122084600F0CDF808B107280FD148
:10C9E00007220221012000F0C5F808B1072807D16D
:10C9F00004220221002000F0BDF820B1072802D057
:10CA0000216801B188476068401C606010BD00006B
:10CA1000241F002010B5032000F03EFA08B10628BC
:10CA200000D1002010BD00002DE9F047074600248A
:10CA3000244802E0641C042C41D250F82420BA425D
:10CA4000F8D1042C3BD21F48DFF87C901F4E0C38E5
:10CA5000A9F1140841B301290FD002292FD104EB09
:10CA6000440030444578002D29D0D8F81010002912
:10CA700025D02846BDE8F047084704EB4401755C23
:10CA80000E44717861B1D8F804100F4A01EB8101AE
:10CA90004900133A8068FFF7FDFA08B988F8017079
:10CAA000B17809F80410DEE78068FFF733FB04EB88
:10CAB0004401314419F804008D78A842D3D0BDE870
:10CAC000F0870000A4FC0100201F0020202300208C
:10CAD00004280CD2074A1268074B13F820300120B3
:10CAE0009840904300D0012008700020704700203B
:10CAF000FAE7000010050050A4FC010010B51B4C23
:10CB000004280DD00A2807D00D2810D00E280DD1EA
:10CB1000112000F051F808E0BDE8104002F044BCDC
:10CB20001321E08876DF082800D0A0B910BD207856
:10CB30000028FBD0E07890B100210D48FFF7EBFD15
:10CB400078B1A0F540510439F0D043F20141884258
:10CB5000ECD00528EAD0BDE81040FFF709BA022161
:10CB6000EBE7E07880F00100E07010BD001F0020CE
:10CB7000D422002070B50023042810D20D4D00EB04
:10CB80004004012A02D101290CD00022094E00EBF9
:10CB90004000304461B1012906D0022906D00723A4
:10CBA000184670BD0D30C2B22A55F9E74270F7E75A
:10CBB0008270F5E720230020044A01460020127A03
:10CBC000D20702D0084600F055B870470C1F00206D
:10CBD00070B50E462149054600200A61C1E901658C
:10CBE000A9071BD50024012211462046FFF7C2FFEA
:10CBF000641C042C02D20028F5D00FE070B9720832
:10CC000004211748FFF76AF940B9FFF755F928B929
:10CC10001348144A00211438FFF7E2F9E9070AD053
:10CC2000114A4FF4F01111600F4B00221B1D1A60C6
:10CC30000D4A1032116000280FD109480B4A00211B
:10CC40001C38FFF7CDF9002807D1BDE87040044833
:10CC50000121074A1838FFF7C3B970BD0C1F002027
:10CC6000B4FC0100D5CE01000805005065E20100CA
:10CC700099BE01002DE9F84F854EDFF810A24FF460
:10CC8000E01CF16807462CEA010C00910020716855
:10CC90000AF10404251D7F4B4FF400324FF4802B22
:10CCA00001EB810E8146182F16D2DFE807F00C1732
:10CCB000173A4E607083868F868FEAA0A0A0A0A04E
:10CCC000CAD1D8E1EAEA009A4FF4F0119143216009
:10CCD000C5F8009086F80090BDE8F88FC4F800C051
:10CCE0004846C5F80090DAF800C08CF4F01C5FEA02
:10CCF0008C3C09D522602860022F02D14FF4E160FC
:10CD000008E04FF47A6005E02A602060022F3CD0F2
:10CD10004FF4C8706422B0FBF2F041433770002238
:10CD20005EE0C4F800C04846C5F80090DAF800C0DC
:10CD30008CF4F01C5FEA8C3C04D5226028604FF430
:10CD40004870E7E72A6020601FE0C4F800C048464A
:10CD5000C5F80090DAF800C08CF4F01C5FEA8C3C57
:10CD600002D522602860CCE72A602060D0E7C4F8B2
:10CD700000C04846C5F80090DAF800C08CF4F01CFA
:10CD80005FEA8C3CDED522602860C820C2E7C4F888
:10CD900000C04846C5F80090DAF800C08CF4F01CDA
:10CDA0005FEA8C3C02D52260286001E02A602060A6
:10CDB000377014E0C4F800C04DE0DAF800002BEA48
:10CDC0000002226000F48020286008E0DAF8000009
:10CDD0002BEA0001216000F48020286071460022C7
:10CDE0001868BDE8F84FFFF755B921602EE0984666
:10CDF0005868FFF78FF9D7F1110100D040B1F16801
:10CE000001F4F0112160C5F80090C6F80C9063E7BA
:10CE10004FF40022F26001290CD9C82011FB00F167
:10CE20006420B1FBF0F1706800224143D8F804009F
:10CE3000FFF730F9F16801F4F0112960C4F80090AF
:10CE40004AE74FF4F0112160C5F80090377043E7CE
:10CE50004FF4E01121604946C5F8009006E04FF418
:10CE6000D01121604946C5F800905A462A60BCE7B7
:10CE70004FF4C01121604946C5F800904FF4C0221C
:10CE8000F4E74FF4F01129604946AEE7040500507D
:10CE90000C1F002098FC010070B500210C4D0124EE
:10CEA00055F82120920002F1A042D2F8006704FA5E
:10CEB00001F3034000D0032326F4403646EA03433F
:10CEC000C2F80037491C0429EAD3002070BD0000D5
:10CED000A4FC010000780221FFF7A6BD05494FF030
:10CEE000FF32082841F8202002D3084480F8482067
:10CEF0007047000080250020F0B54FF0FF3512B1DB
:10CF00000023082601E008230C260C4C05E000BF96
:10CF100054F823707F1C04D05B1CB342F8D328461E
:10CF2000F0BD26185DB286F8305044F82310002A70
:10CF3000F5D1E11881F84800F1E7000080250020D4
:10CF40000249084490F93000704700008025002015
:10CF50002DE9F0413B48017801EB810100EB8104B0
:10CF6000D4E9030600EB40013648241DCC3000EB29
:10CF70008100B0F808804589476801F02AFFB6FBB8
:10CF8000F0F100FB116088B35FF0000008FB05774B
:10CF90006188A288DFF8B08011448D190022C8F89A
:10CFA000102040B101F015FF6188884221D0BD42B8
:10CFB00001D1A088E8B1A06802281AD001F009FFC9
:10CFC000A18844463144B1FBF0F200FB1210800806
:10CFD000C8F80C0001F0FDFEB5FBF0F100FB1150AC
:10CFE00078B10020BD4228D068B126E0FFE70120DB
:10CFF000CCE701F0EEFEB6FBF0F10320C8F8141008
:10D000001CE00120EEE7ADB2BEB201F0E2FEB6FBDD
:10D01000F0F701F0DEFEB5FBF0F0874201D1701BA6
:10D0200009E001F0D6FE064601F0D3FEB5FBF0F1B3
:10D0300000FB1150301A800820610220BDE8F04149
:10D0400002F0C6B9A8240020601F0020064801781D
:10D0500001EB810100EB81000079042801D000F090
:10D0600059B8012002F0B4B9A82400200A480B4A9C
:10D07000017801EB810100EB8100C1881162007928
:10D08000012805D0032801D0042804D1FFF760BF90
:10D09000012002F09DB97047A8240020601F0020E5
:10D0A00000EB80020548002100EB820001220171A3
:10D0B000C180C0E90321416101817047A82400209B
:10D0C0002DE9F041114D069E6C780A2C1BD02F786B
:10D0D0003C440A2C00D30A3C04EB840405EB840492
:10D0E00020716261D1E90001C4E90301E380268176
:10D0F0006878401C68700648007808B9FFF7B6FFEA
:10D100000020BDE8F0810420FBE70000A8240020F7
:10D11000601F002010B50E4C207800EB800004EB5F
:10D1200080010020091DFEF733FF2078FFF7B8FFCC
:10D130006078401E60702078401CC0B220700A28C1
:10D1400001D100202070BDE81040002002F040B95D
:10D15000A82400202DE9F05F2648C168F1B3DFF86C
:10D1600098B00E688146DBF800400769C078E11B83
:10D1700021F07F45ED1CB0B9DFF880804FF480309E
:10D18000C8F84403C8F804031120FEF757F911202A
:10D19000FEF75FF94FF0010AC8F800A02F20FEF754
:10D1A00039F889F803A0B54200D23546124BE81988
:10D1B0003C3320F07F401860DBF800105A46091B12
:10D1C00021F07F41001B20F07F40C91C81420FD914
:10D1D000106818602F20FEF71DF800E004E0BDE89D
:10D1E000F05F1120FEF740B9BDE8F05F01F068BFC5
:10D1F000BDE8F09F981F0020041501400010014079
:10D200002DE9F04117880646B81D14460D46984290
:10D2100002D90C20BDE8F0813188072206290AD303
:10D220004FF4486C4FF6FF73614501D9994202D122
:10D230007088062801D21046ECE7604501D9984273
:10D24000F9D1994203D0984201D08142F3D8052008
:10D25000E85520881221401C80B220802954208863
:10D26000401C80B220804119308802F02BFC2188BC
:10D27000084480B220804119708802F023FC218884
:10D28000084420800020C5E7FEF772BEF8B51348B9
:10D2900000F088FF114D0026114C0C3D30B1616942
:10D2A000B9B101208DF80000684611E0287820B15E
:10D2B000616971B18DF80060F6E7687858B1A168CE
:10D2C000084800220068FEF7E5FE10B1A16901B12F
:10D2D00088472E70F8BD6168F2E700003C1F00200F
:10D2E0006C230020D4FC010070B5094B04460820D3
:10D2F0009E7A00250E4208D0A4F57F40FF3802D068
:10D300001889A04202D10020156070BD052070BDB3
:10D310007824002000EB40020748012100EB820046
:10D3200081724FF6FF710181FF21C17200210160FE
:10D3300081808171704700007824002010B5134C63
:10D34000207900071ED46069401C6061E06808B164
:10D3500004200AE000F034FF08B1022005E0206953
:10D3600060B16068C10704D00320BDE8104002F03E
:10D370007FB940F0010060600020F6E7BDE8104092
:10D38000FFF764BEBDE8104002F068B9601F0020DE
:10D3900006494868020707D4820702D540F0010019
:10D3A0004860022002F064B902F058B9601F002002
:10D3B0002DE9F04100260125144C22E06068226925
:10D3C00000EBC607387805FA00F1114217D08A43FE
:10D3D000226101F0D7F902463878E36805FA00F1D6
:10D3E000194002FA00F3994209D17978012901D054
:10D3F000012100E0002151407A6802B19047761C7B
:10D40000F6B220788642D9D3BDE8F081841F00208F
:10D410002DE9FC410E46044681786A46254801F014
:10D4200059FC002829D16078234F00EB400007EB1E
:10D430008000807A400622D4022E20D0012E20D0F7
:10D440001E4D1D49A078F039C0EBC00001EB8001F2
:10D4500000231C226846A847A8B1022E0DD02078D0
:10D46000154900EB40000C3101EB80001449807A33
:10D4700051F82020214668469047BDE8FC81114DB7
:10D48000DFE7114DDDE7022EF7D0607800EB4000BA
:10D4900007EB8000817A21F04001817206496078B3
:10D4A0002C39C0EBC00001EB80011C231A466846F2
:10D4B000A847D4E7581F002078240020E5F5010094
:10D4C000D8FC010041F0010079EF01002DE9F0479F
:10D4D00005250F4F9046894606460024C4EBC4003C
:10D4E00007EB800036B1072231461030FDF704FF0C
:10D4F00018B106E0018B414503D10025C9F8004071
:10D5000002E0641C072CE9D32846BDE8F087000040
:10D51000882300207CB5054681B26A46074801F0A1
:10D52000D9FB040008D14C21684601F0F9FB040046
:10D5300002D1284601F086FB20467CBD581F002002
:10D5400010B5100001D0FEF713FD002010BD000043
:10D550001FB58DF80C0001F041FC08B1FEF708FD85
:10D5600003A800F047FA08B1FEF702FD0020CDF84D
:10D5700005008DF809009DF80500694620F01E00A1
:10D5800040F001000C3020F020008DF8050007204D
:10D590008DF8060010208DF8070006480090012045
:10D5A0008DF80400044800F03DFB002801D0FEF790
:10D5B000DFFC1FBD41D50100041F00202DE9F04F05
:10D5C00093B0054600200290F848FF240E9400789E
:10D5D000002856D0F64E3068002852D001A800F03E
:10D5E000FEF908B1FEF7C4FC281D05902A20ADF80D
:10D5F00018000027FF208DF806008DF804700097B2
:10D60000EB4C28880C3CBA4610280FD0A8886A46F4
:10D610000221FFF769FE48B9009800EB400104EBD6
:10D620008101C97A8DF806108DF80500DFF880B306
:10D630002A88ABF1380B132016230BF11C08A8F134
:10D64000E009172A73D010DC102A1DD0112A5CD0F3
:10D65000132A6DD0142A14D1009800EB400004EB7B
:10D660008000C07AFF287DD0ABE0D249182A7AD05A
:10D670001C2A6FD0522A04D1B07A51F8201001A888
:10D68000884713B0BDE8F08F4FF6FF766A46012158
:10D690003046FFF729FE0028F3D10098022200EB64
:10D6A000400104EB81018A7211228DF810208DF85F
:10D6B0000500A8880881D5F8060008606889888078
:10D6C000287B8871687DC10708D0B849083101EB13
:10D6D00050000078FF2807D00E9005E032460EA9D2
:10D6E000A81DFFF7F3FEB8BB00990E9801EB4101AE
:10D6F00004EB8101C8728A7A42F008028A728DF8BE
:10D70000060001A8FFF704F926E0009800EB4000AE
:10D7100004EB8001887A20F002008872010708D5A6
:10D7200000060FD5002101A8FFF772FE0AE0C7E04E
:10D7300057E09DF80600FF2804D001F083FAFF208F
:10D740008DF806000099102001EB410104EB8101E6
:10D75000887212208DF810003A4604A901A8FEF73D
:10D7600011FC01E00FE000E19DF81000122888D1C3
:10D77000009800EB400104EB8101897A012980D0F7
:10D78000FFF7C8FD7DE7EA890EA90020FFF79EFE9E
:10D7900078B900980E9900EB400004EB8000C1724C
:10D7A000827A42F0080282728DF8061001A8FFF713
:10D7B000AFF8009800EB400004EB8000C07AFF282F
:10D7C00005D00098C0EBC0010BEB810002900098DF
:10D7D0000023C0EBC00109EB8102A888029982DF17
:10D7E0004FE7009A8DF8100002EB420004EB800135
:10D7F000887A40F00400887291F80BC0BCF1FF0FEA
:10D8000028D08DF8103008EB021340F04000C3F828
:10D8100008A0C3F80CA088720099CDF82CA001EBE9
:10D82000410204EB8202D27ACDF828A0C2EBC203F7
:10D8300009EB8302CDE90C2AC1EBC1020BEB82019B
:10D84000CDE9081A321DA88808AB00217FDF002827
:10D8500098D181E70DF1380848F2430300204A4689
:10D86000C0EBC00C02EB8C0C9CF81AC0BCF1FF0F93
:10D8700004D0401C0728F3D31F46CDE70B78022BBA
:10D880000CD0C0EBC00309EB8302FD2393760B6839
:10D8900013618B8893828979917505E0C0EBC00193
:10D8A00009EB8101FE228A7688F8000000990E9823
:10D8B00001EB410104EB81018DF80600C872ABE772
:10D8C000707A20F001007072009B03EB430204EBBE
:10D8D0008200817A21F00406867214218DF81010DE
:10D8E000A97921B1C07AFFF715FEAF7934E7E9795C
:10D8F0004907AED59DF80610FF29AAD046F00806C4
:10D900008672ED7AAD0707D5C1EBC10609EB860536
:10D91000AE7E26F00106AE76C57AFF2D99D014F8BA
:10D920002220022A0ED0C1EBC10209EB820102685B
:10D930000A6182888A8280798875887E20F0020058
:10D9400088760DE0C3EBC3020BEB8200C1EBC10193
:10D95000428A09EB81000283817E21F001018176F8
:10D96000012101A8FFF754FDF6E6A8790122B2EBE8
:10D97000101F21D100F00F0001281DD1009A02EBE9
:10D98000420004EB8005A87A070715D508EB0212C0
:10D9900040F06000C2F808A0C2F80CA08DF810306A
:10D9A000A872707A40F00200707216E0481F0020E2
:10D9B00084240020F8FC0100009800EB400004EBF8
:10D9C0008000827A42F08002827215208DF8100069
:10D9D000B07A51F8201001A888470027BCE630B182
:10D9E000FF21017041708170C1700020704748F2C2
:10D9F0000E0070472DE9FF4105003BD02C48002464
:10DA00000460447284722046FFF784FC2848002694
:10DA10007C38DFF8A080046644668466FF27C4660D
:10DA2000304601F00FF908F80670761C072EF7D380
:10DA30004C20ADF804000720ADF806001E481D4933
:10DA400000900831684601F03DFA00280FD1194EC8
:10DA50000120083E3070287878B1BDF80400BDF888
:10DA60000610484381B206F1100001F059F904B0E4
:10DA7000BDE8F08148F20E00F9E70D4F0025FC3FAC
:10DA80000C48A9B202AA083001F024F948B9C5EB44
:10DA9000C50007EB800000231C2202A901F0C4F995
:10DAA00008B13470E3E76D1C072DE9D3DFE7000010
:10DAB00084240020501F0020BDDA01002DE9F0472A
:10DAC0008046564890B01E460068189F9246894688
:10DAD000002854D04C2F52D86846FFF780FF08B179
:10DAE000FEF746FA00248DF800408DF80440CDE999
:10DAF00005762546A9B20DAA494801F0EBF828B9E8
:10DB000008220DA94046FDF7F7FB00B36D1C072D59
:10DB1000F0D300BF9DF80200FF2830D0202540231D
:10DB20000DF11008B9F1030F14D0DFF8F0C01C2775
:10DB3000ACF1FC0CA6EB0C01B1FBF7F20121072ABA
:10DB40002BD2CDF80880BAF1000F1BD020E08DF861
:10DB50000250DFE74C2F02D08DF8043001E08DF841
:10DB600004509DF8040040F0030000BF8DF804004D
:10DB7000524601A96846CDF80880FEF703FA10B0B6
:10DB8000BDE8F087264A8140103A52681142F6D02B
:10DB900001F09EFF8DF8045034E020483838321AE6
:10DBA000B2FBF7F23AB100F11C02B01A000919D029
:10DBB0008DF80430E3E719498DF804508DF80140E1
:10DBC0000C31CDE90A41CDF8088007909DF802009C
:10DBD000C0EBC0000CEB8000089007A8069018204E
:10DBE00005900FE030208DF804000C488DF80140BE
:10DBF0000C388DF80310807A800703D414605460C9
:10DC00009460D4609DF80400B9F1020F02D040F096
:10DC10000200ABE740F00100A8E7000084240020E8
:10DC2000581F0020164A10B512785AB148F20E0259
:10DC300058B151B10B6843B1124A14683CB148F273
:10DC4000040010BD48F2080010BD104610BD0D4C78
:10DC50001360241DD1F8053023604B7A23710979B4
:10DC6000917223F0050141F002011172D17921F086
:10DC7000040141F00301D17100210170084610BD7B
:10DC8000481F002084240020F0B5254A48F20803EC
:10DC9000127832B39A1D38B131B10C6824B18C6856
:10DCA00014B10078E8B901E01046F0BD1D480068E5
:10DCB000B8B100231B4C1A460C3C1846A4F1F005E1
:10DCC000E67A864202D1A67AB60722D40E7B964225
:10DCD00010D9C0EBC00605EB8606B77EFF0702D061
:10DCE00008E01846F0BD8F6847F822600C4E0836F1
:10DCF000B054521C0E799E420BD9C0EBC00605EB06
:10DD00008606B77EBF0704D40F68103647F8236035
:10DD10005B1C401C0728D3D30B710A730020F0BD95
:10DD2000481F0020842400200E4910B54A788C78C2
:10DD30000023A24212D0521CD2B24A70022A00D151
:10DD40004B70084A4B78183252F823200260086959
:10DD5000104420F07F400861012010BD03600020C6
:10DD600010BD0000981F0020002808D0112801D005
:10DD7000FEF724B90248416841F00801416070474C
:10DD8000601F002010B51F4C2046217840680129F3
:10DD900010D002292DD0032932D1000725D4606983
:10DDA000401C606100F00CFAD8B12078BDE810404A
:10DDB00001F00EBB000718D41348A28B017801EBC9
:10DDC000810100EB8100C188891A0904090CC18016
:10DDD00003D0BDE8104001F007BCBDE81040FFF7DC
:10DDE00099B9BDE81040FFF731B9BDE8104000F027
:10DDF0006FBB0648617850F82100BDE8104000472D
:10DE000010BD0000601F0020A82400201CFD0100A0
:10DE100028DFFFF7A9BF29DFFFF7A6BF0EB519A1BD
:10DE20009DF8080020F00F00401C20F0F00010309A
:10DE30008DF808000B2202A87CDF08B1FEF798F8E5
:10DE40004FF4107078DF08B1FEF792F800204FF41D
:10DE5000C87100900190ADF80400ADF800104A00C0
:10DE6000ADF80220ADF8061068467ADF08B1FEF77B
:10DE70007FF86FF0070077DF002801D0FEF778F811
:10DE80000EBD00004E6F726469635F50726F780060
:10DE90000020704700207047002070472DE9F047B0
:10DEA000054641782648002400EB0110244F01EB81
:10DEB000410110374268A046264607EB810152B166
:10DEC0008B7A5FEA036C06D55B0604D4066800F122
:10DED00008041FFA82F80889334642462146A9DF22
:10DEE00048F241090B281ED000B14846012E18D136
:10DEF00068784FF6FF7200EB400007EB80000C21C2
:10DF00000089A7DF00280CD0A0F54051023915D0B8
:10DF1000082813D0A0F5405104390FD011280DD096
:10DF20000020BDE8F0876878012300EB400007EB94
:10DF30008000424600892146A9DFD9E74846F0E73C
:10DF40006824002070B50C4601466078084D3823DF
:10DF500005EB0010102200F067FF002806D1617861
:10DF600005EB01114A68521C00D14A6070BD0000E7
:10DF7000682400202DE9FE43804603270820ADF8E1
:10DF800008004878234E00EB400006EB80000C466A
:10DF900000893B4602AA6946AADF08BB6078A6F161
:10DFA000100505EB0010BDF8082069460830FDF7A4
:10DFB000A3F90028607805D005EB0010416881B115
:10DFC000154E0FE000EB400106EB8101897A8907CD
:10DFD0001DD405EB00100021016041608160C1602B
:10DFE00015E00E4E07606078BDF8082005EB0010C4
:10DFF00069464260607805EB00100830FDF758F97B
:10E000006078382305EB001110224046B04700200D
:10E01000BDE8FE837824002041F0010079EF010083
:10E02000FFF73CBFFFF78EBFFFF7A4BF2DE9F0411C
:10E03000124E07460125BD403068FEF76BF80028F8
:10E040000DD10F4C2069284207D1384600F09AFBC9
:10E050000028E06805D0284304E0A8432061BDE81B
:10E06000F081A843E060206928432061A1683068FE
:10E07000BDE8F0410022FEF70DB8000034FD0100BC
:10E08000841F002070B51B4C207900072DD41A483E
:10E09000017801EB810100EB81052E6900F099FE0A
:10E0A000E9882A89761E11443144B1FBF0F02169D8
:10E0B000002549B16169814206D1E560606840F0A0
:10E0C00001006060002008E000F07AF810B1022042
:10E0D000E56002E0206920B10320BDE8704001F056
:10E0E000C7BABDE87040FEF7B1BFBDE8704001F0AF
:10E0F000B5BA0000601F0020A824002018B108282D
:10E1000001D80120704700207047000010B5044678
:10E11000FFF7F4FF48B10648641E90F8281001206C
:10E12000A040014201D0012010BD002010BD000020
:10E13000D8250020F8B51A4C207800282ED0206968
:10E1400028B10026E06820B1002526B110E00126A4
:10E15000F8E70125F9E7684652DF052803D020B12A
:10E16000FDF706FF04E0012602E0216900988847D8
:10E1700085B96088ADF800006946A06861DF0528B0
:10E1800003D020B1FDF7F4FE04E0012502E0D4E95C
:10E1900002018847002EDED0002DD6D0F8BD000049
:10E1A000B81F0020054940880A88904204D3498856
:10E1B000884201D80120704700207047341F00209A
:10E1C00070B50E48017801EB810100EB81042569EF
:10E1D00000F0FFFDE18822896D1E11442944B1FB46
:10E1E000F0F1074842698A4205D301D1006910B1B4
:10E1F0004FF0000070BD4FF0010070BDA82400205A
:10E20000601F0020800701D0002070470120704768
:10E2100030B51488E51C9D4201D90C2030BD022583
:10E220000D5513881C245B1C9BB21380CC5413889F
:10E230005B1C9BB21380012807D0022807D003285B
:10E2400007D0042807D0072030BD002004E00120BB
:10E2500002E0CD5401E00320C8541088401C108017
:10E26000002030BD0348017AC90702D00078FEF7CC
:10E2700001BD70470C1F00202DE9F047DFF8ACA06E
:10E28000DAF80C009AF8004080469AF80460DAF850
:10E290000890DAF810703AE009EBC4052A7833E008
:10E2A00002EB42016B68521C03EBC101AB78D2B2A6
:10E2B000934200D100220B78022B02D0032B23D1F2
:10E2C0001FE0D1F804C00346014603E0614503D0D6
:10E2D0000B46C969C1B1F9E7B1B18B4205D1C0693B
:10E2E00018B9134F0126BE600027D1F800C0C969D4
:10E2F000D96149B10B6863440B6005E00174C069E2
:10E3000000E000210028F9D169789142C8D1641E4B
:10E31000E4B2C1D2CAE903078AF80460404502D0DA
:10E320000120BDE8F0870020FBE70000981F0020D7
:10E33000001001402DE9F04705462F480026804691
:10E340000778D0F80C904BE0D8F8080000EBC70431
:10E3500040E002D02846ED691EE02078616800EBBD
:10E360004002401CC0B201EBC2012070A278904272
:10E3700000D126700A784868012A2DD1027C5ABB48
:10E380008A684260CA6882600A69C26049698161BC
:10E3900098F8041001B146604268D8F81030DFF8F0
:10E3A0005CC0D11A21F07F41614502D282681144DC
:10E3B00006E0991A826821F07F418A4202D9511AF7
:10E3C000016000E006604660012186600174C6615C
:10E3D00001F0BEF9002DBCD1207861788842BCD113
:10E3E0007F1EFFB2B0D2D8F80C10494502D00120F0
:10E3F000BDE8F0870020FBE7981F0020FFFF7F00AB
:10E40000002388B02D4A07211846FDF7FBFD08B10F
:10E41000FDF7AEFD2A4A01212A48FDF7E1FD08B1CA
:10E42000FDF7A6FD284A40F6CD410320FEF7D0FBBC
:10E4300008B1FDF79DFD69460020FEF78DFA08B191
:10E44000FDF796FD9DF80000022834D05FF000042F
:10E45000FEF70CFAFDF77EFA2046FFF779F8FFF792
:10E46000DDFC0520FDF7BEFB00F036FF1C216846F1
:10E47000FCF737FF00204FF42031CDE900014FF4C5
:10E480007021029103218DF80C10ADF80E0005905B
:10E490000E48012106908DF810106846FEF714F81A
:10E4A00008B1FDF765FDFDF7CDFB48DF0028FCD086
:10E4B000FDF75EFDF9E70124CAE70000EC1F00202C
:10E4C00037C3010080FC0100FDCA010089D20100B0
:10E4D0000348416821F008014160007800F078BFEE
:10E4E000601F002070B5144682880E4605462088BD
:10E4F000111D0144921C994201D8FE2A01D90C2019
:10E5000070BD521C32542088FF21401C80B22080F4
:10E5100031542088401C80B220808119288801F065
:10E52000D1FA2188084480B22080AA8842B1A96823
:10E5300041B13044FCF7BCFE2088A9880844208003
:10E54000002070BD072070BDF8B50E460178144656
:10E550000546012901D1687830B12088821C9A4291
:10E560002DD8012902D006E00720F8BD69780144C2
:10E57000891C994223D8181A801E87B2ADF8007002
:10E580002188B01C084469467DDF0028EDD1287839
:10E59000022805D1BDF80010B94201D809210AE0CE
:10E5A0000821012805D16878B84202D8ADF80000EA
:10E5B00001E0ADF80070BDF80000FE2801D90C2084
:10E5C000F8BD2288401CB0542088401C80B22080B6
:10E5D00031542088401C2080BDF800100844208061
:10E5E0000020F8BD002070470020704700207047D1
:10E5F0004907090E002806DA00F00F0202F1E022B6
:10E6000082F8141D03E000F1E02282F8001400F00B
:10E610001F02012191404009800000F1E020C0F874
:10E620008012C0F8001170472DE9F04788468146F6
:10E6300000F026FB0124224E0028484618D0FEF7A1
:10E640007FFC304490F848008009032802D001285C
:10E6500006D007E01B48006804FA09F4204201D103
:10E66000022100E003214846BDE8F04700F0CFB9A1
:10E6700000F012FB002820D04846FEF761FC05465A
:10E68000114F4FF4807007EB850100EB8500D1F846
:10E69000102580B242F00102C1F8102500F0C6F941
:10E6A000B8F1000F09D04846FEF74AFC56F82000A2
:10E6B000002802D0AC40C7F80443BDE8F087000052
:10E6C0008025002010050050006000402DE9FC412D
:10E6D000DFF8A480044608EB0400002790F930001E
:10E6E0001346C0170E46401C01D0082740E0F278C0
:10E6F00019462046FEF700FC0546401C37D0B0788E
:10E7000048B1A00000F1A040D0F8001721F00201AC
:10E71000C0F8001707E000217378204600910A46F0
:10E72000019100F063F9F078C0B11448317800EB42
:10E730008500D0F81025124B1A40C0F810254FF470
:10E74000F8524FF4403302EA042203EA01410A433B
:10E75000D0F810150A43C0F8102509E008EB0500B1
:10E76000327810F8481F41EA8211017000E0042756
:10E770003846BDE8FC810000802500200060004094
:10E78000FFE0FCFF03490968C14011F0010000D01F
:10E79000012070471005005070B5124D95F85400D7
:10E7A00008B1082070BD0020411E2A18401CC0B2CC
:10E7B00082F830102028F8D300242046FEF78EFB84
:10E7C000641CE4B20C2CF8D303210620FFF710FFE1
:10E7D00005494FF00040C1F80403012085F85400BA
:10E7E000002070BD8025002000600040034890F8A4
:10E7F0005400002800D00120704700008025002030
:10E800002DE9F05F334D074602200E46C5F8080398
:10E81000314CDFF8C8B04FF4807894F827004FF0FF
:10E82000000A012811D00220C5F804034FF00109A5
:10E8300084F82790082084F82900002004EB400188
:10E84000897DF9B184F8290020E0E06828B1022030
:10E85000C5F804031120BDE8F09FE760A68294F894
:10E860002A0001280AD1404600F034F90028FAD0E5
:10E87000CBF800A03146384600F0EAF80220C5F88F
:10E88000040322E0401CC0B20828D7D394F8290022
:10E89000082801D30820DEE767602681D046A4F867
:10E8A0000AA004EB4001C4F80CA0CA7D897D00F0E9
:10E8B00007F994F82A00012809D00121384600F010
:10E8C000C7F8CBF80080C5F800900020C3E73146B8
:10E8D000F4E7000000700040D825002000710040DF
:10E8E00070B51F4D06460C4695F82700012804D048
:10E8F000A079FFF70BFC30B901E0112070BDE07981
:10E90000FFF704FC08B1042070BDA079FFF7F6FB07
:10E9100028B1A179491EC8B20121FDF707FAE079B3
:10E92000FFF7ECFB28B1E0790121401EC0B2FDF7F2
:10E93000FDF905EB4600817D19B915F82A1F491C20
:10E940002970A1798175E179C1752146304600F0C1
:10E9500087F800221146304600F0B2F8002070BD62
:10E96000D8250020154A10B592F826300BB10820A2
:10E9700010BD09B110B102E0072010BD1048114BC5
:10E9800042F80C1B017819601B1D417819600021A9
:10E99000117701249476D176917722F8021C516088
:10E9A00081780720FFF724FE07490220C1F80403FD
:10E9B0000448F0380460002010BD0000D825002075
:10E9C00030FD0100F0750040007000400549002056
:10E9D00091F8271019B1044A0121116070471120E4
:10E9E00070470000D82500200470004030B541EA8F
:10E9F0004201DDE9034541EA8301800041EA042147
:10EA000000F1A04041EA0541C0F8001730BD800088
:10EA100000F5E06000F1A040026822F4403202609C
:10EA2000026842EA0141016070470000034908B5ED
:10EA30000844002101600068009008BD00600040AB
:10EA400002494058012800D0002070470060004073
:10EA5000024A1060101D0160704700002C760040D3
:10EA600010B50A784B78302402F0030204EA03134D
:10EA70001A438B784FF4E06404EA03231A43CB78FB
:10EA80004FF4805404EA03331A430B794FF4E02423
:10EA900004EA03431A434B794FF4801404EA035306
:10EAA0001A43030105481844C0F818258A79C97922
:10EAB000C0F81415C0F8102510BD0000007000400B
:10EAC000030103481844C0F81425C0F81015704716
:10EAD0000070004002494058002800D001207047D3
:10EAE000007000404058002800D001207047D0F846
:10EAF0000403084000D0012070474058002800D08F
:10EB00000120704710B509780A4851B101290FD189
:10EB10000068FDF7FFFA00280AD0BDE81040FDF7B5
:10EB200027BA00224FF470110068FDF7B3FAF2E73C
:10EB300010BD000080FC010070B5054600881C4C2B
:10EB4000192826D00DDC102818D0112820D100203B
:10EB5000FEF732F808B1FDF70BFA4FF6FF70E080D0
:10EB60001DE03A2801D0552812D11321E08876DF24
:10EB700000280DD0BDE87040FDF7FAB90720FEF778
:10EB80001BF808B1FDF7F4F90020A070A888E08018
:10EB900070BDA8790028FBD1A078042803D0BDE877
:10EBA0007040FDF74FB8BDE8704000F0FDBB0000BD
:10EBB000001F0020F8B5CA88F2B9134B002231F8C3
:10EBC0000C6F9C781D8815E002EB820301EB430378
:10EBD0001F79BC420DD15F88BD420AD102EB82028F
:10EBE00001EB42018979490706D559890181002144
:10EBF00003E0521C9642E7DC01218DF80010026808
:10EC000069469047F8BD0000441F00200978054878
:10EC100031B1012903D0022901D1002101707047CF
:10EC20000121FBE7001F00200878002802D1487866
:10EC3000FDF71DB970470878002802D14878FDF724
:10EC400016B9704770B50546C0EBC5010B4800EB1F
:10EC500081040020C4F81100A4F8150020461021FA
:10EC6000FCF73FFBFF202074A0764FF6FF70208357
:10EC70002846BDE8704000F02BBF0000882300202C
:10EC80000449084490F93000082801DB012070474E
:10EC900000207047802500200449084490F9300086
:10ECA000082801D2012070470020704780250020ED
:10ECB00006490979490701D40820704720B1044961
:10ECC00049780160002070470E207047601F0020C7
:10ECD000A824002030B5104B1B795B0701D4082015
:10ECE00030BD18B112B104687CB901E00E2030BD0E
:10ECF0000A4B1D684DB140681D8901FB050059682C
:10ED00005B8903FB0511814201D8072030BDC2E9B0
:10ED10000040002030BD0000601F0020742500204E
:10ED2000F8B5054621480E460079400701D4082071
:10ED3000F8BD15B1286870BB01E00E20F8BD1C4C71
:10ED40000027206838B361892289606801FB0201CD
:10ED5000686881421FD9FFF755FA70B1D5E9000202
:10ED600000EB400004EB800043680189D41AB4FB37
:10ED7000F1FC01FB1C4474B901E01020F8BDB6FBA6
:10ED8000F1F401FB146434B92EB14089324400FB24
:10ED90000130824201D90720F8BD334600222946BE
:10EDA00003200097FEF78CF9F8BD0000601F0020DB
:10EDB0007425002010B54FF010204469601C04D069
:10EDC00000F007F8B4FBF0F010BD4FF08050406940
:10EDD00010BD4FF08050006980B2704770B5104888
:10EDE00000242546047044702846FEF759F96D1C2E
:10EDF0000A2DF9D30B4D6C80FFF7DCFF861EFFF761
:10EE0000E8FF46430648AE60CC306C610460048184
:10EE100044812C70AC610420EC616860002070BDFE
:10EE2000A8240020601F00202DE9F84380462348D5
:10EE30001F46164600790D46400702D40820BDE85B
:10EE4000F8832DB1B8F1000F02D0286898B901E01D
:10EE50000E20F4E71A4C206868B162892089616845
:10EE600002FB00116A68914205D926B1B04202D373
:10EE7000F119814201D90720E1E74046FFF7C2F9C5
:10EE8000D0B13846FFF7BEF9B0B16868FFF7BAF9FC
:10EE900090B168683246C1194046FCF709FA0096FD
:10EEA0002868002200EB4000434654F8204002212D
:10EEB0002846A0470020C2E71020C0E7601F0020BE
:10EEC000742500202DE9F041294D04460E4628798D
:10EED000400702D40820BDE8F081ECB1E6B120681B
:10EEE000D0B1FFF776FF0146A088814212D31028E7
:10EEF00010D3E08870B1FFF75DFF471EFFF769FF91
:10EF00004743E288A188A86802FB0102974201D327
:10EF1000890703D00720DEE70E20DCE76988012996
:10EF200024D0C6E90010134A01EB410302EB830130
:10EF30004860206842F82300A0880881E088488162
:10EF4000FFF747FFA188E288401E01FB0204FFF79C
:10EF500040FF94FBF0F4FFF73CFFA96804FB0010AE
:10EF6000A8606888401C68800020B4E70420B2E7ED
:10EF7000601F002074250020F8B504461C481E467A
:10EF8000154600790F46400701D40820F8BD1FB18F
:10EF900014B1206898B901E00E20F8BD1548016849
:10EFA00069B142894168008902FB0011626891429F
:10EFB00005D925B1A84202D3A919814201D9072058
:10EFC000F8BD3846FFF71EF978B13046FFF71AF959
:10EFD00058B16068FFF716F938B12B463A4621461A
:10EFE00001200096FEF76CF8F8BD1020F8BD000077
:10EFF000601F002074250020104902460878002870
:10F000001AD0042818D0022A14D0032A14D10A795D
:10F0100012070FD48A69521C8A61B2F57A7F06D032
:10F02000022801D000F0D4B9487800F021BB0D20AF
:10F03000FCF7C4BFFEF7A6BE70470000601F0020AB
:10F04000F8B504461C481E46154600790F46400791
:10F0500001D40820F8BD1FB114B1206898B901E0AF
:10F060000E20F8BD1548016869B1428941680089E0
:10F0700002FB00116268914205D925B1A84202D372
:10F08000A919814201D90720F8BD3846FFF7BAF81F
:10F0900078B13046FFF7B6F858B16068FFF7B2F8BC
:10F0A00038B12B463A46214604200096FEF708F870
:10F0B000F8BD1020F8BD0000601F0020742500205E
:10F0C00070B5012670044FF0E0210025C1F88001E1
:10F0D000084C4010C4F84803C4F8080366602F20A9
:10F0E000FCF798F8A660044C2F202561FCF792F8F5
:10F0F000E57070BD00100140981F002009480A49C2
:10F100000022C37DC1F8082143B1D1F81815437E10
:10F11000C268D154417E491C41767047D1F8180528
:10F120007047000004260020002000401FB5012287
:10F130008DF8080004488DF800200191D0E90012F4
:10F14000684690471FBD00000426002010B50178D6
:10F15000002970D140680121B0F90040FFF750FB51
:10F1600008B1FCF705FF4FF4167014FB00F0C1174F
:10F1700000EB9150801200EB40004FF4877101EBDF
:10F18000400080B240F6B831884201D364213FE0AC
:10F1900040F6543188420AD96FF03901A0F6B830F0
:10F1A0004843642190FBF1F0C0F164002DE040F68B
:10F1B000B42188420AD9A0F65430A0EB8000C000E8
:10F1C000A02190FBF1F0C0F12A001EE040F688116A
:10F1D00088420BD9A0F6B420A0EB800080004FF449
:10F1E000967190FBF1F0C0F112000EE040F6340190
:10F1F00088420CD9A0F68810A0EB800040004FF4A4
:10F20000AA7190FBF1F0C0F10600C1B200E000214C
:10F210000948FDF7CEF800280DD008280BD0A0F53E
:10F220004051043907D043F20141884203D0BDE880
:10F230001040FCF79DBE10BDBC22002008B502495D
:10F240000020009108BD0000001F00202DE9F041C2
:10F250000746806A14468846C8B3002531E000BFDF
:10F26000B96A05EB450001EB8006B088801CFE28DA
:10F2700002D90C20BDE8F0812288401C08F8020069
:10F2800020881622401C80B2208008F800202088A8
:10F29000401C80B2208000EB0801308800F012FC96
:10F2A0002188084480B22080B28842B1B16871B12F
:10F2B0004044FBF7FDFF2088B188084420806D1C86
:10F2C000EDB297F82C00A842CAD80020D2E7FFE799
:10F2D0000720CFE7FCF74CBE3EB50024F820009491
:10F2E0008DF800009DF80100694620F00F00401CD9
:10F2F00020F0F00020308DF801009DF8020020F091
:10F30000FF008DF802002248FDF7E6FA08B1FCF78D
:10F310002FFE204800901E4869460C30FDF715FA74
:10F3200008B1FCF725FE1D4D1B48CDE900050294F0
:10F330008DF808409DF80900694620F00F00401C38
:10F3400020F0F00020308DF809009DF80A0020F030
:10F350000F00401C20F0F00020308DF80A000C480F
:10F360001C30FDF733FA08B1FCF702FEFCF7FAFE99
:10F370000B48C4700B48CDE9000505486946483084
:10F38000FDF76EF9002801D0FCF7F2FD3EBD00004C
:10F390008C22002029EC010037EC0100D5F201009D
:10F3A000001F00200DEC010010B50020FDF704FC4B
:10F3B00008B1FCF7DDFDFDF72DFB08B1FCF7D8FD2A
:10F3C0003CDF002803D0BDE81040FCF7D1BD10BDE4
:10F3D0000C49087040B101280FD002280FD0032833
:10F3E0000FD14869FEF714BD00208861C861064846
:10F3F0004078002805D0FDF739BE00F0F5B800F0E0
:10F4000051B87047601F0020A824002018B103499C
:10F41000C860002070470E2070470000B81F002011
:10F420001CB5034901910091694660DF1CBD0000D5
:10F43000001F002070B50E460546144614211046E4
:10F44000FBF74FFF012020800021216121732672EC
:10F45000657205B1A072002070BDFCF777BD000099
:10F4600070B509B18C0701D0072070BD064C01258D
:10F47000A16062800549636010DF0028F5D1257026
:10F4800016202EDF70BD0000B81F00205BF40100C5
:10F4900018B103490861002070470E207047000032
:10F4A000B81F00202DE9F041164C606820F00100E3
:10F4B00060601548017801EB810100EB8106356938
:10F4C000FFF787FCB5FBF0F76761FFF782FCF18877
:10F4D0006D1E2944B1FBF0F08742606802D140F014
:10F4E000020001E020F0020060602079E16800F095
:10F4F0000200084304D00020BDE8F04100F0B8B895
:10F500000220F9E7601F0020A8240020014840697C
:10F51000FEF77EBC601F002010B5FFF74BFC441EB9
:10F52000FFF757FC4443FFF754FC05494A69521E54
:10F530005043CA682146BDE81040FEF76CBC00008D
:10F54000601F00202DE9F0411048017801EB810196
:10F5500000EB81042569FFF73CFCE1882289114416
:10F560002944B1FBF0F200FB1216FFF723FC471E03
:10F57000FFF72FFC07FB0061E08822891044044A52
:10F5800028441269BDE8F041FEF745BCA8240020DC
:10F59000601F002010B5FFF70DFC441EFFF719FC9B
:10F5A0004443FFF716FCB4FBF0F0BDE81040FEF753
:10F5B0002FBC000070B5FFF70CFC8608FFF709FCB4
:10F5C0000749496900FB01F4FFF7F4FB451EFFF70B
:10F5D00000FC684332462146BDE87040FEF71BBC84
:10F5E000601F00200020704770B51448017801EBBF
:10F5F000810100EB8104241DFFF7EBFB6188104EB5
:10F60000884211D2FFF7E5FB61880D1AFFF7E1FB95
:10F610008208A188E0680844216928442944FEF74B
:10F62000FAFBFFF7D6FB07E0A288E06810448A08DF
:10F630002169FEF7F0FB6088F06170BDA82400200E
:10F64000601F002004480079000702D4012000F068
:10F650000FB800F003B80000601F002003484168A5
:10F6600021F008014160407800F002B8601F0020DE
:10F6700002494870024951F820000047601F0020ED
:10F6800008FD010010B50446FFF7B6FC022C01D0BE
:10F69000032C09D105484178002905D0002141708B
:10F6A000BDE81040FCF7CEBA10BD0000001F0020DE
:10F6B00003480079000701D4FDF7C8BCFFF7CEBFAF
:10F6C000601F00202DE9F84F204C00256846D4E942
:10F6D00003B6FEF729FB8046FEF7CEFD0746A94696
:10F6E000B8F1000F25D00023009ACC46E06819E05D
:10F6F00007680146974202D9BA1A026014E0C1F8BD
:10F7000000C0D1F80C80D21BC8693B448A46B8F1CE
:10F71000000F07D0F71827F07F47C1E90178CAF832
:10F720001C500D460028E3D1E0602846FEF702FE9B
:10F7300004E02846FEF7FEFD00B917B15846FDF774
:10F7400009FD84F80490BDE8F88F0000981F0020A0
:10F750000D4B10B5D96831B102680C68A24204D8CB
:10F76000A21A0A60C161D86010BD0B4603E00B46C7
:10F77000C969121B21B10C689442F8D3A41A0C6019
:10F780000260C161D86110BD981F00202DE9F041D1
:10F790001D4DEC68002C35D01C48002700682969F5
:10F7A000B846401A20F07F462068B04215D822465D
:10F7B000361A0744E469107C68B182F810806B69DE
:10F7C00033B1D2E90501984728B1FCF7D1FB02E03B
:10F7D000D2E905108847002CE6D16978A8788142E3
:10F7E00006D1401CC0B2A870022801D185F8028061
:10F7F0000548A978183040F82170BDE8F041142080
:10F80000FBF732BEBDE8F081981F002004150140CF
:10F81000064A0020C2F81C010548838A8168C95C39
:10F82000838A5B1C8382C2F81C157047002000404D
:10F83000042600201FB500218DF8080005488DF82A
:10F840000010826801928175D0E9001268469047E5
:10F850001FBD000004260020F0B58FB00D460646FF
:10F860001C216846FBF73DFD00249DF80000039431
:10F8700040F002008DF80000012701948DF83670E9
:10F8800042F60720049405940694ADF834000C94D5
:10F8900068788DF83000A8788DF831009DF8320036
:10F8A000142120F00600801C20F019008DF8320091
:10F8B00007A8FBF716FD142107A8FBF712FD0DA8FA
:10F8C00007900CA8ADF824700890ADF82640ADF86C
:10F8D00028700B953088B31C07AA6946A2DF0FB0C9
:10F8E000F0BD00002DE9FF413E4D4FF40071284668
:10F8F000FFF7FDF801273C4C4FF40178002600B3D8
:10F900004FF492712846FFF7EDF8D0B1C5F82461A5
:10F91000C5F80883A07E00B96F6002208DF8000052
:10F92000D5F88004C5F880040390E07D8DF80800C8
:10F93000E0680190E6752676D4E9001268469047A3
:10F9400024E004212846FFF7D2F8F8B14FF484717F
:10F950002846FFF7C7F8C8B1FFF7D0FBE07D617E0E
:10F96000884213D1227E3AB1607EE168E275226955
:10F97000E2602676667607E0A07E00B96F60C5F883
:10F980000883E675607EE168FFF7D0FB4FF48E7167
:10F990002846FFF7A7F858B1A18AA07D814202D27C
:10F9A000FFF736FF04E0C5F81C6108B1FFF742FF1E
:10F9B0004FF4A2712846FFF795F800280FD0C5F83C
:10F9C0004461A07E00B12F60E07D002807D0E6757D
:10F9D000607EE16804B0BDE8F041FFF7A7BBBDE879
:10F9E000FF81000000200040042600207FB5334C3A
:10F9F0004FF492712046FFF780F8314D0026B0B1E8
:10FA0000C4F8246102208DF80000D4F88004C4F802
:10FA100080040390D4F83C058DF80800E868019054
:10FA2000EE752E76D5E90012684690471FE04FF438
:10FA300088712046FFF761F8C8B1C4F81061D4F8A6
:10FA40003C05E97DC0B2814211D12A7E5AB1E968F4
:10FA5000D4F8003223F02003C4F80032EA752A6992
:10FA6000EA602E7601E0EE75E968FFF75FFB4FF480
:10FA7000A2712046FFF741F850B1C4F84461E87D17
:10FA800030B1EE75D4F83C05E968C0B2FFF74EFB23
:10FA90004FF490712046FFF730F800280CD0C4F8DE
:10FAA0002061A87D002807D0D4F84C0504B0C0B26E
:10FAB000BDE87040FFF7BEBE7FBD000000200040E3
:10FAC000042600200870000A4870022070470000D9
:10FAD00001218140024842688A4342607047000029
:10FAE000481F002038B515494888A0F57F42FF3AE5
:10FAF00023D04A78124C521CD2B24A70237B9342D4
:10FB00000AD3091D75DF002817D0A169002914D078
:10FB100001B0BDE83040084700254D70217C29B177
:10FB20003B2176DF10B1A16901B1884761690029E5
:10FB300003D08DF800506846884738BD301F00203C
:10FB40006C2300200F480068C005C00D13D010388A
:10FB500040B2002806DA00F00F0000F1E02090F833
:10FB6000140D03E000F1E02090F8000440090128A2
:10FB700003D0032803D002207047002070470120E3
:10FB80007047000004ED00E042788378521CD2B246
:10FB9000934200D100220378934201D100207047A4
:10FBA0000A704168407800EB400001EBC0007047EC
:10FBB0002DE9FC411646DDE90854CDE900541F4605
:10FBC0008046022200F00CF8002807D1CDE900544D
:10FBD0003B4610223146404600F002F8BDE8FC8169
:10FBE0002DE9FC5F0026DDE90C4B994692468E46D6
:10FBF00080462788354630E0D8F80400002200EB24
:10FC0000850069460068019001A865DF002830D1B1
:10FC10009DF8000050451FD10EB1002100E00221E7
:10FC2000228808441118594522D846B9521C90B26E
:10FC3000208009F800E02088401C208001262188CF
:10FC400001A801EB0902694665DF002811D120886F
:10FC50009DF80010084420806D1CB8F80000A842F0
:10FC6000CADC56B12088C01B401E80B2FF2802D9D2
:10FC70000C20BDE8FC9F09F807000020F9E7000010
:10FC8000CC1F002000000000020009000418010041
:10FC90000218010003180100E022002000230020C8
:10FCA0002C2300200D0000000E0000000F000000BB
:10FCB000100000000D00030029CA01000E0003001F
:10FCC00029CA01000F00030029CA01001000030027
:10FCD00029CA01004C230020EDE5010075DF010079
:10FCE00099DE010029E00100E9E5010045DF01009E
:10FCF00095DE010025E00100E5E501009DDE010043
:10FD000091DE010021E0010095F50100B5F501004B
:10FD10000DF5010045F5010019F5010045F601005A
:10FD200091D301003DD30100B1F6010085E001004F
:10FD30000100030024260020030000005CFD0100F8
:10FD4000001F0020CC00000034B9010028FE010093
:10FD5000CC1F00207C26000044B9010000000000F8
:10FD60000000FFFF00000000000000000000000095
:10FD70000000000000000000000000000000000083
:10FD800000000000000000000090D0030000000010
:10FD90000000000000000000000000000000000063
:10FDA0000000000000000000000000000000000053
:10FDB0000000000000000000000000000000000043
:10FDC0000000000000000000000000000000000033
:10FDD0000000000000000000000000000000000023
:10FDE0000000000000000000000000000000000013
:10FDF0000000000000000000000000000000000003
:10FE000000000000000000000000000000000000F2
:10FE100000000000000000000000000000000000E2
:08FE20000000000000000000DA
:040000050001B20143
:00000001FF
